{"bytecode":"60806040523480156200001157600080fd5b5060408051808201909152600581526427bbb732b960d91b6020820152600080546001600160a01b03191633908117909155906200005081836200007e565b5050600080546001600160a01b03168152600160208190526040909120805460ff19169091179055620003bc565b6000546001600160a01b031633146200009657600080fd5b6001600160a01b038116600090815260036020526040902080620000bb848262000207565b50600180820180546001600160a01b0385166001600160a01b031990911681179091556000908152602082905260408120805460ff191683179055600280549283018155908190528291027f405787fa12a823e0f2b7631cc41b3ba8828b3321ca811111fa75cd3aa3bb5ace0180620001358382620002d3565b50600191820154910180546001600160a01b0319166001600160a01b03909216919091179055505050565b634e487b7160e01b600052604160045260246000fd5b600181811c908216806200018b57607f821691505b602082108103620001ac57634e487b7160e01b600052602260045260246000fd5b50919050565b601f82111562000202576000816000526020600020601f850160051c81016020861015620001dd5750805b601f850160051c820191505b81811015620001fe57828155600101620001e9565b5050505b505050565b81516001600160401b0381111562000223576200022362000160565b6200023b8162000234845462000176565b84620001b2565b602080601f8311600181146200027357600084156200025a5750858301515b600019600386901b1c1916600185901b178555620001fe565b600085815260208120601f198616915b82811015620002a45788860151825594840194600190910190840162000283565b5085821015620002c35787850151600019600388901b60f8161c191681555b5050505050600190811b01905550565b818103620002df575050565b620002eb825462000176565b6001600160401b0381111562000305576200030562000160565b620003168162000234845462000176565b6000601f8211600181146200034d5760008315620003345750848201545b600019600385901b1c1916600184901b178455620003b5565b600085815260209020601f19841690600086815260209020845b8381101562000389578286015482556001958601959091019060200162000367565b5085831015620003a85781850154600019600388901b60f8161c191681555b50505060018360011b0184555b5050505050565b61218d80620003cc6000396000f3fe608060405234801561001057600080fd5b506004361061007d5760003560e01c80637814aff41161005b5780637814aff4146100ea5780637912363e146100fd578063b5ab696014610110578063bed34bba1461012357600080fd5b806302d05d3f1461008257806343753b4d146100b257806369ba48fb146100d5575b600080fd5b600054610095906001600160a01b031681565b6040516001600160a01b0390911681526020015b60405180910390f35b6100c56100c0366004611a2e565b610136565b60405190151581526020016100a9565b6100e86100e3366004611a9f565b610241565b005b6100e86100f8366004611c45565b6102bc565b6100e861010b366004611d8f565b6102ca565b6100e861011e366004611dd3565b6103a7565b6100c5610131366004611e21565b61053f565b60006101406116f6565b60408051808201825287518152602080890151818301529083528151608081018352875151818401908152885183015160608301528152825180840184528883018051518252518301518184015281830152838201528151808301835286518152868201518183015283830152815160018082528184019093526000929091828101908036833701905050905060005b6001811015610215578481600181106101eb576101eb611e7a565b602002015182828151811061020257610202611e7a565b60209081029190910101526001016101d0565b506102208183610599565b60000361023257600192505050610239565b6000925050505b949350505050565b6000546001600160a01b0316331461025857600080fd5b6001600160a01b0382166000908152600160205260409020805460ff19169055600280548290811061028c5761028c611e7a565b600091825260208220600290910201906102a68282611747565b5060010180546001600160a01b03191690555050565b6102c68282610784565b5050565b6000546001600160a01b031633146102e157600080fd5b6001600160a01b0381166000908152600360205260409020806103048482611f1a565b50600180820180546001600160a01b0385166001600160a01b031990911681179091556000908152602082905260408120805460ff191683179055600280549283018155908190528291027f405787fa12a823e0f2b7631cc41b3ba8828b3321ca811111fa75cd3aa3bb5ace018061037c8382611fd9565b50600191820154910180546001600160a01b0319166001600160a01b03909216919091179055505050565b6000546001600160a01b031633146103be57600080fd5b6103e8816040518060400160405280600881526020016727b832b930ba37b960c11b81525061053f565b1515600103610403576103fe6004836001611784565b505050565b610429816040518060400160405280600481526020016327b832b760e11b81525061053f565b151560010361043f576103fe6005836001611784565b6104698160405180604001604052806008815260200167537065636966696360c01b81525061053f565b151560010361047f576103fe6006836001611784565b6104aa816040518060400160405280600981526020016810d95c9d1a599a595960ba1b81525061053f565b15156001036104c0576103fe6007836001611784565b6104ec816040518060400160405280600a8152602001695370656369616c4f707360b01b81525061053f565b1515600103610502576103fe6008836001611784565b610529816040518060400160405280600581526020016442564c4f5360d81b81525061053f565b15156001036102c6576103fe6009836001611784565b60008160405160200161055291906120b3565b604051602081830303815290604052805190602001208360405160200161057991906120b3565b604051602081830303815290604052805190602001201490505b92915050565b60007f30644e72e131a029b85045b68181585d2833e84879b9709143e1f593f0000001816105c56108a3565b9050806080015151855160016105db91906120f8565b146106225760405162461bcd60e51b81526020600482015260126024820152711d995c9a599a595c8b5898590b5a5b9c1d5d60721b60448201526064015b60405180910390fd5b604080518082019091526000808252602082018190525b8651811015610709578387828151811061065557610655611e7a565b6020026020010151106106aa5760405162461bcd60e51b815260206004820152601f60248201527f76657269666965722d6774652d736e61726b2d7363616c61722d6669656c64006044820152606401610619565b6106ff826106fa85608001518460016106c391906120f8565b815181106106d3576106d3611e7a565b60200260200101518a85815181106106ed576106ed611e7a565b6020026020010151610c3c565b610cd2565b9150600101610639565b5061073281836080015160008151811061072557610725611e7a565b6020026020010151610cd2565b90506107686107448660000151610d6b565b8660200151846000015185602001518587604001518b604001518960600151610e0a565b6107785760019350505050610593565b50600095945050505050565b600061016083015261079582610f95565b151560011480156107a857506060820151155b15610867576001610160830181905260e08301518351604051429392916107ce916120b3565b6040805191829003822060208089015160608a015160a08b01518a51938b01516101208d0151968c015195977f13bcdc869ba4cc3b484072f6e51565ecef86851b9bda3b26da76b270a93232139761085a978d979392978852602088019690965293151560408701529115156060860152608085015260a084015260c083015260e08201526101000190565b60405180910390a4505050565b61087082610f95565b15801561087f57506060820151155b156102c65761016082015160e083015183516040514293151592916107ce916120b3565b6108ab6117c2565b6040805180820182527f11a10c7ef1eab3a95e7a6e67c0c11fd665955979465991bd7a2f9d393d3c7ee281527f080090b27598f573231ababe76b0c00adfaf770bb8c51fca55415e9b62f920866020808301919091529083528151608080820184527f190f5221cade2396c5ee02ffabe2ab8622a1d979326a92f2b0a666e6012f49038285019081527f01e9dba9b70b592fe193260319ac1af68a0ad07438ec9104b95dbff9f2c8ed54606080850191909152908352845180860186527f15eaaad9f1ce5bd003c6ab4e6e4fd70b5bbf9980b3a10c1d2d1fb2673ed442dd81527f2584d3357f1e566058fff8952a489efc2301d4b67ebd07bce3ca59b0cbd6eb38818601528385015285840192909252835180820185527f198e9393920d483a7260bfb731fb5d25f1aa493335a9e71297e485b7aef312c28186019081527f1800deef121f1e76426a00665e5c4479674322d4f75edadd46debd5cd992f6ed828501528152845180860186527f090689d0585ff075ec9e99ad690c3395bc4b313370b38ef355acdadcd122975b81527f12c85ea5db8c6deb4aab71808dcb408fe3d1e7690c43d37b4ce6cc0166fa7daa818601528185015285850152835190810184527f2cdec9fb98dc8c6be7831a7de0579bae9ff0fe0fc34a35ea46851835fa66450b8185019081527f0386d61435b8df78c9738444e9d0cd2e06c2c6d8623ebb336a698c9f5cbb486b828401528152835180850185527f2a59ea9f66cbeaeeb21ada2063f9ec179a5168ec184a24821c34b404b7f8b91981527f2c2ef624173f8e605ccd27777268890395963e6078ddd7b0a2a1df4afac4260a818501528184015281850152825160028082529181019093529082015b6040805180820190915260008082526020820152815260200190600190039081610b2457505060808201908152604080518082019091527f23d2fd931c4beb70b9ab62b0e8d257d39a465b29167c698942222b438efd2de381527f0feb3c9f5f7cbc12b93055d318269d66f57f83d2b1fc0d7bee0ddd06b0affd84602082015290518051600090610bb757610bb7611e7a565b602002602001018190525060405180604001604052807f06c063e14cf007ec2a9864db2ca81a6b9315bd8623798946a56b4da655d0454281526020017f28483eb1f953854afc266f7f4e5047d8a26ad6b3f5d770a9d2f9c6f464c28a3c8152508160800151600181518110610c2e57610c2e611e7a565b602002602001018190525090565b6040805180820190915260008082526020820152610c58611813565b835181526020808501519082015260408101839052600060608360808460076107d05a03fa90508080610c8757fe5b5080610cca5760405162461bcd60e51b81526020600482015260126024820152711c185a5c9a5b99cb5b5d5b0b59985a5b195960721b6044820152606401610619565b505092915050565b6040805180820190915260008082526020820152610cee611831565b8351815260208085015181830152835160408301528301516060808301919091526000908360c08460066107d05a03fa90508080610d2857fe5b5080610cca5760405162461bcd60e51b81526020600482015260126024820152711c185a5c9a5b99cb5859190b59985a5b195960721b6044820152606401610619565b604080518082019091526000808252602082015281517f30644e72e131a029b85045b68181585d97816a916871ca8d3c208c16d87cfd4790158015610db257506020830151155b15610dd25750506040805180820190915260008082526020820152919050565b604051806040016040528084600001518152602001828560200151610df7919061210b565b610e01908461212d565b90529392505050565b60408051600480825260a08201909252600091829190816020015b6040805180820190915260008082526020820152815260200190600190039081610e2557505060408051600480825260a0820190925291925060009190602082015b610e6f61184f565b815260200190600190039081610e675790505090508a82600081518110610e9857610e98611e7a565b60200260200101819052508882600181518110610eb757610eb7611e7a565b60200260200101819052508682600281518110610ed657610ed6611e7a565b60200260200101819052508482600381518110610ef557610ef5611e7a565b60200260200101819052508981600081518110610f1457610f14611e7a565b60200260200101819052508781600181518110610f3357610f33611e7a565b60200260200101819052508581600281518110610f5257610f52611e7a565b60200260200101819052508381600381518110610f7157610f71611e7a565b6020026020010181905250610f8682826113a9565b9b9a5050505050505050505050565b60008160600151151560011515148015610fb5575060a082015115156001145b156110f75760085460808301516060908101515160095460c086015190920151516020860151919093149290911490600090810361100657600560005b015460408601516060015151149050611037565b846020015160010361101b5760066000610ff2565b8460200151600203611037575060075460408501516060015151145b604080860151805160208201519282015160609092015161105a93919290610136565b8015611082575060808501518051602082015160408301516060909301516110829390610136565b80156110aa575060c08501518051602082015160408301516060909301516110aa9390610136565b80156110d357506101008501518051602082015160408301516060909301516110d39390610136565b80156110dc5750825b80156110e55750815b80156110ee5750805b95945050505050565b60608201511515600114801561110f575060a0820151155b1561120757600854608083015160600151516020840151911490600090810361114b57600560005b01546040850151606001515114905061117c565b83602001516001036111605760066000611137565b836020015160020361117c575060075460408401516060015151145b604080850151805160208201519282015160609092015161119f93919290610136565b80156111c7575060808401518051602082015160408301516060909301516111c79390610136565b80156111f057506101008401518051602082015160408301516060909301516111f09390610136565b80156111f95750815b801561023957509392505050565b606082015115801561121f575060a082015115156001145b156112d75760095460c083015160600151516020840151911490600090810361125b57600560005b01546040850151606001515114905061128c565b83602001516001036112705760066000611247565b836020015160020361128c575060075460408401516060015151145b60408085015180516020820151928201516060909201516112af93919290610136565b80156111c7575060c08401518051602082015160408301516060909301516111c79390610136565b60608201511580156112eb575060a0820151155b156113a4576000826020015160000361131757600560005b015460408401516060015151149050611348565b826020015160010361132c5760066000611303565b8260200151600203611348575060075460408301516060015151145b604080840151805160208201519282015160609092015161136b93919290610136565b801561139457506101008301518051602082015160408301516060909301516113949390610136565b801561139d5750805b9392505050565b919050565b600081518351146113f55760405162461bcd60e51b81526020600482015260166024820152751c185a5c9a5b99cb5b195b99dd1a1ccb59985a5b195960521b6044820152606401610619565b82516000611404826006612140565b90506000816001600160401b03811115611420576114206118c0565b604051908082528060200260200182016040528015611449578160200160208202803683370190505b50905060005b8381101561167a5786818151811061146957611469611e7a565b602002602001015160000151828260066114839190612140565b61148e9060006120f8565b8151811061149e5761149e611e7a565b6020026020010181815250508681815181106114bc576114bc611e7a565b602002602001015160200151828260066114d69190612140565b6114e19060016120f8565b815181106114f1576114f1611e7a565b60200260200101818152505085818151811061150f5761150f611e7a565b6020908102919091010151515182611528836006612140565b6115339060026120f8565b8151811061154357611543611e7a565b60200260200101818152505085818151811061156157611561611e7a565b6020908102919091018101515101518261157c836006612140565b6115879060036120f8565b8151811061159757611597611e7a565b6020026020010181815250508581815181106115b5576115b5611e7a565b6020026020010151602001516000600281106115d3576115d3611e7a565b6020020151826115e4836006612140565b6115ef9060046120f8565b815181106115ff576115ff611e7a565b60200260200101818152505085818151811061161d5761161d611e7a565b60200260200101516020015160016002811061163b5761163b611e7a565b60200201518261164c836006612140565b6116579060056120f8565b8151811061166757611667611e7a565b602090810291909101015260010161144f565b5061168361186f565b6000602082602086026020860160086107d05a03fa905080806116a257fe5b50806116e85760405162461bcd60e51b81526020600482015260156024820152741c185a5c9a5b99cb5bdc18dbd9194b59985a5b1959605a1b6044820152606401610619565b505115159695505050505050565b6040805160a08101909152600060608201818152608083019190915281526020810161172061184f565b8152602001611742604051806040016040528060008152602001600081525090565b905290565b50805461175390611e90565b6000825580601f10611763575050565b601f016020900490600052602060002090810190611781919061188d565b50565b82600181019282156117b2579160200282015b828111156117b2578251825591602001919060010190611797565b506117be92915061188d565b5090565b6040805160e08101909152600060a0820181815260c08301919091528152602081016117ec61184f565b81526020016117f961184f565b815260200161180661184f565b8152602001606081525090565b60405180606001604052806003906020820280368337509192915050565b60405180608001604052806004906020820280368337509192915050565b60405180604001604052806118626118a2565b81526020016117426118a2565b60405180602001604052806001906020820280368337509192915050565b5b808211156117be576000815560010161188e565b60405180604001604052806002906020820280368337509192915050565b634e487b7160e01b600052604160045260246000fd5b60405161018081016001600160401b03811182821017156118f9576118f96118c0565b60405290565b604080519081016001600160401b03811182821017156118f9576118f96118c0565b600082601f83011261193257600080fd5b61193a6118ff565b80604084018581111561194c57600080fd5b845b8181101561196657803584526020938401930161194e565b509095945050505050565b600082601f83011261198257600080fd5b61198a6118ff565b80608084018581111561199c57600080fd5b845b81811015611966576119b08782611921565b845260209093019260400161199e565b600082601f8301126119d157600080fd5b60405160208082018281106001600160401b03821117156119f4576119f46118c0565b604052816020850186811115611a0957600080fd5b855b81811015611a225780358352918301918301611a0b565b50929695505050505050565b6000806000806101208587031215611a4557600080fd5b611a4f8686611921565b9350611a5e8660408701611971565b9250611a6d8660c08701611921565b9150611a7d8661010087016119c0565b905092959194509250565b80356001600160a01b03811681146113a457600080fd5b60008060408385031215611ab257600080fd5b611abb83611a88565b946020939093013593505050565b600082601f830112611ada57600080fd5b81356001600160401b0380821115611af457611af46118c0565b604051601f8301601f19908116603f01168101908282118183101715611b1c57611b1c6118c0565b81604052838152866020858801011115611b3557600080fd5b836020870160208301376000602085830101528094505050505092915050565b60006101208284031215611b6857600080fd5b604051608081018181106001600160401b0382111715611b8a57611b8a6118c0565b604052905080611b9a8484611921565b8152611ba98460408501611971565b6020820152611bbb8460c08501611921565b6040820152611bce8461010085016119c0565b60608201525092915050565b803580151581146113a457600080fd5b600060608284031215611bfc57600080fd5b604051606081018181106001600160401b0382111715611c1e57611c1e6118c0565b80604052508091508235815260208301356020820152604083013560408201525092915050565b60008060808385031215611c5857600080fd5b82356001600160401b0380821115611c6f57600080fd5b908401906105808287031215611c8457600080fd5b611c8c6118d6565b823582811115611c9b57600080fd5b611ca788828601611ac9565b82525060208301356020820152611cc18760408501611b55565b6040820152610160611cd4818501611bda565b6060830152611ce7886101808601611b55565b6080830152611cf96102a08501611bda565b60a0830152611d0c886102c08601611b55565b60c08301526103e084013560e0830152611d2a886104008601611b55565b61010083015261052084013561012083015261054084013583811115611d4f57600080fd5b611d5b89828701611ac9565b61014084015250611d6f6105608501611bda565b908201529350611d86915085905060208501611bea565b90509250929050565b60008060408385031215611da257600080fd5b82356001600160401b03811115611db857600080fd5b611dc485828601611ac9565b925050611d8660208401611a88565b60008060408385031215611de657600080fd5b611df084846119c0565b915060208301356001600160401b03811115611e0b57600080fd5b611e1785828601611ac9565b9150509250929050565b60008060408385031215611e3457600080fd5b82356001600160401b0380821115611e4b57600080fd5b611e5786838701611ac9565b93506020850135915080821115611e6d57600080fd5b50611e1785828601611ac9565b634e487b7160e01b600052603260045260246000fd5b600181811c90821680611ea457607f821691505b602082108103611ec457634e487b7160e01b600052602260045260246000fd5b50919050565b601f8211156103fe576000816000526020600020601f850160051c81016020861015611ef35750805b601f850160051c820191505b81811015611f1257828155600101611eff565b505050505050565b81516001600160401b03811115611f3357611f336118c0565b611f4781611f418454611e90565b84611eca565b602080601f831160018114611f7c5760008415611f645750858301515b600019600386901b1c1916600185901b178555611f12565b600085815260208120601f198616915b82811015611fab57888601518255948401946001909101908401611f8c565b5085821015611fc95787850151600019600388901b60f8161c191681555b5050505050600190811b01905550565b818103611fe4575050565b611fee8254611e90565b6001600160401b03811115612005576120056118c0565b61201381611f418454611e90565b6000601f821160018114612047576000831561202f5750848201545b600019600385901b1c1916600184901b1784556120ac565b600085815260209020601f19841690600086815260209020845b838110156120815782860154825560019586019590910190602001612061565b508583101561209f5781850154600019600388901b60f8161c191681555b50505060018360011b0184555b5050505050565b6000825160005b818110156120d457602081860181015185830152016120ba565b506000920191825250919050565b634e487b7160e01b600052601160045260246000fd5b80820180821115610593576105936120e2565b60008261212857634e487b7160e01b600052601260045260246000fd5b500690565b81810381811115610593576105936120e2565b8082028115828204841417610593576105936120e256fea2646970667358221220acbacf026b1250deaa78eea0d1a9db74733aea54bfbdef2f911854e755e92c1464736f6c63430008160033","bytecodeSha1":"36b628336b9919ba0107edab45b27e2715ff6747","type":"contract","abi":[{"inputs":[],"stateMutability":"nonpayable","type":"constructor","name":"constructor"},{"anonymous":false,"inputs":[{"indexed":false,"internalType":"uint256","name":"createdAt","type":"uint256"},{"indexed":true,"internalType":"string","name":"serial_number","type":"string"},{"indexed":false,"internalType":"uint256","name":"op_mode","type":"uint256"},{"indexed":false,"internalType":"bool","name":"flight_type","type":"bool"},{"indexed":false,"internalType":"bool","name":"flight_cat","type":"bool"},{"indexed":false,"internalType":"uint256","name":"id_tech","type":"uint256"},{"indexed":false,"internalType":"uint256","name":"ex_connect_meth","type":"uint256"},{"indexed":false,"internalType":"uint256","name":"endurance","type":"uint256"},{"indexed":false,"internalType":"uint256","name":"emergency_proc","type":"uint256"},{"indexed":true,"internalType":"uint256","name":"operator_num","type":"uint256"},{"indexed":true,"internalType":"bool","name":"approved","type":"bool"}],"name":"NewFlightRequest","type":"event"},{"inputs":[{"internalType":"string","name":"a","type":"string"},{"internalType":"string","name":"b","type":"string"}],"name":"compareStrings","outputs":[{"internalType":"bool","name":"","type":"bool"}],"stateMutability":"pure","type":"function"},{"inputs":[{"internalType":"string","name":"_name","type":"string"},{"internalType":"address","name":"_address","type":"address"}],"name":"createApprover","outputs":[],"stateMutability":"nonpayable","type":"function"},{"inputs":[],"name":"creator","outputs":[{"internalType":"address","name":"","type":"address"}],"stateMutability":"view","type":"function"},{"inputs":[{"internalType":"address","name":"_address","type":"address"},{"internalType":"uint256","name":"number","type":"uint256"}],"name":"deleteApprover","outputs":[],"stateMutability":"nonpayable","type":"function"},{"inputs":[{"components":[{"internalType":"string","name":"_SN","type":"string"},{"internalType":"uint256","name":"_op_mode","type":"uint256"},{"components":[{"internalType":"uint256[2]","name":"_part1","type":"uint256[2]"},{"internalType":"uint256[2][2]","name":"_part2","type":"uint256[2][2]"},{"internalType":"uint256[2]","name":"_part3","type":"uint256[2]"},{"internalType":"uint256[1]","name":"_part4","type":"uint256[1]"}],"internalType":"struct FlightAuth.ZKProof","name":"proof_op_mode","type":"tuple"},{"internalType":"bool","name":"_flight_type","type":"bool"},{"components":[{"internalType":"uint256[2]","name":"_part1","type":"uint256[2]"},{"internalType":"uint256[2][2]","name":"_part2","type":"uint256[2][2]"},{"internalType":"uint256[2]","name":"_part3","type":"uint256[2]"},{"internalType":"uint256[1]","name":"_part4","type":"uint256[1]"}],"internalType":"struct FlightAuth.ZKProof","name":"proof_flight_type","type":"tuple"},{"internalType":"bool","name":"_flight_cat","type":"bool"},{"components":[{"internalType":"uint256[2]","name":"_part1","type":"uint256[2]"},{"internalType":"uint256[2][2]","name":"_part2","type":"uint256[2][2]"},{"internalType":"uint256[2]","name":"_part3","type":"uint256[2]"},{"internalType":"uint256[1]","name":"_part4","type":"uint256[1]"}],"internalType":"struct FlightAuth.ZKProof","name":"proof_flight_cat","type":"tuple"},{"internalType":"uint256","name":"_operator_num","type":"uint256"},{"components":[{"internalType":"uint256[2]","name":"_part1","type":"uint256[2]"},{"internalType":"uint256[2][2]","name":"_part2","type":"uint256[2][2]"},{"internalType":"uint256[2]","name":"_part3","type":"uint256[2]"},{"internalType":"uint256[1]","name":"_part4","type":"uint256[1]"}],"internalType":"struct FlightAuth.ZKProof","name":"proof_operator_num","type":"tuple"},{"internalType":"uint256","name":"endurance","type":"uint256"},{"internalType":"string","name":"trajectory_4D","type":"string"},{"internalType":"bool","name":"approved","type":"bool"}],"internalType":"struct FlightAuth.FlightRequest","name":"current_request","type":"tuple"},{"components":[{"internalType":"uint256","name":"id_tech","type":"uint256"},{"internalType":"uint256","name":"ex_connec_meth","type":"uint256"},{"internalType":"uint256","name":"emergency_proc","type":"uint256"}],"internalType":"struct FlightAuth.FlightInfo","name":"current_info","type":"tuple"}],"name":"setupFlightRequest","outputs":[],"stateMutability":"nonpayable","type":"function"},{"inputs":[{"internalType":"uint256[1]","name":"root","type":"uint256[1]"},{"internalType":"string","name":"name_of_tree","type":"string"}],"name":"updateRoot","outputs":[],"stateMutability":"nonpayable","type":"function"},{"inputs":[{"internalType":"uint256[2]","name":"a","type":"uint256[2]"},{"internalType":"uint256[2][2]","name":"b","type":"uint256[2][2]"},{"internalType":"uint256[2]","name":"c","type":"uint256[2]"},{"internalType":"uint256[1]","name":"input","type":"uint256[1]"}],"name":"verifyProof","outputs":[{"internalType":"bool","name":"r","type":"bool"}],"stateMutability":"view","type":"function"}],"compiler":{"version":"0.8.22+commit.4fc1097e","evm_version":"istanbul","optimizer":{"enabled":true,"runs":200}},"contractName":"FlightAuth","language":"Solidity","natspec":{"methods":{"verifyProof(uint256[2],uint256[2][2],uint256[2],uint256[1])":{"returns":{"r":" bool true if proof is valid"}}},"kind":"dev","version":1},"opcodes":"PUSH1 0x80 PUSH1 0x40 MSTORE CALLVALUE DUP1 ISZERO PUSH2 0x10 JUMPI PUSH1 0x0 DUP1 REVERT JUMPDEST POP PUSH1 0x4 CALLDATASIZE LT PUSH2 0x7D JUMPI PUSH1 0x0 CALLDATALOAD PUSH1 0xE0 SHR DUP1 PUSH4 0x7814AFF4 GT PUSH2 0x5B JUMPI DUP1 PUSH4 0x7814AFF4 EQ PUSH2 0xEA JUMPI DUP1 PUSH4 0x7912363E EQ PUSH2 0xFD JUMPI DUP1 PUSH4 0xB5AB6960 EQ PUSH2 0x110 JUMPI DUP1 PUSH4 0xBED34BBA EQ PUSH2 0x123 JUMPI PUSH1 0x0 DUP1 REVERT JUMPDEST DUP1 PUSH4 0x2D05D3F EQ PUSH2 0x82 JUMPI DUP1 PUSH4 0x43753B4D EQ PUSH2 0xB2 JUMPI DUP1 PUSH4 0x69BA48FB EQ PUSH2 0xD5 JUMPI JUMPDEST PUSH1 0x0 DUP1 REVERT JUMPDEST PUSH1 0x0 SLOAD PUSH2 0x95 SWAP1 PUSH1 0x1 PUSH1 0x1 PUSH1 0xA0 SHL SUB AND DUP2 JUMP JUMPDEST PUSH1 0x40 MLOAD PUSH1 0x1 PUSH1 0x1 PUSH1 0xA0 SHL SUB SWAP1 SWAP2 AND DUP2 MSTORE PUSH1 0x20 ADD JUMPDEST PUSH1 0x40 MLOAD DUP1 SWAP2 SUB SWAP1 RETURN JUMPDEST PUSH2 0xC5 PUSH2 0xC0 CALLDATASIZE PUSH1 0x4 PUSH2 0x1A2E JUMP JUMPDEST PUSH2 0x136 JUMP JUMPDEST PUSH1 0x40 MLOAD SWAP1 ISZERO ISZERO DUP2 MSTORE PUSH1 0x20 ADD PUSH2 0xA9 JUMP JUMPDEST PUSH2 0xE8 PUSH2 0xE3 CALLDATASIZE PUSH1 0x4 PUSH2 0x1A9F JUMP JUMPDEST PUSH2 0x241 JUMP JUMPDEST STOP JUMPDEST PUSH2 0xE8 PUSH2 0xF8 CALLDATASIZE PUSH1 0x4 PUSH2 0x1C45 JUMP JUMPDEST PUSH2 0x2BC JUMP JUMPDEST PUSH2 0xE8 PUSH2 0x10B CALLDATASIZE PUSH1 0x4 PUSH2 0x1D8F JUMP JUMPDEST PUSH2 0x2CA JUMP JUMPDEST PUSH2 0xE8 PUSH2 0x11E CALLDATASIZE PUSH1 0x4 PUSH2 0x1DD3 JUMP JUMPDEST PUSH2 0x3A7 JUMP JUMPDEST PUSH2 0xC5 PUSH2 0x131 CALLDATASIZE PUSH1 0x4 PUSH2 0x1E21 JUMP JUMPDEST PUSH2 0x53F JUMP JUMPDEST PUSH1 0x0 PUSH2 0x140 PUSH2 0x16F6 JUMP JUMPDEST PUSH1 0x40 DUP1 MLOAD DUP1 DUP3 ADD DUP3 MSTORE DUP8 MLOAD DUP2 MSTORE PUSH1 0x20 DUP1 DUP10 ADD MLOAD DUP2 DUP4 ADD MSTORE SWAP1 DUP4 MSTORE DUP2 MLOAD PUSH1 0x80 DUP2 ADD DUP4 MSTORE DUP8 MLOAD MLOAD DUP2 DUP5 ADD SWAP1 DUP2 MSTORE DUP9 MLOAD DUP4 ADD MLOAD PUSH1 0x60 DUP4 ADD MSTORE DUP2 MSTORE DUP3 MLOAD DUP1 DUP5 ADD DUP5 MSTORE DUP9 DUP4 ADD DUP1 MLOAD MLOAD DUP3 MSTORE MLOAD DUP4 ADD MLOAD DUP2 DUP5 ADD MSTORE DUP2 DUP4 ADD MSTORE DUP4 DUP3 ADD MSTORE DUP2 MLOAD DUP1 DUP4 ADD DUP4 MSTORE DUP7 MLOAD DUP2 MSTORE DUP7 DUP3 ADD MLOAD DUP2 DUP4 ADD MSTORE DUP4 DUP4 ADD MSTORE DUP2 MLOAD PUSH1 0x1 DUP1 DUP3 MSTORE DUP2 DUP5 ADD SWAP1 SWAP4 MSTORE PUSH1 0x0 SWAP3 SWAP1 SWAP2 DUP3 DUP2 ADD SWAP1 DUP1 CALLDATASIZE DUP4 CALLDATACOPY ADD SWAP1 POP POP SWAP1 POP PUSH1 0x0 JUMPDEST PUSH1 0x1 DUP2 LT ISZERO PUSH2 0x215 JUMPI DUP5 DUP2 PUSH1 0x1 DUP2 LT PUSH2 0x1EB JUMPI PUSH2 0x1EB PUSH2 0x1E7A JUMP JUMPDEST PUSH1 0x20 MUL ADD MLOAD DUP3 DUP3 DUP2 MLOAD DUP2 LT PUSH2 0x202 JUMPI PUSH2 0x202 PUSH2 0x1E7A JUMP JUMPDEST PUSH1 0x20 SWAP1 DUP2 MUL SWAP2 SWAP1 SWAP2 ADD ADD MSTORE PUSH1 0x1 ADD PUSH2 0x1D0 JUMP JUMPDEST POP PUSH2 0x220 DUP2 DUP4 PUSH2 0x599 JUMP JUMPDEST PUSH1 0x0 SUB PUSH2 0x232 JUMPI PUSH1 0x1 SWAP3 POP POP POP PUSH2 0x239 JUMP JUMPDEST PUSH1 0x0 SWAP3 POP POP POP JUMPDEST SWAP5 SWAP4 POP POP POP POP JUMP JUMPDEST PUSH1 0x0 SLOAD PUSH1 0x1 PUSH1 0x1 PUSH1 0xA0 SHL SUB AND CALLER EQ PUSH2 0x258 JUMPI PUSH1 0x0 DUP1 REVERT JUMPDEST PUSH1 0x1 PUSH1 0x1 PUSH1 0xA0 SHL SUB DUP3 AND PUSH1 0x0 SWAP1 DUP2 MSTORE PUSH1 0x1 PUSH1 0x20 MSTORE PUSH1 0x40 SWAP1 KECCAK256 DUP1 SLOAD PUSH1 0xFF NOT AND SWAP1 SSTORE PUSH1 0x2 DUP1 SLOAD DUP3 SWAP1 DUP2 LT PUSH2 0x28C JUMPI PUSH2 0x28C PUSH2 0x1E7A JUMP JUMPDEST PUSH1 0x0 SWAP2 DUP3 MSTORE PUSH1 0x20 DUP3 KECCAK256 PUSH1 0x2 SWAP1 SWAP2 MUL ADD SWAP1 PUSH2 0x2A6 DUP3 DUP3 PUSH2 0x1747 JUMP JUMPDEST POP PUSH1 0x1 ADD DUP1 SLOAD PUSH1 0x1 PUSH1 0x1 PUSH1 0xA0 SHL SUB NOT AND SWAP1 SSTORE POP POP JUMP JUMPDEST PUSH2 0x2C6 DUP3 DUP3 PUSH2 0x784 JUMP JUMPDEST POP POP JUMP JUMPDEST PUSH1 0x0 SLOAD PUSH1 0x1 PUSH1 0x1 PUSH1 0xA0 SHL SUB AND CALLER EQ PUSH2 0x2E1 JUMPI PUSH1 0x0 DUP1 REVERT JUMPDEST PUSH1 0x1 PUSH1 0x1 PUSH1 0xA0 SHL SUB DUP2 AND PUSH1 0x0 SWAP1 DUP2 MSTORE PUSH1 0x3 PUSH1 0x20 MSTORE PUSH1 0x40 SWAP1 KECCAK256 DUP1 PUSH2 0x304 DUP5 DUP3 PUSH2 0x1F1A JUMP JUMPDEST POP PUSH1 0x1 DUP1 DUP3 ADD DUP1 SLOAD PUSH1 0x1 PUSH1 0x1 PUSH1 0xA0 SHL SUB DUP6 AND PUSH1 0x1 PUSH1 0x1 PUSH1 0xA0 SHL SUB NOT SWAP1 SWAP2 AND DUP2 OR SWAP1 SWAP2 SSTORE PUSH1 0x0 SWAP1 DUP2 MSTORE PUSH1 0x20 DUP3 SWAP1 MSTORE PUSH1 0x40 DUP2 KECCAK256 DUP1 SLOAD PUSH1 0xFF NOT AND DUP4 OR SWAP1 SSTORE PUSH1 0x2 DUP1 SLOAD SWAP3 DUP4 ADD DUP2 SSTORE SWAP1 DUP2 SWAP1 MSTORE DUP3 SWAP2 MUL PUSH32 0x405787FA12A823E0F2B7631CC41B3BA8828B3321CA811111FA75CD3AA3BB5ACE ADD DUP1 PUSH2 0x37C DUP4 DUP3 PUSH2 0x1FD9 JUMP JUMPDEST POP PUSH1 0x1 SWAP2 DUP3 ADD SLOAD SWAP2 ADD DUP1 SLOAD PUSH1 0x1 PUSH1 0x1 PUSH1 0xA0 SHL SUB NOT AND PUSH1 0x1 PUSH1 0x1 PUSH1 0xA0 SHL SUB SWAP1 SWAP3 AND SWAP2 SWAP1 SWAP2 OR SWAP1 SSTORE POP POP POP JUMP JUMPDEST PUSH1 0x0 SLOAD PUSH1 0x1 PUSH1 0x1 PUSH1 0xA0 SHL SUB AND CALLER EQ PUSH2 0x3BE JUMPI PUSH1 0x0 DUP1 REVERT JUMPDEST PUSH2 0x3E8 DUP2 PUSH1 0x40 MLOAD DUP1 PUSH1 0x40 ADD PUSH1 0x40 MSTORE DUP1 PUSH1 0x8 DUP2 MSTORE PUSH1 0x20 ADD PUSH8 0x27B832B930BA37B9 PUSH1 0xC1 SHL DUP2 MSTORE POP PUSH2 0x53F JUMP JUMPDEST ISZERO ISZERO PUSH1 0x1 SUB PUSH2 0x403 JUMPI PUSH2 0x3FE PUSH1 0x4 DUP4 PUSH1 0x1 PUSH2 0x1784 JUMP JUMPDEST POP POP POP JUMP JUMPDEST PUSH2 0x429 DUP2 PUSH1 0x40 MLOAD DUP1 PUSH1 0x40 ADD PUSH1 0x40 MSTORE DUP1 PUSH1 0x4 DUP2 MSTORE PUSH1 0x20 ADD PUSH4 0x27B832B7 PUSH1 0xE1 SHL DUP2 MSTORE POP PUSH2 0x53F JUMP JUMPDEST ISZERO ISZERO PUSH1 0x1 SUB PUSH2 0x43F JUMPI PUSH2 0x3FE PUSH1 0x5 DUP4 PUSH1 0x1 PUSH2 0x1784 JUMP JUMPDEST PUSH2 0x469 DUP2 PUSH1 0x40 MLOAD DUP1 PUSH1 0x40 ADD PUSH1 0x40 MSTORE DUP1 PUSH1 0x8 DUP2 MSTORE PUSH1 0x20 ADD PUSH8 0x5370656369666963 PUSH1 0xC0 SHL DUP2 MSTORE POP PUSH2 0x53F JUMP JUMPDEST ISZERO ISZERO PUSH1 0x1 SUB PUSH2 0x47F JUMPI PUSH2 0x3FE PUSH1 0x6 DUP4 PUSH1 0x1 PUSH2 0x1784 JUMP JUMPDEST PUSH2 0x4AA DUP2 PUSH1 0x40 MLOAD DUP1 PUSH1 0x40 ADD PUSH1 0x40 MSTORE DUP1 PUSH1 0x9 DUP2 MSTORE PUSH1 0x20 ADD PUSH9 0x10D95C9D1A599A5959 PUSH1 0xBA SHL DUP2 MSTORE POP PUSH2 0x53F JUMP JUMPDEST ISZERO ISZERO PUSH1 0x1 SUB PUSH2 0x4C0 JUMPI PUSH2 0x3FE PUSH1 0x7 DUP4 PUSH1 0x1 PUSH2 0x1784 JUMP JUMPDEST PUSH2 0x4EC DUP2 PUSH1 0x40 MLOAD DUP1 PUSH1 0x40 ADD PUSH1 0x40 MSTORE DUP1 PUSH1 0xA DUP2 MSTORE PUSH1 0x20 ADD PUSH10 0x5370656369616C4F7073 PUSH1 0xB0 SHL DUP2 MSTORE POP PUSH2 0x53F JUMP JUMPDEST ISZERO ISZERO PUSH1 0x1 SUB PUSH2 0x502 JUMPI PUSH2 0x3FE PUSH1 0x8 DUP4 PUSH1 0x1 PUSH2 0x1784 JUMP JUMPDEST PUSH2 0x529 DUP2 PUSH1 0x40 MLOAD DUP1 PUSH1 0x40 ADD PUSH1 0x40 MSTORE DUP1 PUSH1 0x5 DUP2 MSTORE PUSH1 0x20 ADD PUSH5 0x42564C4F53 PUSH1 0xD8 SHL DUP2 MSTORE POP PUSH2 0x53F JUMP JUMPDEST ISZERO ISZERO PUSH1 0x1 SUB PUSH2 0x2C6 JUMPI PUSH2 0x3FE PUSH1 0x9 DUP4 PUSH1 0x1 PUSH2 0x1784 JUMP JUMPDEST PUSH1 0x0 DUP2 PUSH1 0x40 MLOAD PUSH1 0x20 ADD PUSH2 0x552 SWAP2 SWAP1 PUSH2 0x20B3 JUMP JUMPDEST PUSH1 0x40 MLOAD PUSH1 0x20 DUP2 DUP4 SUB SUB DUP2 MSTORE SWAP1 PUSH1 0x40 MSTORE DUP1 MLOAD SWAP1 PUSH1 0x20 ADD KECCAK256 DUP4 PUSH1 0x40 MLOAD PUSH1 0x20 ADD PUSH2 0x579 SWAP2 SWAP1 PUSH2 0x20B3 JUMP JUMPDEST PUSH1 0x40 MLOAD PUSH1 0x20 DUP2 DUP4 SUB SUB DUP2 MSTORE SWAP1 PUSH1 0x40 MSTORE DUP1 MLOAD SWAP1 PUSH1 0x20 ADD KECCAK256 EQ SWAP1 POP JUMPDEST SWAP3 SWAP2 POP POP JUMP JUMPDEST PUSH1 0x0 PUSH32 0x30644E72E131A029B85045B68181585D2833E84879B9709143E1F593F0000001 DUP2 PUSH2 0x5C5 PUSH2 0x8A3 JUMP JUMPDEST SWAP1 POP DUP1 PUSH1 0x80 ADD MLOAD MLOAD DUP6 MLOAD PUSH1 0x1 PUSH2 0x5DB SWAP2 SWAP1 PUSH2 0x20F8 JUMP JUMPDEST EQ PUSH2 0x622 JUMPI PUSH1 0x40 MLOAD PUSH3 0x461BCD PUSH1 0xE5 SHL DUP2 MSTORE PUSH1 0x20 PUSH1 0x4 DUP3 ADD MSTORE PUSH1 0x12 PUSH1 0x24 DUP3 ADD MSTORE PUSH18 0x1D995C9A599A595C8B5898590B5A5B9C1D5D PUSH1 0x72 SHL PUSH1 0x44 DUP3 ADD MSTORE PUSH1 0x64 ADD JUMPDEST PUSH1 0x40 MLOAD DUP1 SWAP2 SUB SWAP1 REVERT JUMPDEST PUSH1 0x40 DUP1 MLOAD DUP1 DUP3 ADD SWAP1 SWAP2 MSTORE PUSH1 0x0 DUP1 DUP3 MSTORE PUSH1 0x20 DUP3 ADD DUP2 SWAP1 MSTORE JUMPDEST DUP7 MLOAD DUP2 LT ISZERO PUSH2 0x709 JUMPI DUP4 DUP8 DUP3 DUP2 MLOAD DUP2 LT PUSH2 0x655 JUMPI PUSH2 0x655 PUSH2 0x1E7A JUMP JUMPDEST PUSH1 0x20 MUL PUSH1 0x20 ADD ADD MLOAD LT PUSH2 0x6AA JUMPI PUSH1 0x40 MLOAD PUSH3 0x461BCD PUSH1 0xE5 SHL DUP2 MSTORE PUSH1 0x20 PUSH1 0x4 DUP3 ADD MSTORE PUSH1 0x1F PUSH1 0x24 DUP3 ADD MSTORE PUSH32 0x76657269666965722D6774652D736E61726B2D7363616C61722D6669656C6400 PUSH1 0x44 DUP3 ADD MSTORE PUSH1 0x64 ADD PUSH2 0x619 JUMP JUMPDEST PUSH2 0x6FF DUP3 PUSH2 0x6FA DUP6 PUSH1 0x80 ADD MLOAD DUP5 PUSH1 0x1 PUSH2 0x6C3 SWAP2 SWAP1 PUSH2 0x20F8 JUMP JUMPDEST DUP2 MLOAD DUP2 LT PUSH2 0x6D3 JUMPI PUSH2 0x6D3 PUSH2 0x1E7A JUMP JUMPDEST PUSH1 0x20 MUL PUSH1 0x20 ADD ADD MLOAD DUP11 DUP6 DUP2 MLOAD DUP2 LT PUSH2 0x6ED JUMPI PUSH2 0x6ED PUSH2 0x1E7A JUMP JUMPDEST PUSH1 0x20 MUL PUSH1 0x20 ADD ADD MLOAD PUSH2 0xC3C JUMP JUMPDEST PUSH2 0xCD2 JUMP JUMPDEST SWAP2 POP PUSH1 0x1 ADD PUSH2 0x639 JUMP JUMPDEST POP PUSH2 0x732 DUP2 DUP4 PUSH1 0x80 ADD MLOAD PUSH1 0x0 DUP2 MLOAD DUP2 LT PUSH2 0x725 JUMPI PUSH2 0x725 PUSH2 0x1E7A JUMP JUMPDEST PUSH1 0x20 MUL PUSH1 0x20 ADD ADD MLOAD PUSH2 0xCD2 JUMP JUMPDEST SWAP1 POP PUSH2 0x768 PUSH2 0x744 DUP7 PUSH1 0x0 ADD MLOAD PUSH2 0xD6B JUMP JUMPDEST DUP7 PUSH1 0x20 ADD MLOAD DUP5 PUSH1 0x0 ADD MLOAD DUP6 PUSH1 0x20 ADD MLOAD DUP6 DUP8 PUSH1 0x40 ADD MLOAD DUP12 PUSH1 0x40 ADD MLOAD DUP10 PUSH1 0x60 ADD MLOAD PUSH2 0xE0A JUMP JUMPDEST PUSH2 0x778 JUMPI PUSH1 0x1 SWAP4 POP POP POP POP PUSH2 0x593 JUMP JUMPDEST POP PUSH1 0x0 SWAP6 SWAP5 POP POP POP POP POP JUMP JUMPDEST PUSH1 0x0 PUSH2 0x160 DUP4 ADD MSTORE PUSH2 0x795 DUP3 PUSH2 0xF95 JUMP JUMPDEST ISZERO ISZERO PUSH1 0x1 EQ DUP1 ISZERO PUSH2 0x7A8 JUMPI POP PUSH1 0x60 DUP3 ADD MLOAD ISZERO JUMPDEST ISZERO PUSH2 0x867 JUMPI PUSH1 0x1 PUSH2 0x160 DUP4 ADD DUP2 SWAP1 MSTORE PUSH1 0xE0 DUP4 ADD MLOAD DUP4 MLOAD PUSH1 0x40 MLOAD TIMESTAMP SWAP4 SWAP3 SWAP2 PUSH2 0x7CE SWAP2 PUSH2 0x20B3 JUMP JUMPDEST PUSH1 0x40 DUP1 MLOAD SWAP2 DUP3 SWAP1 SUB DUP3 KECCAK256 PUSH1 0x20 DUP1 DUP10 ADD MLOAD PUSH1 0x60 DUP11 ADD MLOAD PUSH1 0xA0 DUP12 ADD MLOAD DUP11 MLOAD SWAP4 DUP12 ADD MLOAD PUSH2 0x120 DUP14 ADD MLOAD SWAP7 DUP13 ADD MLOAD SWAP6 SWAP8 PUSH32 0x13BCDC869BA4CC3B484072F6E51565ECEF86851B9BDA3B26DA76B270A9323213 SWAP8 PUSH2 0x85A SWAP8 DUP14 SWAP8 SWAP4 SWAP3 SWAP8 DUP9 MSTORE PUSH1 0x20 DUP9 ADD SWAP7 SWAP1 SWAP7 MSTORE SWAP4 ISZERO ISZERO PUSH1 0x40 DUP8 ADD MSTORE SWAP2 ISZERO ISZERO PUSH1 0x60 DUP7 ADD MSTORE PUSH1 0x80 DUP6 ADD MSTORE PUSH1 0xA0 DUP5 ADD MSTORE PUSH1 0xC0 DUP4 ADD MSTORE PUSH1 0xE0 DUP3 ADD MSTORE PUSH2 0x100 ADD SWAP1 JUMP JUMPDEST PUSH1 0x40 MLOAD DUP1 SWAP2 SUB SWAP1 LOG4 POP POP POP JUMP JUMPDEST PUSH2 0x870 DUP3 PUSH2 0xF95 JUMP JUMPDEST ISZERO DUP1 ISZERO PUSH2 0x87F JUMPI POP PUSH1 0x60 DUP3 ADD MLOAD ISZERO JUMPDEST ISZERO PUSH2 0x2C6 JUMPI PUSH2 0x160 DUP3 ADD MLOAD PUSH1 0xE0 DUP4 ADD MLOAD DUP4 MLOAD PUSH1 0x40 MLOAD TIMESTAMP SWAP4 ISZERO ISZERO SWAP3 SWAP2 PUSH2 0x7CE SWAP2 PUSH2 0x20B3 JUMP JUMPDEST PUSH2 0x8AB PUSH2 0x17C2 JUMP JUMPDEST PUSH1 0x40 DUP1 MLOAD DUP1 DUP3 ADD DUP3 MSTORE PUSH32 0x11A10C7EF1EAB3A95E7A6E67C0C11FD665955979465991BD7A2F9D393D3C7EE2 DUP2 MSTORE PUSH32 0x80090B27598F573231ABABE76B0C00ADFAF770BB8C51FCA55415E9B62F92086 PUSH1 0x20 DUP1 DUP4 ADD SWAP2 SWAP1 SWAP2 MSTORE SWAP1 DUP4 MSTORE DUP2 MLOAD PUSH1 0x80 DUP1 DUP3 ADD DUP5 MSTORE PUSH32 0x190F5221CADE2396C5EE02FFABE2AB8622A1D979326A92F2B0A666E6012F4903 DUP3 DUP6 ADD SWAP1 DUP2 MSTORE PUSH32 0x1E9DBA9B70B592FE193260319AC1AF68A0AD07438EC9104B95DBFF9F2C8ED54 PUSH1 0x60 DUP1 DUP6 ADD SWAP2 SWAP1 SWAP2 MSTORE SWAP1 DUP4 MSTORE DUP5 MLOAD DUP1 DUP7 ADD DUP7 MSTORE PUSH32 0x15EAAAD9F1CE5BD003C6AB4E6E4FD70B5BBF9980B3A10C1D2D1FB2673ED442DD DUP2 MSTORE PUSH32 0x2584D3357F1E566058FFF8952A489EFC2301D4B67EBD07BCE3CA59B0CBD6EB38 DUP2 DUP7 ADD MSTORE DUP4 DUP6 ADD MSTORE DUP6 DUP5 ADD SWAP3 SWAP1 SWAP3 MSTORE DUP4 MLOAD DUP1 DUP3 ADD DUP6 MSTORE PUSH32 0x198E9393920D483A7260BFB731FB5D25F1AA493335A9E71297E485B7AEF312C2 DUP2 DUP7 ADD SWAP1 DUP2 MSTORE PUSH32 0x1800DEEF121F1E76426A00665E5C4479674322D4F75EDADD46DEBD5CD992F6ED DUP3 DUP6 ADD MSTORE DUP2 MSTORE DUP5 MLOAD DUP1 DUP7 ADD DUP7 MSTORE PUSH32 0x90689D0585FF075EC9E99AD690C3395BC4B313370B38EF355ACDADCD122975B DUP2 MSTORE PUSH32 0x12C85EA5DB8C6DEB4AAB71808DCB408FE3D1E7690C43D37B4CE6CC0166FA7DAA DUP2 DUP7 ADD MSTORE DUP2 DUP6 ADD MSTORE DUP6 DUP6 ADD MSTORE DUP4 MLOAD SWAP1 DUP2 ADD DUP5 MSTORE PUSH32 0x2CDEC9FB98DC8C6BE7831A7DE0579BAE9FF0FE0FC34A35EA46851835FA66450B DUP2 DUP6 ADD SWAP1 DUP2 MSTORE PUSH32 0x386D61435B8DF78C9738444E9D0CD2E06C2C6D8623EBB336A698C9F5CBB486B DUP3 DUP5 ADD MSTORE DUP2 MSTORE DUP4 MLOAD DUP1 DUP6 ADD DUP6 MSTORE PUSH32 0x2A59EA9F66CBEAEEB21ADA2063F9EC179A5168EC184A24821C34B404B7F8B919 DUP2 MSTORE PUSH32 0x2C2EF624173F8E605CCD27777268890395963E6078DDD7B0A2A1DF4AFAC4260A DUP2 DUP6 ADD MSTORE DUP2 DUP5 ADD MSTORE DUP2 DUP6 ADD MSTORE DUP3 MLOAD PUSH1 0x2 DUP1 DUP3 MSTORE SWAP2 DUP2 ADD SWAP1 SWAP4 MSTORE SWAP1 DUP3 ADD JUMPDEST PUSH1 0x40 DUP1 MLOAD DUP1 DUP3 ADD SWAP1 SWAP2 MSTORE PUSH1 0x0 DUP1 DUP3 MSTORE PUSH1 0x20 DUP3 ADD MSTORE DUP2 MSTORE PUSH1 0x20 ADD SWAP1 PUSH1 0x1 SWAP1 SUB SWAP1 DUP2 PUSH2 0xB24 JUMPI POP POP PUSH1 0x80 DUP3 ADD SWAP1 DUP2 MSTORE PUSH1 0x40 DUP1 MLOAD DUP1 DUP3 ADD SWAP1 SWAP2 MSTORE PUSH32 0x23D2FD931C4BEB70B9AB62B0E8D257D39A465B29167C698942222B438EFD2DE3 DUP2 MSTORE PUSH32 0xFEB3C9F5F7CBC12B93055D318269D66F57F83D2B1FC0D7BEE0DDD06B0AFFD84 PUSH1 0x20 DUP3 ADD MSTORE SWAP1 MLOAD DUP1 MLOAD PUSH1 0x0 SWAP1 PUSH2 0xBB7 JUMPI PUSH2 0xBB7 PUSH2 0x1E7A JUMP JUMPDEST PUSH1 0x20 MUL PUSH1 0x20 ADD ADD DUP2 SWAP1 MSTORE POP PUSH1 0x40 MLOAD DUP1 PUSH1 0x40 ADD PUSH1 0x40 MSTORE DUP1 PUSH32 0x6C063E14CF007EC2A9864DB2CA81A6B9315BD8623798946A56B4DA655D04542 DUP2 MSTORE PUSH1 0x20 ADD PUSH32 0x28483EB1F953854AFC266F7F4E5047D8A26AD6B3F5D770A9D2F9C6F464C28A3C DUP2 MSTORE POP DUP2 PUSH1 0x80 ADD MLOAD PUSH1 0x1 DUP2 MLOAD DUP2 LT PUSH2 0xC2E JUMPI PUSH2 0xC2E PUSH2 0x1E7A JUMP JUMPDEST PUSH1 0x20 MUL PUSH1 0x20 ADD ADD DUP2 SWAP1 MSTORE POP SWAP1 JUMP JUMPDEST PUSH1 0x40 DUP1 MLOAD DUP1 DUP3 ADD SWAP1 SWAP2 MSTORE PUSH1 0x0 DUP1 DUP3 MSTORE PUSH1 0x20 DUP3 ADD MSTORE PUSH2 0xC58 PUSH2 0x1813 JUMP JUMPDEST DUP4 MLOAD DUP2 MSTORE PUSH1 0x20 DUP1 DUP6 ADD MLOAD SWAP1 DUP3 ADD MSTORE PUSH1 0x40 DUP2 ADD DUP4 SWAP1 MSTORE PUSH1 0x0 PUSH1 0x60 DUP4 PUSH1 0x80 DUP5 PUSH1 0x7 PUSH2 0x7D0 GAS SUB STATICCALL SWAP1 POP DUP1 DUP1 PUSH2 0xC87 JUMPI INVALID JUMPDEST POP DUP1 PUSH2 0xCCA JUMPI PUSH1 0x40 MLOAD PUSH3 0x461BCD PUSH1 0xE5 SHL DUP2 MSTORE PUSH1 0x20 PUSH1 0x4 DUP3 ADD MSTORE PUSH1 0x12 PUSH1 0x24 DUP3 ADD MSTORE PUSH18 0x1C185A5C9A5B99CB5B5D5B0B59985A5B1959 PUSH1 0x72 SHL PUSH1 0x44 DUP3 ADD MSTORE PUSH1 0x64 ADD PUSH2 0x619 JUMP JUMPDEST POP POP SWAP3 SWAP2 POP POP JUMP JUMPDEST PUSH1 0x40 DUP1 MLOAD DUP1 DUP3 ADD SWAP1 SWAP2 MSTORE PUSH1 0x0 DUP1 DUP3 MSTORE PUSH1 0x20 DUP3 ADD MSTORE PUSH2 0xCEE PUSH2 0x1831 JUMP JUMPDEST DUP4 MLOAD DUP2 MSTORE PUSH1 0x20 DUP1 DUP6 ADD MLOAD DUP2 DUP4 ADD MSTORE DUP4 MLOAD PUSH1 0x40 DUP4 ADD MSTORE DUP4 ADD MLOAD PUSH1 0x60 DUP1 DUP4 ADD SWAP2 SWAP1 SWAP2 MSTORE PUSH1 0x0 SWAP1 DUP4 PUSH1 0xC0 DUP5 PUSH1 0x6 PUSH2 0x7D0 GAS SUB STATICCALL SWAP1 POP DUP1 DUP1 PUSH2 0xD28 JUMPI INVALID JUMPDEST POP DUP1 PUSH2 0xCCA JUMPI PUSH1 0x40 MLOAD PUSH3 0x461BCD PUSH1 0xE5 SHL DUP2 MSTORE PUSH1 0x20 PUSH1 0x4 DUP3 ADD MSTORE PUSH1 0x12 PUSH1 0x24 DUP3 ADD MSTORE PUSH18 0x1C185A5C9A5B99CB5859190B59985A5B1959 PUSH1 0x72 SHL PUSH1 0x44 DUP3 ADD MSTORE PUSH1 0x64 ADD PUSH2 0x619 JUMP JUMPDEST PUSH1 0x40 DUP1 MLOAD DUP1 DUP3 ADD SWAP1 SWAP2 MSTORE PUSH1 0x0 DUP1 DUP3 MSTORE PUSH1 0x20 DUP3 ADD MSTORE DUP2 MLOAD PUSH32 0x30644E72E131A029B85045B68181585D97816A916871CA8D3C208C16D87CFD47 SWAP1 ISZERO DUP1 ISZERO PUSH2 0xDB2 JUMPI POP PUSH1 0x20 DUP4 ADD MLOAD ISZERO JUMPDEST ISZERO PUSH2 0xDD2 JUMPI POP POP PUSH1 0x40 DUP1 MLOAD DUP1 DUP3 ADD SWAP1 SWAP2 MSTORE PUSH1 0x0 DUP1 DUP3 MSTORE PUSH1 0x20 DUP3 ADD MSTORE SWAP2 SWAP1 POP JUMP JUMPDEST PUSH1 0x40 MLOAD DUP1 PUSH1 0x40 ADD PUSH1 0x40 MSTORE DUP1 DUP5 PUSH1 0x0 ADD MLOAD DUP2 MSTORE PUSH1 0x20 ADD DUP3 DUP6 PUSH1 0x20 ADD MLOAD PUSH2 0xDF7 SWAP2 SWAP1 PUSH2 0x210B JUMP JUMPDEST PUSH2 0xE01 SWAP1 DUP5 PUSH2 0x212D JUMP JUMPDEST SWAP1 MSTORE SWAP4 SWAP3 POP POP POP JUMP JUMPDEST PUSH1 0x40 DUP1 MLOAD PUSH1 0x4 DUP1 DUP3 MSTORE PUSH1 0xA0 DUP3 ADD SWAP1 SWAP3 MSTORE PUSH1 0x0 SWAP2 DUP3 SWAP2 SWAP1 DUP2 PUSH1 0x20 ADD JUMPDEST PUSH1 0x40 DUP1 MLOAD DUP1 DUP3 ADD SWAP1 SWAP2 MSTORE PUSH1 0x0 DUP1 DUP3 MSTORE PUSH1 0x20 DUP3 ADD MSTORE DUP2 MSTORE PUSH1 0x20 ADD SWAP1 PUSH1 0x1 SWAP1 SUB SWAP1 DUP2 PUSH2 0xE25 JUMPI POP POP PUSH1 0x40 DUP1 MLOAD PUSH1 0x4 DUP1 DUP3 MSTORE PUSH1 0xA0 DUP3 ADD SWAP1 SWAP3 MSTORE SWAP2 SWAP3 POP PUSH1 0x0 SWAP2 SWAP1 PUSH1 0x20 DUP3 ADD JUMPDEST PUSH2 0xE6F PUSH2 0x184F JUMP JUMPDEST DUP2 MSTORE PUSH1 0x20 ADD SWAP1 PUSH1 0x1 SWAP1 SUB SWAP1 DUP2 PUSH2 0xE67 JUMPI SWAP1 POP POP SWAP1 POP DUP11 DUP3 PUSH1 0x0 DUP2 MLOAD DUP2 LT PUSH2 0xE98 JUMPI PUSH2 0xE98 PUSH2 0x1E7A JUMP JUMPDEST PUSH1 0x20 MUL PUSH1 0x20 ADD ADD DUP2 SWAP1 MSTORE POP DUP9 DUP3 PUSH1 0x1 DUP2 MLOAD DUP2 LT PUSH2 0xEB7 JUMPI PUSH2 0xEB7 PUSH2 0x1E7A JUMP JUMPDEST PUSH1 0x20 MUL PUSH1 0x20 ADD ADD DUP2 SWAP1 MSTORE POP DUP7 DUP3 PUSH1 0x2 DUP2 MLOAD DUP2 LT PUSH2 0xED6 JUMPI PUSH2 0xED6 PUSH2 0x1E7A JUMP JUMPDEST PUSH1 0x20 MUL PUSH1 0x20 ADD ADD DUP2 SWAP1 MSTORE POP DUP5 DUP3 PUSH1 0x3 DUP2 MLOAD DUP2 LT PUSH2 0xEF5 JUMPI PUSH2 0xEF5 PUSH2 0x1E7A JUMP JUMPDEST PUSH1 0x20 MUL PUSH1 0x20 ADD ADD DUP2 SWAP1 MSTORE POP DUP10 DUP2 PUSH1 0x0 DUP2 MLOAD DUP2 LT PUSH2 0xF14 JUMPI PUSH2 0xF14 PUSH2 0x1E7A JUMP JUMPDEST PUSH1 0x20 MUL PUSH1 0x20 ADD ADD DUP2 SWAP1 MSTORE POP DUP8 DUP2 PUSH1 0x1 DUP2 MLOAD DUP2 LT PUSH2 0xF33 JUMPI PUSH2 0xF33 PUSH2 0x1E7A JUMP JUMPDEST PUSH1 0x20 MUL PUSH1 0x20 ADD ADD DUP2 SWAP1 MSTORE POP DUP6 DUP2 PUSH1 0x2 DUP2 MLOAD DUP2 LT PUSH2 0xF52 JUMPI PUSH2 0xF52 PUSH2 0x1E7A JUMP JUMPDEST PUSH1 0x20 MUL PUSH1 0x20 ADD ADD DUP2 SWAP1 MSTORE POP DUP4 DUP2 PUSH1 0x3 DUP2 MLOAD DUP2 LT PUSH2 0xF71 JUMPI PUSH2 0xF71 PUSH2 0x1E7A JUMP JUMPDEST PUSH1 0x20 MUL PUSH1 0x20 ADD ADD DUP2 SWAP1 MSTORE POP PUSH2 0xF86 DUP3 DUP3 PUSH2 0x13A9 JUMP JUMPDEST SWAP12 SWAP11 POP POP POP POP POP POP POP POP POP POP POP JUMP JUMPDEST PUSH1 0x0 DUP2 PUSH1 0x60 ADD MLOAD ISZERO ISZERO PUSH1 0x1 ISZERO ISZERO EQ DUP1 ISZERO PUSH2 0xFB5 JUMPI POP PUSH1 0xA0 DUP3 ADD MLOAD ISZERO ISZERO PUSH1 0x1 EQ JUMPDEST ISZERO PUSH2 0x10F7 JUMPI PUSH1 0x8 SLOAD PUSH1 0x80 DUP4 ADD MLOAD PUSH1 0x60 SWAP1 DUP2 ADD MLOAD MLOAD PUSH1 0x9 SLOAD PUSH1 0xC0 DUP7 ADD MLOAD SWAP1 SWAP3 ADD MLOAD MLOAD PUSH1 0x20 DUP7 ADD MLOAD SWAP2 SWAP1 SWAP4 EQ SWAP3 SWAP1 SWAP2 EQ SWAP1 PUSH1 0x0 SWAP1 DUP2 SUB PUSH2 0x1006 JUMPI PUSH1 0x5 PUSH1 0x0 JUMPDEST ADD SLOAD PUSH1 0x40 DUP7 ADD MLOAD PUSH1 0x60 ADD MLOAD MLOAD EQ SWAP1 POP PUSH2 0x1037 JUMP JUMPDEST DUP5 PUSH1 0x20 ADD MLOAD PUSH1 0x1 SUB PUSH2 0x101B JUMPI PUSH1 0x6 PUSH1 0x0 PUSH2 0xFF2 JUMP JUMPDEST DUP5 PUSH1 0x20 ADD MLOAD PUSH1 0x2 SUB PUSH2 0x1037 JUMPI POP PUSH1 0x7 SLOAD PUSH1 0x40 DUP6 ADD MLOAD PUSH1 0x60 ADD MLOAD MLOAD EQ JUMPDEST PUSH1 0x40 DUP1 DUP7 ADD MLOAD DUP1 MLOAD PUSH1 0x20 DUP3 ADD MLOAD SWAP3 DUP3 ADD MLOAD PUSH1 0x60 SWAP1 SWAP3 ADD MLOAD PUSH2 0x105A SWAP4 SWAP2 SWAP3 SWAP1 PUSH2 0x136 JUMP JUMPDEST DUP1 ISZERO PUSH2 0x1082 JUMPI POP PUSH1 0x80 DUP6 ADD MLOAD DUP1 MLOAD PUSH1 0x20 DUP3 ADD MLOAD PUSH1 0x40 DUP4 ADD MLOAD PUSH1 0x60 SWAP1 SWAP4 ADD MLOAD PUSH2 0x1082 SWAP4 SWAP1 PUSH2 0x136 JUMP JUMPDEST DUP1 ISZERO PUSH2 0x10AA JUMPI POP PUSH1 0xC0 DUP6 ADD MLOAD DUP1 MLOAD PUSH1 0x20 DUP3 ADD MLOAD PUSH1 0x40 DUP4 ADD MLOAD PUSH1 0x60 SWAP1 SWAP4 ADD MLOAD PUSH2 0x10AA SWAP4 SWAP1 PUSH2 0x136 JUMP JUMPDEST DUP1 ISZERO PUSH2 0x10D3 JUMPI POP PUSH2 0x100 DUP6 ADD MLOAD DUP1 MLOAD PUSH1 0x20 DUP3 ADD MLOAD PUSH1 0x40 DUP4 ADD MLOAD PUSH1 0x60 SWAP1 SWAP4 ADD MLOAD PUSH2 0x10D3 SWAP4 SWAP1 PUSH2 0x136 JUMP JUMPDEST DUP1 ISZERO PUSH2 0x10DC JUMPI POP DUP3 JUMPDEST DUP1 ISZERO PUSH2 0x10E5 JUMPI POP DUP2 JUMPDEST DUP1 ISZERO PUSH2 0x10EE JUMPI POP DUP1 JUMPDEST SWAP6 SWAP5 POP POP POP POP POP JUMP JUMPDEST PUSH1 0x60 DUP3 ADD MLOAD ISZERO ISZERO PUSH1 0x1 EQ DUP1 ISZERO PUSH2 0x110F JUMPI POP PUSH1 0xA0 DUP3 ADD MLOAD ISZERO JUMPDEST ISZERO PUSH2 0x1207 JUMPI PUSH1 0x8 SLOAD PUSH1 0x80 DUP4 ADD MLOAD PUSH1 0x60 ADD MLOAD MLOAD PUSH1 0x20 DUP5 ADD MLOAD SWAP2 EQ SWAP1 PUSH1 0x0 SWAP1 DUP2 SUB PUSH2 0x114B JUMPI PUSH1 0x5 PUSH1 0x0 JUMPDEST ADD SLOAD PUSH1 0x40 DUP6 ADD MLOAD PUSH1 0x60 ADD MLOAD MLOAD EQ SWAP1 POP PUSH2 0x117C JUMP JUMPDEST DUP4 PUSH1 0x20 ADD MLOAD PUSH1 0x1 SUB PUSH2 0x1160 JUMPI PUSH1 0x6 PUSH1 0x0 PUSH2 0x1137 JUMP JUMPDEST DUP4 PUSH1 0x20 ADD MLOAD PUSH1 0x2 SUB PUSH2 0x117C JUMPI POP PUSH1 0x7 SLOAD PUSH1 0x40 DUP5 ADD MLOAD PUSH1 0x60 ADD MLOAD MLOAD EQ JUMPDEST PUSH1 0x40 DUP1 DUP6 ADD MLOAD DUP1 MLOAD PUSH1 0x20 DUP3 ADD MLOAD SWAP3 DUP3 ADD MLOAD PUSH1 0x60 SWAP1 SWAP3 ADD MLOAD PUSH2 0x119F SWAP4 SWAP2 SWAP3 SWAP1 PUSH2 0x136 JUMP JUMPDEST DUP1 ISZERO PUSH2 0x11C7 JUMPI POP PUSH1 0x80 DUP5 ADD MLOAD DUP1 MLOAD PUSH1 0x20 DUP3 ADD MLOAD PUSH1 0x40 DUP4 ADD MLOAD PUSH1 0x60 SWAP1 SWAP4 ADD MLOAD PUSH2 0x11C7 SWAP4 SWAP1 PUSH2 0x136 JUMP JUMPDEST DUP1 ISZERO PUSH2 0x11F0 JUMPI POP PUSH2 0x100 DUP5 ADD MLOAD DUP1 MLOAD PUSH1 0x20 DUP3 ADD MLOAD PUSH1 0x40 DUP4 ADD MLOAD PUSH1 0x60 SWAP1 SWAP4 ADD MLOAD PUSH2 0x11F0 SWAP4 SWAP1 PUSH2 0x136 JUMP JUMPDEST DUP1 ISZERO PUSH2 0x11F9 JUMPI POP DUP2 JUMPDEST DUP1 ISZERO PUSH2 0x239 JUMPI POP SWAP4 SWAP3 POP POP POP JUMP JUMPDEST PUSH1 0x60 DUP3 ADD MLOAD ISZERO DUP1 ISZERO PUSH2 0x121F JUMPI POP PUSH1 0xA0 DUP3 ADD MLOAD ISZERO ISZERO PUSH1 0x1 EQ JUMPDEST ISZERO PUSH2 0x12D7 JUMPI PUSH1 0x9 SLOAD PUSH1 0xC0 DUP4 ADD MLOAD PUSH1 0x60 ADD MLOAD MLOAD PUSH1 0x20 DUP5 ADD MLOAD SWAP2 EQ SWAP1 PUSH1 0x0 SWAP1 DUP2 SUB PUSH2 0x125B JUMPI PUSH1 0x5 PUSH1 0x0 JUMPDEST ADD SLOAD PUSH1 0x40 DUP6 ADD MLOAD PUSH1 0x60 ADD MLOAD MLOAD EQ SWAP1 POP PUSH2 0x128C JUMP JUMPDEST DUP4 PUSH1 0x20 ADD MLOAD PUSH1 0x1 SUB PUSH2 0x1270 JUMPI PUSH1 0x6 PUSH1 0x0 PUSH2 0x1247 JUMP JUMPDEST DUP4 PUSH1 0x20 ADD MLOAD PUSH1 0x2 SUB PUSH2 0x128C JUMPI POP PUSH1 0x7 SLOAD PUSH1 0x40 DUP5 ADD MLOAD PUSH1 0x60 ADD MLOAD MLOAD EQ JUMPDEST PUSH1 0x40 DUP1 DUP6 ADD MLOAD DUP1 MLOAD PUSH1 0x20 DUP3 ADD MLOAD SWAP3 DUP3 ADD MLOAD PUSH1 0x60 SWAP1 SWAP3 ADD MLOAD PUSH2 0x12AF SWAP4 SWAP2 SWAP3 SWAP1 PUSH2 0x136 JUMP JUMPDEST DUP1 ISZERO PUSH2 0x11C7 JUMPI POP PUSH1 0xC0 DUP5 ADD MLOAD DUP1 MLOAD PUSH1 0x20 DUP3 ADD MLOAD PUSH1 0x40 DUP4 ADD MLOAD PUSH1 0x60 SWAP1 SWAP4 ADD MLOAD PUSH2 0x11C7 SWAP4 SWAP1 PUSH2 0x136 JUMP JUMPDEST PUSH1 0x60 DUP3 ADD MLOAD ISZERO DUP1 ISZERO PUSH2 0x12EB JUMPI POP PUSH1 0xA0 DUP3 ADD MLOAD ISZERO JUMPDEST ISZERO PUSH2 0x13A4 JUMPI PUSH1 0x0 DUP3 PUSH1 0x20 ADD MLOAD PUSH1 0x0 SUB PUSH2 0x1317 JUMPI PUSH1 0x5 PUSH1 0x0 JUMPDEST ADD SLOAD PUSH1 0x40 DUP5 ADD MLOAD PUSH1 0x60 ADD MLOAD MLOAD EQ SWAP1 POP PUSH2 0x1348 JUMP JUMPDEST DUP3 PUSH1 0x20 ADD MLOAD PUSH1 0x1 SUB PUSH2 0x132C JUMPI PUSH1 0x6 PUSH1 0x0 PUSH2 0x1303 JUMP JUMPDEST DUP3 PUSH1 0x20 ADD MLOAD PUSH1 0x2 SUB PUSH2 0x1348 JUMPI POP PUSH1 0x7 SLOAD PUSH1 0x40 DUP4 ADD MLOAD PUSH1 0x60 ADD MLOAD MLOAD EQ JUMPDEST PUSH1 0x40 DUP1 DUP5 ADD MLOAD DUP1 MLOAD PUSH1 0x20 DUP3 ADD MLOAD SWAP3 DUP3 ADD MLOAD PUSH1 0x60 SWAP1 SWAP3 ADD MLOAD PUSH2 0x136B SWAP4 SWAP2 SWAP3 SWAP1 PUSH2 0x136 JUMP JUMPDEST DUP1 ISZERO PUSH2 0x1394 JUMPI POP PUSH2 0x100 DUP4 ADD MLOAD DUP1 MLOAD PUSH1 0x20 DUP3 ADD MLOAD PUSH1 0x40 DUP4 ADD MLOAD PUSH1 0x60 SWAP1 SWAP4 ADD MLOAD PUSH2 0x1394 SWAP4 SWAP1 PUSH2 0x136 JUMP JUMPDEST DUP1 ISZERO PUSH2 0x139D JUMPI POP DUP1 JUMPDEST SWAP4 SWAP3 POP POP POP JUMP JUMPDEST SWAP2 SWAP1 POP JUMP JUMPDEST PUSH1 0x0 DUP2 MLOAD DUP4 MLOAD EQ PUSH2 0x13F5 JUMPI PUSH1 0x40 MLOAD PUSH3 0x461BCD PUSH1 0xE5 SHL DUP2 MSTORE PUSH1 0x20 PUSH1 0x4 DUP3 ADD MSTORE PUSH1 0x16 PUSH1 0x24 DUP3 ADD MSTORE PUSH22 0x1C185A5C9A5B99CB5B195B99DD1A1CCB59985A5B1959 PUSH1 0x52 SHL PUSH1 0x44 DUP3 ADD MSTORE PUSH1 0x64 ADD PUSH2 0x619 JUMP JUMPDEST DUP3 MLOAD PUSH1 0x0 PUSH2 0x1404 DUP3 PUSH1 0x6 PUSH2 0x2140 JUMP JUMPDEST SWAP1 POP PUSH1 0x0 DUP2 PUSH1 0x1 PUSH1 0x1 PUSH1 0x40 SHL SUB DUP2 GT ISZERO PUSH2 0x1420 JUMPI PUSH2 0x1420 PUSH2 0x18C0 JUMP JUMPDEST PUSH1 0x40 MLOAD SWAP1 DUP1 DUP3 MSTORE DUP1 PUSH1 0x20 MUL PUSH1 0x20 ADD DUP3 ADD PUSH1 0x40 MSTORE DUP1 ISZERO PUSH2 0x1449 JUMPI DUP2 PUSH1 0x20 ADD PUSH1 0x20 DUP3 MUL DUP1 CALLDATASIZE DUP4 CALLDATACOPY ADD SWAP1 POP JUMPDEST POP SWAP1 POP PUSH1 0x0 JUMPDEST DUP4 DUP2 LT ISZERO PUSH2 0x167A JUMPI DUP7 DUP2 DUP2 MLOAD DUP2 LT PUSH2 0x1469 JUMPI PUSH2 0x1469 PUSH2 0x1E7A JUMP JUMPDEST PUSH1 0x20 MUL PUSH1 0x20 ADD ADD MLOAD PUSH1 0x0 ADD MLOAD DUP3 DUP3 PUSH1 0x6 PUSH2 0x1483 SWAP2 SWAP1 PUSH2 0x2140 JUMP JUMPDEST PUSH2 0x148E SWAP1 PUSH1 0x0 PUSH2 0x20F8 JUMP JUMPDEST DUP2 MLOAD DUP2 LT PUSH2 0x149E JUMPI PUSH2 0x149E PUSH2 0x1E7A JUMP JUMPDEST PUSH1 0x20 MUL PUSH1 0x20 ADD ADD DUP2 DUP2 MSTORE POP POP DUP7 DUP2 DUP2 MLOAD DUP2 LT PUSH2 0x14BC JUMPI PUSH2 0x14BC PUSH2 0x1E7A JUMP JUMPDEST PUSH1 0x20 MUL PUSH1 0x20 ADD ADD MLOAD PUSH1 0x20 ADD MLOAD DUP3 DUP3 PUSH1 0x6 PUSH2 0x14D6 SWAP2 SWAP1 PUSH2 0x2140 JUMP JUMPDEST PUSH2 0x14E1 SWAP1 PUSH1 0x1 PUSH2 0x20F8 JUMP JUMPDEST DUP2 MLOAD DUP2 LT PUSH2 0x14F1 JUMPI PUSH2 0x14F1 PUSH2 0x1E7A JUMP JUMPDEST PUSH1 0x20 MUL PUSH1 0x20 ADD ADD DUP2 DUP2 MSTORE POP POP DUP6 DUP2 DUP2 MLOAD DUP2 LT PUSH2 0x150F JUMPI PUSH2 0x150F PUSH2 0x1E7A JUMP JUMPDEST PUSH1 0x20 SWAP1 DUP2 MUL SWAP2 SWAP1 SWAP2 ADD ADD MLOAD MLOAD MLOAD DUP3 PUSH2 0x1528 DUP4 PUSH1 0x6 PUSH2 0x2140 JUMP JUMPDEST PUSH2 0x1533 SWAP1 PUSH1 0x2 PUSH2 0x20F8 JUMP JUMPDEST DUP2 MLOAD DUP2 LT PUSH2 0x1543 JUMPI PUSH2 0x1543 PUSH2 0x1E7A JUMP JUMPDEST PUSH1 0x20 MUL PUSH1 0x20 ADD ADD DUP2 DUP2 MSTORE POP POP DUP6 DUP2 DUP2 MLOAD DUP2 LT PUSH2 0x1561 JUMPI PUSH2 0x1561 PUSH2 0x1E7A JUMP JUMPDEST PUSH1 0x20 SWAP1 DUP2 MUL SWAP2 SWAP1 SWAP2 ADD DUP2 ADD MLOAD MLOAD ADD MLOAD DUP3 PUSH2 0x157C DUP4 PUSH1 0x6 PUSH2 0x2140 JUMP JUMPDEST PUSH2 0x1587 SWAP1 PUSH1 0x3 PUSH2 0x20F8 JUMP JUMPDEST DUP2 MLOAD DUP2 LT PUSH2 0x1597 JUMPI PUSH2 0x1597 PUSH2 0x1E7A JUMP JUMPDEST PUSH1 0x20 MUL PUSH1 0x20 ADD ADD DUP2 DUP2 MSTORE POP POP DUP6 DUP2 DUP2 MLOAD DUP2 LT PUSH2 0x15B5 JUMPI PUSH2 0x15B5 PUSH2 0x1E7A JUMP JUMPDEST PUSH1 0x20 MUL PUSH1 0x20 ADD ADD MLOAD PUSH1 0x20 ADD MLOAD PUSH1 0x0 PUSH1 0x2 DUP2 LT PUSH2 0x15D3 JUMPI PUSH2 0x15D3 PUSH2 0x1E7A JUMP JUMPDEST PUSH1 0x20 MUL ADD MLOAD DUP3 PUSH2 0x15E4 DUP4 PUSH1 0x6 PUSH2 0x2140 JUMP JUMPDEST PUSH2 0x15EF SWAP1 PUSH1 0x4 PUSH2 0x20F8 JUMP JUMPDEST DUP2 MLOAD DUP2 LT PUSH2 0x15FF JUMPI PUSH2 0x15FF PUSH2 0x1E7A JUMP JUMPDEST PUSH1 0x20 MUL PUSH1 0x20 ADD ADD DUP2 DUP2 MSTORE POP POP DUP6 DUP2 DUP2 MLOAD DUP2 LT PUSH2 0x161D JUMPI PUSH2 0x161D PUSH2 0x1E7A JUMP JUMPDEST PUSH1 0x20 MUL PUSH1 0x20 ADD ADD MLOAD PUSH1 0x20 ADD MLOAD PUSH1 0x1 PUSH1 0x2 DUP2 LT PUSH2 0x163B JUMPI PUSH2 0x163B PUSH2 0x1E7A JUMP JUMPDEST PUSH1 0x20 MUL ADD MLOAD DUP3 PUSH2 0x164C DUP4 PUSH1 0x6 PUSH2 0x2140 JUMP JUMPDEST PUSH2 0x1657 SWAP1 PUSH1 0x5 PUSH2 0x20F8 JUMP JUMPDEST DUP2 MLOAD DUP2 LT PUSH2 0x1667 JUMPI PUSH2 0x1667 PUSH2 0x1E7A JUMP JUMPDEST PUSH1 0x20 SWAP1 DUP2 MUL SWAP2 SWAP1 SWAP2 ADD ADD MSTORE PUSH1 0x1 ADD PUSH2 0x144F JUMP JUMPDEST POP PUSH2 0x1683 PUSH2 0x186F JUMP JUMPDEST PUSH1 0x0 PUSH1 0x20 DUP3 PUSH1 0x20 DUP7 MUL PUSH1 0x20 DUP7 ADD PUSH1 0x8 PUSH2 0x7D0 GAS SUB STATICCALL SWAP1 POP DUP1 DUP1 PUSH2 0x16A2 JUMPI INVALID JUMPDEST POP DUP1 PUSH2 0x16E8 JUMPI PUSH1 0x40 MLOAD PUSH3 0x461BCD PUSH1 0xE5 SHL DUP2 MSTORE PUSH1 0x20 PUSH1 0x4 DUP3 ADD MSTORE PUSH1 0x15 PUSH1 0x24 DUP3 ADD MSTORE PUSH21 0x1C185A5C9A5B99CB5BDC18DBD9194B59985A5B1959 PUSH1 0x5A SHL PUSH1 0x44 DUP3 ADD MSTORE PUSH1 0x64 ADD PUSH2 0x619 JUMP JUMPDEST POP MLOAD ISZERO ISZERO SWAP7 SWAP6 POP POP POP POP POP POP JUMP JUMPDEST PUSH1 0x40 DUP1 MLOAD PUSH1 0xA0 DUP2 ADD SWAP1 SWAP2 MSTORE PUSH1 0x0 PUSH1 0x60 DUP3 ADD DUP2 DUP2 MSTORE PUSH1 0x80 DUP4 ADD SWAP2 SWAP1 SWAP2 MSTORE DUP2 MSTORE PUSH1 0x20 DUP2 ADD PUSH2 0x1720 PUSH2 0x184F JUMP JUMPDEST DUP2 MSTORE PUSH1 0x20 ADD PUSH2 0x1742 PUSH1 0x40 MLOAD DUP1 PUSH1 0x40 ADD PUSH1 0x40 MSTORE DUP1 PUSH1 0x0 DUP2 MSTORE PUSH1 0x20 ADD PUSH1 0x0 DUP2 MSTORE POP SWAP1 JUMP JUMPDEST SWAP1 MSTORE SWAP1 JUMP JUMPDEST POP DUP1 SLOAD PUSH2 0x1753 SWAP1 PUSH2 0x1E90 JUMP JUMPDEST PUSH1 0x0 DUP3 SSTORE DUP1 PUSH1 0x1F LT PUSH2 0x1763 JUMPI POP POP JUMP JUMPDEST PUSH1 0x1F ADD PUSH1 0x20 SWAP1 DIV SWAP1 PUSH1 0x0 MSTORE PUSH1 0x20 PUSH1 0x0 KECCAK256 SWAP1 DUP2 ADD SWAP1 PUSH2 0x1781 SWAP2 SWAP1 PUSH2 0x188D JUMP JUMPDEST POP JUMP JUMPDEST DUP3 PUSH1 0x1 DUP2 ADD SWAP3 DUP3 ISZERO PUSH2 0x17B2 JUMPI SWAP2 PUSH1 0x20 MUL DUP3 ADD JUMPDEST DUP3 DUP2 GT ISZERO PUSH2 0x17B2 JUMPI DUP3 MLOAD DUP3 SSTORE SWAP2 PUSH1 0x20 ADD SWAP2 SWAP1 PUSH1 0x1 ADD SWAP1 PUSH2 0x1797 JUMP JUMPDEST POP PUSH2 0x17BE SWAP3 SWAP2 POP PUSH2 0x188D JUMP JUMPDEST POP SWAP1 JUMP JUMPDEST PUSH1 0x40 DUP1 MLOAD PUSH1 0xE0 DUP2 ADD SWAP1 SWAP2 MSTORE PUSH1 0x0 PUSH1 0xA0 DUP3 ADD DUP2 DUP2 MSTORE PUSH1 0xC0 DUP4 ADD SWAP2 SWAP1 SWAP2 MSTORE DUP2 MSTORE PUSH1 0x20 DUP2 ADD PUSH2 0x17EC PUSH2 0x184F JUMP JUMPDEST DUP2 MSTORE PUSH1 0x20 ADD PUSH2 0x17F9 PUSH2 0x184F JUMP JUMPDEST DUP2 MSTORE PUSH1 0x20 ADD PUSH2 0x1806 PUSH2 0x184F JUMP JUMPDEST DUP2 MSTORE PUSH1 0x20 ADD PUSH1 0x60 DUP2 MSTORE POP SWAP1 JUMP JUMPDEST PUSH1 0x40 MLOAD DUP1 PUSH1 0x60 ADD PUSH1 0x40 MSTORE DUP1 PUSH1 0x3 SWAP1 PUSH1 0x20 DUP3 MUL DUP1 CALLDATASIZE DUP4 CALLDATACOPY POP SWAP2 SWAP3 SWAP2 POP POP JUMP JUMPDEST PUSH1 0x40 MLOAD DUP1 PUSH1 0x80 ADD PUSH1 0x40 MSTORE DUP1 PUSH1 0x4 SWAP1 PUSH1 0x20 DUP3 MUL DUP1 CALLDATASIZE DUP4 CALLDATACOPY POP SWAP2 SWAP3 SWAP2 POP POP JUMP JUMPDEST PUSH1 0x40 MLOAD DUP1 PUSH1 0x40 ADD PUSH1 0x40 MSTORE DUP1 PUSH2 0x1862 PUSH2 0x18A2 JUMP JUMPDEST DUP2 MSTORE PUSH1 0x20 ADD PUSH2 0x1742 PUSH2 0x18A2 JUMP JUMPDEST PUSH1 0x40 MLOAD DUP1 PUSH1 0x20 ADD PUSH1 0x40 MSTORE DUP1 PUSH1 0x1 SWAP1 PUSH1 0x20 DUP3 MUL DUP1 CALLDATASIZE DUP4 CALLDATACOPY POP SWAP2 SWAP3 SWAP2 POP POP JUMP JUMPDEST JUMPDEST DUP1 DUP3 GT ISZERO PUSH2 0x17BE JUMPI PUSH1 0x0 DUP2 SSTORE PUSH1 0x1 ADD PUSH2 0x188E JUMP JUMPDEST PUSH1 0x40 MLOAD DUP1 PUSH1 0x40 ADD PUSH1 0x40 MSTORE DUP1 PUSH1 0x2 SWAP1 PUSH1 0x20 DUP3 MUL DUP1 CALLDATASIZE DUP4 CALLDATACOPY POP SWAP2 SWAP3 SWAP2 POP POP JUMP JUMPDEST PUSH4 0x4E487B71 PUSH1 0xE0 SHL PUSH1 0x0 MSTORE PUSH1 0x41 PUSH1 0x4 MSTORE PUSH1 0x24 PUSH1 0x0 REVERT JUMPDEST PUSH1 0x40 MLOAD PUSH2 0x180 DUP2 ADD PUSH1 0x1 PUSH1 0x1 PUSH1 0x40 SHL SUB DUP2 GT DUP3 DUP3 LT OR ISZERO PUSH2 0x18F9 JUMPI PUSH2 0x18F9 PUSH2 0x18C0 JUMP JUMPDEST PUSH1 0x40 MSTORE SWAP1 JUMP JUMPDEST PUSH1 0x40 DUP1 MLOAD SWAP1 DUP2 ADD PUSH1 0x1 PUSH1 0x1 PUSH1 0x40 SHL SUB DUP2 GT DUP3 DUP3 LT OR ISZERO PUSH2 0x18F9 JUMPI PUSH2 0x18F9 PUSH2 0x18C0 JUMP JUMPDEST PUSH1 0x0 DUP3 PUSH1 0x1F DUP4 ADD SLT PUSH2 0x1932 JUMPI PUSH1 0x0 DUP1 REVERT JUMPDEST PUSH2 0x193A PUSH2 0x18FF JUMP JUMPDEST DUP1 PUSH1 0x40 DUP5 ADD DUP6 DUP2 GT ISZERO PUSH2 0x194C JUMPI PUSH1 0x0 DUP1 REVERT JUMPDEST DUP5 JUMPDEST DUP2 DUP2 LT ISZERO PUSH2 0x1966 JUMPI DUP1 CALLDATALOAD DUP5 MSTORE PUSH1 0x20 SWAP4 DUP5 ADD SWAP4 ADD PUSH2 0x194E JUMP JUMPDEST POP SWAP1 SWAP6 SWAP5 POP POP POP POP POP JUMP JUMPDEST PUSH1 0x0 DUP3 PUSH1 0x1F DUP4 ADD SLT PUSH2 0x1982 JUMPI PUSH1 0x0 DUP1 REVERT JUMPDEST PUSH2 0x198A PUSH2 0x18FF JUMP JUMPDEST DUP1 PUSH1 0x80 DUP5 ADD DUP6 DUP2 GT ISZERO PUSH2 0x199C JUMPI PUSH1 0x0 DUP1 REVERT JUMPDEST DUP5 JUMPDEST DUP2 DUP2 LT ISZERO PUSH2 0x1966 JUMPI PUSH2 0x19B0 DUP8 DUP3 PUSH2 0x1921 JUMP JUMPDEST DUP5 MSTORE PUSH1 0x20 SWAP1 SWAP4 ADD SWAP3 PUSH1 0x40 ADD PUSH2 0x199E JUMP JUMPDEST PUSH1 0x0 DUP3 PUSH1 0x1F DUP4 ADD SLT PUSH2 0x19D1 JUMPI PUSH1 0x0 DUP1 REVERT JUMPDEST PUSH1 0x40 MLOAD PUSH1 0x20 DUP1 DUP3 ADD DUP3 DUP2 LT PUSH1 0x1 PUSH1 0x1 PUSH1 0x40 SHL SUB DUP3 GT OR ISZERO PUSH2 0x19F4 JUMPI PUSH2 0x19F4 PUSH2 0x18C0 JUMP JUMPDEST PUSH1 0x40 MSTORE DUP2 PUSH1 0x20 DUP6 ADD DUP7 DUP2 GT ISZERO PUSH2 0x1A09 JUMPI PUSH1 0x0 DUP1 REVERT JUMPDEST DUP6 JUMPDEST DUP2 DUP2 LT ISZERO PUSH2 0x1A22 JUMPI DUP1 CALLDATALOAD DUP4 MSTORE SWAP2 DUP4 ADD SWAP2 DUP4 ADD PUSH2 0x1A0B JUMP JUMPDEST POP SWAP3 SWAP7 SWAP6 POP POP POP POP POP POP JUMP JUMPDEST PUSH1 0x0 DUP1 PUSH1 0x0 DUP1 PUSH2 0x120 DUP6 DUP8 SUB SLT ISZERO PUSH2 0x1A45 JUMPI PUSH1 0x0 DUP1 REVERT JUMPDEST PUSH2 0x1A4F DUP7 DUP7 PUSH2 0x1921 JUMP JUMPDEST SWAP4 POP PUSH2 0x1A5E DUP7 PUSH1 0x40 DUP8 ADD PUSH2 0x1971 JUMP JUMPDEST SWAP3 POP PUSH2 0x1A6D DUP7 PUSH1 0xC0 DUP8 ADD PUSH2 0x1921 JUMP JUMPDEST SWAP2 POP PUSH2 0x1A7D DUP7 PUSH2 0x100 DUP8 ADD PUSH2 0x19C0 JUMP JUMPDEST SWAP1 POP SWAP3 SWAP6 SWAP2 SWAP5 POP SWAP3 POP JUMP JUMPDEST DUP1 CALLDATALOAD PUSH1 0x1 PUSH1 0x1 PUSH1 0xA0 SHL SUB DUP2 AND DUP2 EQ PUSH2 0x13A4 JUMPI PUSH1 0x0 DUP1 REVERT JUMPDEST PUSH1 0x0 DUP1 PUSH1 0x40 DUP4 DUP6 SUB SLT ISZERO PUSH2 0x1AB2 JUMPI PUSH1 0x0 DUP1 REVERT JUMPDEST PUSH2 0x1ABB DUP4 PUSH2 0x1A88 JUMP JUMPDEST SWAP5 PUSH1 0x20 SWAP4 SWAP1 SWAP4 ADD CALLDATALOAD SWAP4 POP POP POP JUMP JUMPDEST PUSH1 0x0 DUP3 PUSH1 0x1F DUP4 ADD SLT PUSH2 0x1ADA JUMPI PUSH1 0x0 DUP1 REVERT JUMPDEST DUP2 CALLDATALOAD PUSH1 0x1 PUSH1 0x1 PUSH1 0x40 SHL SUB DUP1 DUP3 GT ISZERO PUSH2 0x1AF4 JUMPI PUSH2 0x1AF4 PUSH2 0x18C0 JUMP JUMPDEST PUSH1 0x40 MLOAD PUSH1 0x1F DUP4 ADD PUSH1 0x1F NOT SWAP1 DUP2 AND PUSH1 0x3F ADD AND DUP2 ADD SWAP1 DUP3 DUP3 GT DUP2 DUP4 LT OR ISZERO PUSH2 0x1B1C JUMPI PUSH2 0x1B1C PUSH2 0x18C0 JUMP JUMPDEST DUP2 PUSH1 0x40 MSTORE DUP4 DUP2 MSTORE DUP7 PUSH1 0x20 DUP6 DUP9 ADD ADD GT ISZERO PUSH2 0x1B35 JUMPI PUSH1 0x0 DUP1 REVERT JUMPDEST DUP4 PUSH1 0x20 DUP8 ADD PUSH1 0x20 DUP4 ADD CALLDATACOPY PUSH1 0x0 PUSH1 0x20 DUP6 DUP4 ADD ADD MSTORE DUP1 SWAP5 POP POP POP POP POP SWAP3 SWAP2 POP POP JUMP JUMPDEST PUSH1 0x0 PUSH2 0x120 DUP3 DUP5 SUB SLT ISZERO PUSH2 0x1B68 JUMPI PUSH1 0x0 DUP1 REVERT JUMPDEST PUSH1 0x40 MLOAD PUSH1 0x80 DUP2 ADD DUP2 DUP2 LT PUSH1 0x1 PUSH1 0x1 PUSH1 0x40 SHL SUB DUP3 GT OR ISZERO PUSH2 0x1B8A JUMPI PUSH2 0x1B8A PUSH2 0x18C0 JUMP JUMPDEST PUSH1 0x40 MSTORE SWAP1 POP DUP1 PUSH2 0x1B9A DUP5 DUP5 PUSH2 0x1921 JUMP JUMPDEST DUP2 MSTORE PUSH2 0x1BA9 DUP5 PUSH1 0x40 DUP6 ADD PUSH2 0x1971 JUMP JUMPDEST PUSH1 0x20 DUP3 ADD MSTORE PUSH2 0x1BBB DUP5 PUSH1 0xC0 DUP6 ADD PUSH2 0x1921 JUMP JUMPDEST PUSH1 0x40 DUP3 ADD MSTORE PUSH2 0x1BCE DUP5 PUSH2 0x100 DUP6 ADD PUSH2 0x19C0 JUMP JUMPDEST PUSH1 0x60 DUP3 ADD MSTORE POP SWAP3 SWAP2 POP POP JUMP JUMPDEST DUP1 CALLDATALOAD DUP1 ISZERO ISZERO DUP2 EQ PUSH2 0x13A4 JUMPI PUSH1 0x0 DUP1 REVERT JUMPDEST PUSH1 0x0 PUSH1 0x60 DUP3 DUP5 SUB SLT ISZERO PUSH2 0x1BFC JUMPI PUSH1 0x0 DUP1 REVERT JUMPDEST PUSH1 0x40 MLOAD PUSH1 0x60 DUP2 ADD DUP2 DUP2 LT PUSH1 0x1 PUSH1 0x1 PUSH1 0x40 SHL SUB DUP3 GT OR ISZERO PUSH2 0x1C1E JUMPI PUSH2 0x1C1E PUSH2 0x18C0 JUMP JUMPDEST DUP1 PUSH1 0x40 MSTORE POP DUP1 SWAP2 POP DUP3 CALLDATALOAD DUP2 MSTORE PUSH1 0x20 DUP4 ADD CALLDATALOAD PUSH1 0x20 DUP3 ADD MSTORE PUSH1 0x40 DUP4 ADD CALLDATALOAD PUSH1 0x40 DUP3 ADD MSTORE POP SWAP3 SWAP2 POP POP JUMP JUMPDEST PUSH1 0x0 DUP1 PUSH1 0x80 DUP4 DUP6 SUB SLT ISZERO PUSH2 0x1C58 JUMPI PUSH1 0x0 DUP1 REVERT JUMPDEST DUP3 CALLDATALOAD PUSH1 0x1 PUSH1 0x1 PUSH1 0x40 SHL SUB DUP1 DUP3 GT ISZERO PUSH2 0x1C6F JUMPI PUSH1 0x0 DUP1 REVERT JUMPDEST SWAP1 DUP5 ADD SWAP1 PUSH2 0x580 DUP3 DUP8 SUB SLT ISZERO PUSH2 0x1C84 JUMPI PUSH1 0x0 DUP1 REVERT JUMPDEST PUSH2 0x1C8C PUSH2 0x18D6 JUMP JUMPDEST DUP3 CALLDATALOAD DUP3 DUP2 GT ISZERO PUSH2 0x1C9B JUMPI PUSH1 0x0 DUP1 REVERT JUMPDEST PUSH2 0x1CA7 DUP9 DUP3 DUP7 ADD PUSH2 0x1AC9 JUMP JUMPDEST DUP3 MSTORE POP PUSH1 0x20 DUP4 ADD CALLDATALOAD PUSH1 0x20 DUP3 ADD MSTORE PUSH2 0x1CC1 DUP8 PUSH1 0x40 DUP6 ADD PUSH2 0x1B55 JUMP JUMPDEST PUSH1 0x40 DUP3 ADD MSTORE PUSH2 0x160 PUSH2 0x1CD4 DUP2 DUP6 ADD PUSH2 0x1BDA JUMP JUMPDEST PUSH1 0x60 DUP4 ADD MSTORE PUSH2 0x1CE7 DUP9 PUSH2 0x180 DUP7 ADD PUSH2 0x1B55 JUMP JUMPDEST PUSH1 0x80 DUP4 ADD MSTORE PUSH2 0x1CF9 PUSH2 0x2A0 DUP6 ADD PUSH2 0x1BDA JUMP JUMPDEST PUSH1 0xA0 DUP4 ADD MSTORE PUSH2 0x1D0C DUP9 PUSH2 0x2C0 DUP7 ADD PUSH2 0x1B55 JUMP JUMPDEST PUSH1 0xC0 DUP4 ADD MSTORE PUSH2 0x3E0 DUP5 ADD CALLDATALOAD PUSH1 0xE0 DUP4 ADD MSTORE PUSH2 0x1D2A DUP9 PUSH2 0x400 DUP7 ADD PUSH2 0x1B55 JUMP JUMPDEST PUSH2 0x100 DUP4 ADD MSTORE PUSH2 0x520 DUP5 ADD CALLDATALOAD PUSH2 0x120 DUP4 ADD MSTORE PUSH2 0x540 DUP5 ADD CALLDATALOAD DUP4 DUP2 GT ISZERO PUSH2 0x1D4F JUMPI PUSH1 0x0 DUP1 REVERT JUMPDEST PUSH2 0x1D5B DUP10 DUP3 DUP8 ADD PUSH2 0x1AC9 JUMP JUMPDEST PUSH2 0x140 DUP5 ADD MSTORE POP PUSH2 0x1D6F PUSH2 0x560 DUP6 ADD PUSH2 0x1BDA JUMP JUMPDEST SWAP1 DUP3 ADD MSTORE SWAP4 POP PUSH2 0x1D86 SWAP2 POP DUP6 SWAP1 POP PUSH1 0x20 DUP6 ADD PUSH2 0x1BEA JUMP JUMPDEST SWAP1 POP SWAP3 POP SWAP3 SWAP1 POP JUMP JUMPDEST PUSH1 0x0 DUP1 PUSH1 0x40 DUP4 DUP6 SUB SLT ISZERO PUSH2 0x1DA2 JUMPI PUSH1 0x0 DUP1 REVERT JUMPDEST DUP3 CALLDATALOAD PUSH1 0x1 PUSH1 0x1 PUSH1 0x40 SHL SUB DUP2 GT ISZERO PUSH2 0x1DB8 JUMPI PUSH1 0x0 DUP1 REVERT JUMPDEST PUSH2 0x1DC4 DUP6 DUP3 DUP7 ADD PUSH2 0x1AC9 JUMP JUMPDEST SWAP3 POP POP PUSH2 0x1D86 PUSH1 0x20 DUP5 ADD PUSH2 0x1A88 JUMP JUMPDEST PUSH1 0x0 DUP1 PUSH1 0x40 DUP4 DUP6 SUB SLT ISZERO PUSH2 0x1DE6 JUMPI PUSH1 0x0 DUP1 REVERT JUMPDEST PUSH2 0x1DF0 DUP5 DUP5 PUSH2 0x19C0 JUMP JUMPDEST SWAP2 POP PUSH1 0x20 DUP4 ADD CALLDATALOAD PUSH1 0x1 PUSH1 0x1 PUSH1 0x40 SHL SUB DUP2 GT ISZERO PUSH2 0x1E0B JUMPI PUSH1 0x0 DUP1 REVERT JUMPDEST PUSH2 0x1E17 DUP6 DUP3 DUP7 ADD PUSH2 0x1AC9 JUMP JUMPDEST SWAP2 POP POP SWAP3 POP SWAP3 SWAP1 POP JUMP JUMPDEST PUSH1 0x0 DUP1 PUSH1 0x40 DUP4 DUP6 SUB SLT ISZERO PUSH2 0x1E34 JUMPI PUSH1 0x0 DUP1 REVERT JUMPDEST DUP3 CALLDATALOAD PUSH1 0x1 PUSH1 0x1 PUSH1 0x40 SHL SUB DUP1 DUP3 GT ISZERO PUSH2 0x1E4B JUMPI PUSH1 0x0 DUP1 REVERT JUMPDEST PUSH2 0x1E57 DUP7 DUP4 DUP8 ADD PUSH2 0x1AC9 JUMP JUMPDEST SWAP4 POP PUSH1 0x20 DUP6 ADD CALLDATALOAD SWAP2 POP DUP1 DUP3 GT ISZERO PUSH2 0x1E6D JUMPI PUSH1 0x0 DUP1 REVERT JUMPDEST POP PUSH2 0x1E17 DUP6 DUP3 DUP7 ADD PUSH2 0x1AC9 JUMP JUMPDEST PUSH4 0x4E487B71 PUSH1 0xE0 SHL PUSH1 0x0 MSTORE PUSH1 0x32 PUSH1 0x4 MSTORE PUSH1 0x24 PUSH1 0x0 REVERT JUMPDEST PUSH1 0x1 DUP2 DUP2 SHR SWAP1 DUP3 AND DUP1 PUSH2 0x1EA4 JUMPI PUSH1 0x7F DUP3 AND SWAP2 POP JUMPDEST PUSH1 0x20 DUP3 LT DUP2 SUB PUSH2 0x1EC4 JUMPI PUSH4 0x4E487B71 PUSH1 0xE0 SHL PUSH1 0x0 MSTORE PUSH1 0x22 PUSH1 0x4 MSTORE PUSH1 0x24 PUSH1 0x0 REVERT JUMPDEST POP SWAP2 SWAP1 POP JUMP JUMPDEST PUSH1 0x1F DUP3 GT ISZERO PUSH2 0x3FE JUMPI PUSH1 0x0 DUP2 PUSH1 0x0 MSTORE PUSH1 0x20 PUSH1 0x0 KECCAK256 PUSH1 0x1F DUP6 ADD PUSH1 0x5 SHR DUP2 ADD PUSH1 0x20 DUP7 LT ISZERO PUSH2 0x1EF3 JUMPI POP DUP1 JUMPDEST PUSH1 0x1F DUP6 ADD PUSH1 0x5 SHR DUP3 ADD SWAP2 POP JUMPDEST DUP2 DUP2 LT ISZERO PUSH2 0x1F12 JUMPI DUP3 DUP2 SSTORE PUSH1 0x1 ADD PUSH2 0x1EFF JUMP JUMPDEST POP POP POP POP POP POP JUMP JUMPDEST DUP2 MLOAD PUSH1 0x1 PUSH1 0x1 PUSH1 0x40 SHL SUB DUP2 GT ISZERO PUSH2 0x1F33 JUMPI PUSH2 0x1F33 PUSH2 0x18C0 JUMP JUMPDEST PUSH2 0x1F47 DUP2 PUSH2 0x1F41 DUP5 SLOAD PUSH2 0x1E90 JUMP JUMPDEST DUP5 PUSH2 0x1ECA JUMP JUMPDEST PUSH1 0x20 DUP1 PUSH1 0x1F DUP4 GT PUSH1 0x1 DUP2 EQ PUSH2 0x1F7C JUMPI PUSH1 0x0 DUP5 ISZERO PUSH2 0x1F64 JUMPI POP DUP6 DUP4 ADD MLOAD JUMPDEST PUSH1 0x0 NOT PUSH1 0x3 DUP7 SWAP1 SHL SHR NOT AND PUSH1 0x1 DUP6 SWAP1 SHL OR DUP6 SSTORE PUSH2 0x1F12 JUMP JUMPDEST PUSH1 0x0 DUP6 DUP2 MSTORE PUSH1 0x20 DUP2 KECCAK256 PUSH1 0x1F NOT DUP7 AND SWAP2 JUMPDEST DUP3 DUP2 LT ISZERO PUSH2 0x1FAB JUMPI DUP9 DUP7 ADD MLOAD DUP3 SSTORE SWAP5 DUP5 ADD SWAP5 PUSH1 0x1 SWAP1 SWAP2 ADD SWAP1 DUP5 ADD PUSH2 0x1F8C JUMP JUMPDEST POP DUP6 DUP3 LT ISZERO PUSH2 0x1FC9 JUMPI DUP8 DUP6 ADD MLOAD PUSH1 0x0 NOT PUSH1 0x3 DUP9 SWAP1 SHL PUSH1 0xF8 AND SHR NOT AND DUP2 SSTORE JUMPDEST POP POP POP POP POP PUSH1 0x1 SWAP1 DUP2 SHL ADD SWAP1 SSTORE POP JUMP JUMPDEST DUP2 DUP2 SUB PUSH2 0x1FE4 JUMPI POP POP JUMP JUMPDEST PUSH2 0x1FEE DUP3 SLOAD PUSH2 0x1E90 JUMP JUMPDEST PUSH1 0x1 PUSH1 0x1 PUSH1 0x40 SHL SUB DUP2 GT ISZERO PUSH2 0x2005 JUMPI PUSH2 0x2005 PUSH2 0x18C0 JUMP JUMPDEST PUSH2 0x2013 DUP2 PUSH2 0x1F41 DUP5 SLOAD PUSH2 0x1E90 JUMP JUMPDEST PUSH1 0x0 PUSH1 0x1F DUP3 GT PUSH1 0x1 DUP2 EQ PUSH2 0x2047 JUMPI PUSH1 0x0 DUP4 ISZERO PUSH2 0x202F JUMPI POP DUP5 DUP3 ADD SLOAD JUMPDEST PUSH1 0x0 NOT PUSH1 0x3 DUP6 SWAP1 SHL SHR NOT AND PUSH1 0x1 DUP5 SWAP1 SHL OR DUP5 SSTORE PUSH2 0x20AC JUMP JUMPDEST PUSH1 0x0 DUP6 DUP2 MSTORE PUSH1 0x20 SWAP1 KECCAK256 PUSH1 0x1F NOT DUP5 AND SWAP1 PUSH1 0x0 DUP7 DUP2 MSTORE PUSH1 0x20 SWAP1 KECCAK256 DUP5 JUMPDEST DUP4 DUP2 LT ISZERO PUSH2 0x2081 JUMPI DUP3 DUP7 ADD SLOAD DUP3 SSTORE PUSH1 0x1 SWAP6 DUP7 ADD SWAP6 SWAP1 SWAP2 ADD SWAP1 PUSH1 0x20 ADD PUSH2 0x2061 JUMP JUMPDEST POP DUP6 DUP4 LT ISZERO PUSH2 0x209F JUMPI DUP2 DUP6 ADD SLOAD PUSH1 0x0 NOT PUSH1 0x3 DUP9 SWAP1 SHL PUSH1 0xF8 AND SHR NOT AND DUP2 SSTORE JUMPDEST POP POP POP PUSH1 0x1 DUP4 PUSH1 0x1 SHL ADD DUP5 SSTORE JUMPDEST POP POP POP POP POP JUMP JUMPDEST PUSH1 0x0 DUP3 MLOAD PUSH1 0x0 JUMPDEST DUP2 DUP2 LT ISZERO PUSH2 0x20D4 JUMPI PUSH1 0x20 DUP2 DUP7 ADD DUP2 ADD MLOAD DUP6 DUP4 ADD MSTORE ADD PUSH2 0x20BA JUMP JUMPDEST POP PUSH1 0x0 SWAP3 ADD SWAP2 DUP3 MSTORE POP SWAP2 SWAP1 POP JUMP JUMPDEST PUSH4 0x4E487B71 PUSH1 0xE0 SHL PUSH1 0x0 MSTORE PUSH1 0x11 PUSH1 0x4 MSTORE PUSH1 0x24 PUSH1 0x0 REVERT JUMPDEST DUP1 DUP3 ADD DUP1 DUP3 GT ISZERO PUSH2 0x593 JUMPI PUSH2 0x593 PUSH2 0x20E2 JUMP JUMPDEST PUSH1 0x0 DUP3 PUSH2 0x2128 JUMPI PUSH4 0x4E487B71 PUSH1 0xE0 SHL PUSH1 0x0 MSTORE PUSH1 0x12 PUSH1 0x4 MSTORE PUSH1 0x24 PUSH1 0x0 REVERT JUMPDEST POP MOD SWAP1 JUMP JUMPDEST DUP2 DUP2 SUB DUP2 DUP2 GT ISZERO PUSH2 0x593 JUMPI PUSH2 0x593 PUSH2 0x20E2 JUMP JUMPDEST DUP1 DUP3 MUL DUP2 ISZERO DUP3 DUP3 DIV DUP5 EQ OR PUSH2 0x593 JUMPI PUSH2 0x593 PUSH2 0x20E2 JUMP INVALID LOG2 PUSH5 0x6970667358 0x22 SLT KECCAK256 0xAC 0xBA 0xCF MUL PUSH12 0x1250DEAA78EEA0D1A9DB7473 GASPRICE 0xEA SLOAD 0xBF 0xBD 0xEF 0x2F SWAP2 XOR SLOAD 0xE7 SSTORE 0xE9 0x2C EQ PUSH5 0x736F6C6343 STOP ADDMOD AND STOP CALLER ","sha1":"f004d198cd7a63bfd0c93afa1c7c755582a5ae8a","source":"//SPDX-License-Identifier: UNLICENSED\n\npragma solidity ^0.8.9;\n\nimport \"./Approvable.sol\";\nimport \"./verifier.sol\"; // update verifier after\n\ncontract FlightAuth is Approvable, Verifier {\n    // Defines Aircraft data\n    struct FlightRequest {\n        string _SN;\n        // Operational Mode variables\n        uint _op_mode;\n        ZKProof proof_op_mode;\n        // Flight Type variables\n        bool _flight_type;\n        ZKProof proof_flight_type;\n        // Flight Category variables\n        bool _flight_cat;\n        ZKProof proof_flight_cat;\n        // Operator Number variables\n        uint256 _operator_num;\n        ZKProof proof_operator_num;\n        uint256 endurance;\n        string trajectory_4D; //hash from ipfs\n        bool approved;\n    }\n\n    struct ZKProof {\n        uint256[2] _part1;\n        uint256[2][2] _part2;\n        uint256[2] _part3;\n        uint256[1] _part4;\n    }\n\n    struct FlightInfo {\n        uint id_tech;\n        uint ex_connec_meth;\n        uint emergency_proc;\n    }\n\n\n    // Defines the new user event\n    // This event is \"displayed\" each time a new flight request is done\n    event NewFlightRequest(\n        uint createdAt,\n        string indexed serial_number,\n        uint op_mode,\n        bool flight_type,\n        bool flight_cat,\n        uint id_tech,\n        uint ex_connect_meth,\n        uint256 endurance,\n        uint emergency_proc,\n        uint256 indexed operator_num,\n        bool indexed approved\n    );\n\n    uint256[1] root_operator;\n    uint256[1] root_open;\n    uint256[1] root_specific;\n    uint256[1] root_cerified;\n    uint256[1] private root_specialops;\n    uint256[1] root_BVLOS;\n\n    constructor() Approvable(msg.sender, \"Owner\") {}\n\n    function _createFlightRequest(\n        FlightRequest memory current_request,\n        FlightInfo memory current_info\n    ) internal {\n        current_request.approved = false;\n\n        if (isValid(current_request) == true && current_request._flight_type == false) {\n            current_request.approved = true;\n            uint _createdAt = block.timestamp;\n            emit NewFlightRequest(\n            _createdAt,\n            current_request._SN,\n            current_request._op_mode,\n            current_request._flight_type,\n            current_request._flight_cat,\n            current_info.id_tech,\n            current_info.ex_connec_meth,\n            current_request.endurance,\n            current_info.emergency_proc,\n            current_request._operator_num,\n            current_request.approved\n        );  \n        }\n        else if (isValid(current_request) == false && current_request._flight_type == false){\n            uint _createdAt = block.timestamp;\n            emit NewFlightRequest(\n            _createdAt,\n            current_request._SN,\n            current_request._op_mode,\n            current_request._flight_type,\n            current_request._flight_cat,\n            current_info.id_tech,\n            current_info.ex_connec_meth,\n            current_request.endurance,\n            current_info.emergency_proc,\n            current_request._operator_num,\n            current_request.approved);\n        }\n    }\n\n    function setupFlightRequest(\n        FlightRequest memory current_request,\n        FlightInfo memory current_info\n    ) public {\n        _createFlightRequest(current_request, current_info);\n    }\n\n    function isValid(\n        FlightRequest memory request\n    ) internal view returns (bool valid) {\n        if (request._flight_type == true && request._flight_cat == true){\n            bool flighttypevalid = (request.proof_flight_type._part4[0] == root_specialops[0]);\n            bool flight_cat = (request.proof_flight_cat._part4[0] == root_BVLOS[0]);\n            bool oprootvalid;\n            \n            if (request._op_mode == 0){\n                oprootvalid = (request.proof_op_mode._part4[0] == root_open[0]);\n            }\n            else if (request._op_mode == 1){\n                oprootvalid = (request.proof_op_mode._part4[0] == root_specific[0]);\n            }\n            else if (request._op_mode == 2){\n                oprootvalid = (request.proof_op_mode._part4[0] == root_cerified[0]);\n            }\n\n            return (verifyProof(\n            request.proof_op_mode._part1,\n            request.proof_op_mode._part2,\n            request.proof_op_mode._part3,\n            request.proof_op_mode._part4\n        )\n         &&\n            verifyProof(\n                request.proof_flight_type._part1,\n                request.proof_flight_type._part2,\n                request.proof_flight_type._part3,\n                request.proof_flight_type._part4\n            ) &&\n            verifyProof(\n                request.proof_flight_cat._part1,\n                request.proof_flight_cat._part2,\n                request.proof_flight_cat._part3,\n                request.proof_flight_cat._part4\n            ) &&\n            verifyProof(\n                request.proof_operator_num._part1,\n                request.proof_operator_num._part2,\n                request.proof_operator_num._part3,\n                request.proof_operator_num._part4\n            )&& flighttypevalid && flight_cat && oprootvalid);\n\n        }\n        if (request._flight_type == true && request._flight_cat == false){\n\n            bool flighttypevalid = (request.proof_flight_type._part4[0] == root_specialops[0]);\n            bool oprootvalid;\n            \n            if (request._op_mode == 0){\n                oprootvalid = (request.proof_op_mode._part4[0] == root_open[0]);\n            }\n            else if (request._op_mode == 1){\n                oprootvalid = (request.proof_op_mode._part4[0] == root_specific[0]);\n            }\n            else if (request._op_mode == 2){\n                oprootvalid = (request.proof_op_mode._part4[0] == root_cerified[0]);\n            }\n\n            return (verifyProof(\n            request.proof_op_mode._part1,\n            request.proof_op_mode._part2,\n            request.proof_op_mode._part3,\n            request.proof_op_mode._part4\n        )\n         &&\n            verifyProof(\n                request.proof_flight_type._part1,\n                request.proof_flight_type._part2,\n                request.proof_flight_type._part3,\n                request.proof_flight_type._part4\n            ) &&\n            verifyProof(\n                request.proof_operator_num._part1,\n                request.proof_operator_num._part2,\n                request.proof_operator_num._part3,\n                request.proof_operator_num._part4\n            )&& flighttypevalid && oprootvalid);\n            \n        }\n\n        if (request._flight_type == false && request._flight_cat == true){\n\n            bool flight_cat = (request.proof_flight_cat._part4[0] == root_BVLOS[0]);\n            bool oprootvalid;\n            \n            if (request._op_mode == 0){\n                oprootvalid = (request.proof_op_mode._part4[0] == root_open[0]);\n            }\n            else if (request._op_mode == 1){\n                oprootvalid = (request.proof_op_mode._part4[0] == root_specific[0]);\n            }\n            else if (request._op_mode == 2){\n                oprootvalid = (request.proof_op_mode._part4[0] == root_cerified[0]);\n            }\n\n            return (verifyProof(\n            request.proof_op_mode._part1,\n            request.proof_op_mode._part2,\n            request.proof_op_mode._part3,\n            request.proof_op_mode._part4\n        )\n         &&\n           verifyProof(\n                request.proof_flight_cat._part1,\n                request.proof_flight_cat._part2,\n                request.proof_flight_cat._part3,\n                request.proof_flight_cat._part4\n            ) &&\n            verifyProof(\n                request.proof_operator_num._part1,\n                request.proof_operator_num._part2,\n                request.proof_operator_num._part3,\n                request.proof_operator_num._part4\n            )&& flight_cat && oprootvalid);\n            \n        }\n\n        if (request._flight_type == false && request._flight_cat == false){\n\n            bool oprootvalid;\n            \n            if (request._op_mode == 0){\n                oprootvalid = (request.proof_op_mode._part4[0] == root_open[0]);\n            }\n            else if (request._op_mode == 1){\n                oprootvalid = (request.proof_op_mode._part4[0] == root_specific[0]);\n            }\n            else if (request._op_mode == 2){\n                oprootvalid = (request.proof_op_mode._part4[0] == root_cerified[0]);\n            }\n\n            return (verifyProof(\n            request.proof_op_mode._part1,\n            request.proof_op_mode._part2,\n            request.proof_op_mode._part3,\n            request.proof_op_mode._part4\n        )\n         &&\n            verifyProof(\n                request.proof_operator_num._part1,\n                request.proof_operator_num._part2,\n                request.proof_operator_num._part3,\n                request.proof_operator_num._part4\n            )&& oprootvalid);\n            \n        }\n        \n    }\n\n    function compareStrings(string memory a, string memory b) public pure returns (bool) {\n    return (keccak256(abi.encodePacked((a))) == keccak256(abi.encodePacked((b))));\n}\n\n    function updateRoot(uint256[1] memory root,\n                        string memory name_of_tree\n                    ) public creatorOnly {\n                        if (compareStrings(name_of_tree, \"Operator\")==true){\n                            root_operator = root;\n                        }else if (compareStrings(name_of_tree, \"Open\")==true){\n                            root_open = root;\n                        }else if (compareStrings(name_of_tree, \"Specific\")==true){\n                            root_specific = root;\n                        }else if (compareStrings(name_of_tree, \"Certified\")==true){\n                            root_cerified = root;\n                        }else if (compareStrings(name_of_tree, \"SpecialOps\")==true){\n                            root_specialops = root;\n                        }else if (compareStrings(name_of_tree, \"BVLOS\")== true){\n                            root_BVLOS = root;\n                        }else {\n                            return;\n                        }\n\n    }\n}\n\n\n","sourcePath":"contracts/FlightAuth.sol","deployment":{"address":"0x1f4EFDE4C6a0195768A02213CC27f2ADffB0f628","chainid":"11155111","blockHeight":5140365}}