{"bytecode":"60806040523480156200001157600080fd5b5060408051808201909152600581526427bbb732b960d91b6020820152600080546001600160a01b03191633908117909155906200005081836200007e565b5050600080546001600160a01b03168152600160208190526040909120805460ff19169091179055620003bc565b6000546001600160a01b031633146200009657600080fd5b6001600160a01b038116600090815260036020526040902080620000bb848262000207565b50600180820180546001600160a01b0385166001600160a01b031990911681179091556000908152602082905260408120805460ff191683179055600280549283018155908190528291027f405787fa12a823e0f2b7631cc41b3ba8828b3321ca811111fa75cd3aa3bb5ace0180620001358382620002d3565b50600191820154910180546001600160a01b0319166001600160a01b03909216919091179055505050565b634e487b7160e01b600052604160045260246000fd5b600181811c908216806200018b57607f821691505b602082108103620001ac57634e487b7160e01b600052602260045260246000fd5b50919050565b601f82111562000202576000816000526020600020601f850160051c81016020861015620001dd5750805b601f850160051c820191505b81811015620001fe57828155600101620001e9565b5050505b505050565b81516001600160401b0381111562000223576200022362000160565b6200023b8162000234845462000176565b84620001b2565b602080601f8311600181146200027357600084156200025a5750858301515b600019600386901b1c1916600185901b178555620001fe565b600085815260208120601f198616915b82811015620002a45788860151825594840194600190910190840162000283565b5085821015620002c35787850151600019600388901b60f8161c191681555b5050505050600190811b01905550565b818103620002df575050565b620002eb825462000176565b6001600160401b0381111562000305576200030562000160565b620003168162000234845462000176565b6000601f8211600181146200034d5760008315620003345750848201545b600019600385901b1c1916600184901b178455620003b5565b600085815260209020601f19841690600086815260209020845b8381101562000389578286015482556001958601959091019060200162000367565b5085831015620003a85781850154600019600388901b60f8161c191681555b50505060018360011b0184555b5050505050565b610a0e80620003cc6000396000f3fe608060405234801561001057600080fd5b506004361061007d5760003560e01c80636630e00e1161005b5780636630e00e146100d957806369ba48fb146100ec57806369d46e72146100ff5780637912363e1461011257600080fd5b806302d05d3f146100825780631d3edcab146100b15780635d319c1e146100c6575b600080fd5b600054610095906001600160a01b031681565b6040516001600160a01b03909116815260200160405180910390f35b6100c46100bf36600461053d565b610125565b005b6100c46100d43660046105a1565b61019f565b6100c46100e7366004610629565b610215565b6100c46100fa36600461068a565b610283565b6100c461010d3660046105a1565b6102fe565b6100c46101203660046106b4565b610367565b3360009081526001602081905260409091205460ff1615151461014757600080fd5b806040516101559190610726565b60405180910390208260405161016b9190610726565b604051908190038120907f6aeb6339796beee9f9ea2f0638fc2b5748a0136cde391ba37ed5f0a3fe5df64090600090a35050565b3360009081526001602081905260409091205460ff161515146101c157600080fd5b826040516101cf9190610726565b60405180910390207fab08c071f9f0e8f9ae73073a1b9934133d1b20e68185f2be4bffa43bd4bd325e838360405161020892919061076e565b60405180910390a2505050565b3360009081526001602081905260409091205460ff1615151461023757600080fd5b816040516102459190610726565b604051908190038120828252907f269cd3c67bac03cc109bec9df5cfd556e0fc7fa7b51a14d13cbb409efaccdbbc9060200160405180910390a25050565b6000546001600160a01b0316331461029a57600080fd5b6001600160a01b0382166000908152600160205260409020805460ff1916905560028054829081106102ce576102ce61079c565b600091825260208220600290910201906102e88282610444565b5060010180546001600160a01b03191690555050565b3360009081526001602081905260409091205460ff1615151461032057600080fd5b8260405161032e9190610726565b60405180910390207f6515e12cccd37948dd708fa51a790d953ac7f5d885d22b88486fd75b4bea6b95838360405161020892919061076e565b6000546001600160a01b0316331461037e57600080fd5b6001600160a01b0381166000908152600360205260409020806103a1848261083d565b50600180820180546001600160a01b0385166001600160a01b031990911681179091556000908152602082905260408120805460ff191683179055600280549283018155908190528291027f405787fa12a823e0f2b7631cc41b3ba8828b3321ca811111fa75cd3aa3bb5ace018061041983826108fd565b50600191820154910180546001600160a01b0319166001600160a01b03909216919091179055505050565b508054610450906107b2565b6000825580601f10610460575050565b601f01602090049060005260206000209081019061047e9190610481565b50565b5b808211156104965760008155600101610482565b5090565b634e487b7160e01b600052604160045260246000fd5b600082601f8301126104c157600080fd5b813567ffffffffffffffff808211156104dc576104dc61049a565b604051601f8301601f19908116603f011681019082821181831017156105045761050461049a565b8160405283815286602085880101111561051d57600080fd5b836020870160208301376000602085830101528094505050505092915050565b6000806040838503121561055057600080fd5b823567ffffffffffffffff8082111561056857600080fd5b610574868387016104b0565b9350602085013591508082111561058a57600080fd5b50610597858286016104b0565b9150509250929050565b6000806000606084860312156105b657600080fd5b833567ffffffffffffffff808211156105ce57600080fd5b6105da878388016104b0565b945060208601359150808211156105f057600080fd5b6105fc878388016104b0565b9350604086013591508082111561061257600080fd5b5061061f868287016104b0565b9150509250925092565b6000806040838503121561063c57600080fd5b823567ffffffffffffffff81111561065357600080fd5b61065f858286016104b0565b95602094909401359450505050565b80356001600160a01b038116811461068557600080fd5b919050565b6000806040838503121561069d57600080fd5b6106a68361066e565b946020939093013593505050565b600080604083850312156106c757600080fd5b823567ffffffffffffffff8111156106de57600080fd5b6106ea858286016104b0565b9250506106f96020840161066e565b90509250929050565b60005b8381101561071d578181015183820152602001610705565b50506000910152565b60008251610738818460208701610702565b9190910192915050565b6000815180845261075a816020860160208601610702565b601f01601f19169290920160200192915050565b6040815260006107816040830185610742565b82810360208401526107938185610742565b95945050505050565b634e487b7160e01b600052603260045260246000fd5b600181811c908216806107c657607f821691505b6020821081036107e657634e487b7160e01b600052602260045260246000fd5b50919050565b601f821115610838576000816000526020600020601f850160051c810160208610156108155750805b601f850160051c820191505b8181101561083457828155600101610821565b5050505b505050565b815167ffffffffffffffff8111156108575761085761049a565b61086b8161086584546107b2565b846107ec565b602080601f8311600181146108a057600084156108885750858301515b600019600386901b1c1916600185901b178555610834565b600085815260208120601f198616915b828110156108cf578886015182559484019460019091019084016108b0565b50858210156108ed5787850151600019600388901b60f8161c191681555b5050505050600190811b01905550565b818103610908575050565b61091282546107b2565b67ffffffffffffffff81111561092a5761092a61049a565b6109388161086584546107b2565b6000601f82116001811461096c57600083156109545750848201545b600019600385901b1c1916600184901b1784556109d1565b600085815260209020601f19841690600086815260209020845b838110156109a65782860154825560019586019590910190602001610986565b50858310156109c45781850154600019600388901b60f8161c191681555b50505060018360011b0184555b505050505056fea2646970667358221220150f7b16ab6bf4ef2aa56d933cb5e26da6cc677da0b73d7d6d93aff450d681aa64736f6c63430008160033","bytecodeSha1":"fd9a9d9fc13900b30f733966d11c1dc944629544","type":"contract","abi":[{"inputs":[],"stateMutability":"nonpayable","type":"constructor","name":"constructor"},{"anonymous":false,"inputs":[{"indexed":true,"internalType":"string","name":"_name_of_tree","type":"string"},{"indexed":false,"internalType":"string","name":"leaf","type":"string"},{"indexed":false,"internalType":"string","name":"root","type":"string"}],"name":"DeleteLeaf","type":"event"},{"anonymous":false,"inputs":[{"indexed":true,"internalType":"string","name":"_name_of_tree","type":"string"},{"indexed":false,"internalType":"string","name":"leaf","type":"string"},{"indexed":false,"internalType":"string","name":"root","type":"string"}],"name":"NewLeaf","type":"event"},{"anonymous":false,"inputs":[{"indexed":true,"internalType":"string","name":"_name_of_tree","type":"string"},{"indexed":false,"internalType":"uint256","name":"depth","type":"uint256"}],"name":"NewTree","type":"event"},{"anonymous":false,"inputs":[{"indexed":true,"internalType":"string","name":"_name_of_tree","type":"string"},{"indexed":true,"internalType":"string","name":"root","type":"string"}],"name":"UpdateTree","type":"event"},{"inputs":[{"internalType":"string","name":"name_of_tree","type":"string"},{"internalType":"string","name":"leaf","type":"string"},{"internalType":"string","name":"root","type":"string"}],"name":"addLeaf","outputs":[],"stateMutability":"nonpayable","type":"function"},{"inputs":[{"internalType":"string","name":"_name","type":"string"},{"internalType":"address","name":"_address","type":"address"}],"name":"createApprover","outputs":[],"stateMutability":"nonpayable","type":"function"},{"inputs":[{"internalType":"string","name":"_name_of_tree","type":"string"},{"internalType":"uint256","name":"depth","type":"uint256"}],"name":"createTree","outputs":[],"stateMutability":"nonpayable","type":"function"},{"inputs":[],"name":"creator","outputs":[{"internalType":"address","name":"","type":"address"}],"stateMutability":"view","type":"function"},{"inputs":[{"internalType":"address","name":"_address","type":"address"},{"internalType":"uint256","name":"number","type":"uint256"}],"name":"deleteApprover","outputs":[],"stateMutability":"nonpayable","type":"function"},{"inputs":[{"internalType":"string","name":"name_of_tree","type":"string"},{"internalType":"string","name":"leaf","type":"string"},{"internalType":"string","name":"root","type":"string"}],"name":"deleteLeaf","outputs":[],"stateMutability":"nonpayable","type":"function"},{"inputs":[{"internalType":"string","name":"name_of_tree","type":"string"},{"internalType":"string","name":"root","type":"string"}],"name":"updateTree","outputs":[],"stateMutability":"nonpayable","type":"function"}],"compiler":{"version":"0.8.22+commit.4fc1097e","evm_version":"istanbul","optimizer":{"enabled":true,"runs":200}},"contractName":"MerkleTree","language":"Solidity","natspec":{"methods":{},"kind":"dev","version":1},"opcodes":"PUSH1 0x80 PUSH1 0x40 MSTORE CALLVALUE DUP1 ISZERO PUSH2 0x10 JUMPI PUSH1 0x0 DUP1 REVERT JUMPDEST POP PUSH1 0x4 CALLDATASIZE LT PUSH2 0x7D JUMPI PUSH1 0x0 CALLDATALOAD PUSH1 0xE0 SHR DUP1 PUSH4 0x6630E00E GT PUSH2 0x5B JUMPI DUP1 PUSH4 0x6630E00E EQ PUSH2 0xD9 JUMPI DUP1 PUSH4 0x69BA48FB EQ PUSH2 0xEC JUMPI DUP1 PUSH4 0x69D46E72 EQ PUSH2 0xFF JUMPI DUP1 PUSH4 0x7912363E EQ PUSH2 0x112 JUMPI PUSH1 0x0 DUP1 REVERT JUMPDEST DUP1 PUSH4 0x2D05D3F EQ PUSH2 0x82 JUMPI DUP1 PUSH4 0x1D3EDCAB EQ PUSH2 0xB1 JUMPI DUP1 PUSH4 0x5D319C1E EQ PUSH2 0xC6 JUMPI JUMPDEST PUSH1 0x0 DUP1 REVERT JUMPDEST PUSH1 0x0 SLOAD PUSH2 0x95 SWAP1 PUSH1 0x1 PUSH1 0x1 PUSH1 0xA0 SHL SUB AND DUP2 JUMP JUMPDEST PUSH1 0x40 MLOAD PUSH1 0x1 PUSH1 0x1 PUSH1 0xA0 SHL SUB SWAP1 SWAP2 AND DUP2 MSTORE PUSH1 0x20 ADD PUSH1 0x40 MLOAD DUP1 SWAP2 SUB SWAP1 RETURN JUMPDEST PUSH2 0xC4 PUSH2 0xBF CALLDATASIZE PUSH1 0x4 PUSH2 0x53D JUMP JUMPDEST PUSH2 0x125 JUMP JUMPDEST STOP JUMPDEST PUSH2 0xC4 PUSH2 0xD4 CALLDATASIZE PUSH1 0x4 PUSH2 0x5A1 JUMP JUMPDEST PUSH2 0x19F JUMP JUMPDEST PUSH2 0xC4 PUSH2 0xE7 CALLDATASIZE PUSH1 0x4 PUSH2 0x629 JUMP JUMPDEST PUSH2 0x215 JUMP JUMPDEST PUSH2 0xC4 PUSH2 0xFA CALLDATASIZE PUSH1 0x4 PUSH2 0x68A JUMP JUMPDEST PUSH2 0x283 JUMP JUMPDEST PUSH2 0xC4 PUSH2 0x10D CALLDATASIZE PUSH1 0x4 PUSH2 0x5A1 JUMP JUMPDEST PUSH2 0x2FE JUMP JUMPDEST PUSH2 0xC4 PUSH2 0x120 CALLDATASIZE PUSH1 0x4 PUSH2 0x6B4 JUMP JUMPDEST PUSH2 0x367 JUMP JUMPDEST CALLER PUSH1 0x0 SWAP1 DUP2 MSTORE PUSH1 0x1 PUSH1 0x20 DUP2 SWAP1 MSTORE PUSH1 0x40 SWAP1 SWAP2 KECCAK256 SLOAD PUSH1 0xFF AND ISZERO ISZERO EQ PUSH2 0x147 JUMPI PUSH1 0x0 DUP1 REVERT JUMPDEST DUP1 PUSH1 0x40 MLOAD PUSH2 0x155 SWAP2 SWAP1 PUSH2 0x726 JUMP JUMPDEST PUSH1 0x40 MLOAD DUP1 SWAP2 SUB SWAP1 KECCAK256 DUP3 PUSH1 0x40 MLOAD PUSH2 0x16B SWAP2 SWAP1 PUSH2 0x726 JUMP JUMPDEST PUSH1 0x40 MLOAD SWAP1 DUP2 SWAP1 SUB DUP2 KECCAK256 SWAP1 PUSH32 0x6AEB6339796BEEE9F9EA2F0638FC2B5748A0136CDE391BA37ED5F0A3FE5DF640 SWAP1 PUSH1 0x0 SWAP1 LOG3 POP POP JUMP JUMPDEST CALLER PUSH1 0x0 SWAP1 DUP2 MSTORE PUSH1 0x1 PUSH1 0x20 DUP2 SWAP1 MSTORE PUSH1 0x40 SWAP1 SWAP2 KECCAK256 SLOAD PUSH1 0xFF AND ISZERO ISZERO EQ PUSH2 0x1C1 JUMPI PUSH1 0x0 DUP1 REVERT JUMPDEST DUP3 PUSH1 0x40 MLOAD PUSH2 0x1CF SWAP2 SWAP1 PUSH2 0x726 JUMP JUMPDEST PUSH1 0x40 MLOAD DUP1 SWAP2 SUB SWAP1 KECCAK256 PUSH32 0xAB08C071F9F0E8F9AE73073A1B9934133D1B20E68185F2BE4BFFA43BD4BD325E DUP4 DUP4 PUSH1 0x40 MLOAD PUSH2 0x208 SWAP3 SWAP2 SWAP1 PUSH2 0x76E JUMP JUMPDEST PUSH1 0x40 MLOAD DUP1 SWAP2 SUB SWAP1 LOG2 POP POP POP JUMP JUMPDEST CALLER PUSH1 0x0 SWAP1 DUP2 MSTORE PUSH1 0x1 PUSH1 0x20 DUP2 SWAP1 MSTORE PUSH1 0x40 SWAP1 SWAP2 KECCAK256 SLOAD PUSH1 0xFF AND ISZERO ISZERO EQ PUSH2 0x237 JUMPI PUSH1 0x0 DUP1 REVERT JUMPDEST DUP2 PUSH1 0x40 MLOAD PUSH2 0x245 SWAP2 SWAP1 PUSH2 0x726 JUMP JUMPDEST PUSH1 0x40 MLOAD SWAP1 DUP2 SWAP1 SUB DUP2 KECCAK256 DUP3 DUP3 MSTORE SWAP1 PUSH32 0x269CD3C67BAC03CC109BEC9DF5CFD556E0FC7FA7B51A14D13CBB409EFACCDBBC SWAP1 PUSH1 0x20 ADD PUSH1 0x40 MLOAD DUP1 SWAP2 SUB SWAP1 LOG2 POP POP JUMP JUMPDEST PUSH1 0x0 SLOAD PUSH1 0x1 PUSH1 0x1 PUSH1 0xA0 SHL SUB AND CALLER EQ PUSH2 0x29A JUMPI PUSH1 0x0 DUP1 REVERT JUMPDEST PUSH1 0x1 PUSH1 0x1 PUSH1 0xA0 SHL SUB DUP3 AND PUSH1 0x0 SWAP1 DUP2 MSTORE PUSH1 0x1 PUSH1 0x20 MSTORE PUSH1 0x40 SWAP1 KECCAK256 DUP1 SLOAD PUSH1 0xFF NOT AND SWAP1 SSTORE PUSH1 0x2 DUP1 SLOAD DUP3 SWAP1 DUP2 LT PUSH2 0x2CE JUMPI PUSH2 0x2CE PUSH2 0x79C JUMP JUMPDEST PUSH1 0x0 SWAP2 DUP3 MSTORE PUSH1 0x20 DUP3 KECCAK256 PUSH1 0x2 SWAP1 SWAP2 MUL ADD SWAP1 PUSH2 0x2E8 DUP3 DUP3 PUSH2 0x444 JUMP JUMPDEST POP PUSH1 0x1 ADD DUP1 SLOAD PUSH1 0x1 PUSH1 0x1 PUSH1 0xA0 SHL SUB NOT AND SWAP1 SSTORE POP POP JUMP JUMPDEST CALLER PUSH1 0x0 SWAP1 DUP2 MSTORE PUSH1 0x1 PUSH1 0x20 DUP2 SWAP1 MSTORE PUSH1 0x40 SWAP1 SWAP2 KECCAK256 SLOAD PUSH1 0xFF AND ISZERO ISZERO EQ PUSH2 0x320 JUMPI PUSH1 0x0 DUP1 REVERT JUMPDEST DUP3 PUSH1 0x40 MLOAD PUSH2 0x32E SWAP2 SWAP1 PUSH2 0x726 JUMP JUMPDEST PUSH1 0x40 MLOAD DUP1 SWAP2 SUB SWAP1 KECCAK256 PUSH32 0x6515E12CCCD37948DD708FA51A790D953AC7F5D885D22B88486FD75B4BEA6B95 DUP4 DUP4 PUSH1 0x40 MLOAD PUSH2 0x208 SWAP3 SWAP2 SWAP1 PUSH2 0x76E JUMP JUMPDEST PUSH1 0x0 SLOAD PUSH1 0x1 PUSH1 0x1 PUSH1 0xA0 SHL SUB AND CALLER EQ PUSH2 0x37E JUMPI PUSH1 0x0 DUP1 REVERT JUMPDEST PUSH1 0x1 PUSH1 0x1 PUSH1 0xA0 SHL SUB DUP2 AND PUSH1 0x0 SWAP1 DUP2 MSTORE PUSH1 0x3 PUSH1 0x20 MSTORE PUSH1 0x40 SWAP1 KECCAK256 DUP1 PUSH2 0x3A1 DUP5 DUP3 PUSH2 0x83D JUMP JUMPDEST POP PUSH1 0x1 DUP1 DUP3 ADD DUP1 SLOAD PUSH1 0x1 PUSH1 0x1 PUSH1 0xA0 SHL SUB DUP6 AND PUSH1 0x1 PUSH1 0x1 PUSH1 0xA0 SHL SUB NOT SWAP1 SWAP2 AND DUP2 OR SWAP1 SWAP2 SSTORE PUSH1 0x0 SWAP1 DUP2 MSTORE PUSH1 0x20 DUP3 SWAP1 MSTORE PUSH1 0x40 DUP2 KECCAK256 DUP1 SLOAD PUSH1 0xFF NOT AND DUP4 OR SWAP1 SSTORE PUSH1 0x2 DUP1 SLOAD SWAP3 DUP4 ADD DUP2 SSTORE SWAP1 DUP2 SWAP1 MSTORE DUP3 SWAP2 MUL PUSH32 0x405787FA12A823E0F2B7631CC41B3BA8828B3321CA811111FA75CD3AA3BB5ACE ADD DUP1 PUSH2 0x419 DUP4 DUP3 PUSH2 0x8FD JUMP JUMPDEST POP PUSH1 0x1 SWAP2 DUP3 ADD SLOAD SWAP2 ADD DUP1 SLOAD PUSH1 0x1 PUSH1 0x1 PUSH1 0xA0 SHL SUB NOT AND PUSH1 0x1 PUSH1 0x1 PUSH1 0xA0 SHL SUB SWAP1 SWAP3 AND SWAP2 SWAP1 SWAP2 OR SWAP1 SSTORE POP POP POP JUMP JUMPDEST POP DUP1 SLOAD PUSH2 0x450 SWAP1 PUSH2 0x7B2 JUMP JUMPDEST PUSH1 0x0 DUP3 SSTORE DUP1 PUSH1 0x1F LT PUSH2 0x460 JUMPI POP POP JUMP JUMPDEST PUSH1 0x1F ADD PUSH1 0x20 SWAP1 DIV SWAP1 PUSH1 0x0 MSTORE PUSH1 0x20 PUSH1 0x0 KECCAK256 SWAP1 DUP2 ADD SWAP1 PUSH2 0x47E SWAP2 SWAP1 PUSH2 0x481 JUMP JUMPDEST POP JUMP JUMPDEST JUMPDEST DUP1 DUP3 GT ISZERO PUSH2 0x496 JUMPI PUSH1 0x0 DUP2 SSTORE PUSH1 0x1 ADD PUSH2 0x482 JUMP JUMPDEST POP SWAP1 JUMP JUMPDEST PUSH4 0x4E487B71 PUSH1 0xE0 SHL PUSH1 0x0 MSTORE PUSH1 0x41 PUSH1 0x4 MSTORE PUSH1 0x24 PUSH1 0x0 REVERT JUMPDEST PUSH1 0x0 DUP3 PUSH1 0x1F DUP4 ADD SLT PUSH2 0x4C1 JUMPI PUSH1 0x0 DUP1 REVERT JUMPDEST DUP2 CALLDATALOAD PUSH8 0xFFFFFFFFFFFFFFFF DUP1 DUP3 GT ISZERO PUSH2 0x4DC JUMPI PUSH2 0x4DC PUSH2 0x49A JUMP JUMPDEST PUSH1 0x40 MLOAD PUSH1 0x1F DUP4 ADD PUSH1 0x1F NOT SWAP1 DUP2 AND PUSH1 0x3F ADD AND DUP2 ADD SWAP1 DUP3 DUP3 GT DUP2 DUP4 LT OR ISZERO PUSH2 0x504 JUMPI PUSH2 0x504 PUSH2 0x49A JUMP JUMPDEST DUP2 PUSH1 0x40 MSTORE DUP4 DUP2 MSTORE DUP7 PUSH1 0x20 DUP6 DUP9 ADD ADD GT ISZERO PUSH2 0x51D JUMPI PUSH1 0x0 DUP1 REVERT JUMPDEST DUP4 PUSH1 0x20 DUP8 ADD PUSH1 0x20 DUP4 ADD CALLDATACOPY PUSH1 0x0 PUSH1 0x20 DUP6 DUP4 ADD ADD MSTORE DUP1 SWAP5 POP POP POP POP POP SWAP3 SWAP2 POP POP JUMP JUMPDEST PUSH1 0x0 DUP1 PUSH1 0x40 DUP4 DUP6 SUB SLT ISZERO PUSH2 0x550 JUMPI PUSH1 0x0 DUP1 REVERT JUMPDEST DUP3 CALLDATALOAD PUSH8 0xFFFFFFFFFFFFFFFF DUP1 DUP3 GT ISZERO PUSH2 0x568 JUMPI PUSH1 0x0 DUP1 REVERT JUMPDEST PUSH2 0x574 DUP7 DUP4 DUP8 ADD PUSH2 0x4B0 JUMP JUMPDEST SWAP4 POP PUSH1 0x20 DUP6 ADD CALLDATALOAD SWAP2 POP DUP1 DUP3 GT ISZERO PUSH2 0x58A JUMPI PUSH1 0x0 DUP1 REVERT JUMPDEST POP PUSH2 0x597 DUP6 DUP3 DUP7 ADD PUSH2 0x4B0 JUMP JUMPDEST SWAP2 POP POP SWAP3 POP SWAP3 SWAP1 POP JUMP JUMPDEST PUSH1 0x0 DUP1 PUSH1 0x0 PUSH1 0x60 DUP5 DUP7 SUB SLT ISZERO PUSH2 0x5B6 JUMPI PUSH1 0x0 DUP1 REVERT JUMPDEST DUP4 CALLDATALOAD PUSH8 0xFFFFFFFFFFFFFFFF DUP1 DUP3 GT ISZERO PUSH2 0x5CE JUMPI PUSH1 0x0 DUP1 REVERT JUMPDEST PUSH2 0x5DA DUP8 DUP4 DUP9 ADD PUSH2 0x4B0 JUMP JUMPDEST SWAP5 POP PUSH1 0x20 DUP7 ADD CALLDATALOAD SWAP2 POP DUP1 DUP3 GT ISZERO PUSH2 0x5F0 JUMPI PUSH1 0x0 DUP1 REVERT JUMPDEST PUSH2 0x5FC DUP8 DUP4 DUP9 ADD PUSH2 0x4B0 JUMP JUMPDEST SWAP4 POP PUSH1 0x40 DUP7 ADD CALLDATALOAD SWAP2 POP DUP1 DUP3 GT ISZERO PUSH2 0x612 JUMPI PUSH1 0x0 DUP1 REVERT JUMPDEST POP PUSH2 0x61F DUP7 DUP3 DUP8 ADD PUSH2 0x4B0 JUMP JUMPDEST SWAP2 POP POP SWAP3 POP SWAP3 POP SWAP3 JUMP JUMPDEST PUSH1 0x0 DUP1 PUSH1 0x40 DUP4 DUP6 SUB SLT ISZERO PUSH2 0x63C JUMPI PUSH1 0x0 DUP1 REVERT JUMPDEST DUP3 CALLDATALOAD PUSH8 0xFFFFFFFFFFFFFFFF DUP2 GT ISZERO PUSH2 0x653 JUMPI PUSH1 0x0 DUP1 REVERT JUMPDEST PUSH2 0x65F DUP6 DUP3 DUP7 ADD PUSH2 0x4B0 JUMP JUMPDEST SWAP6 PUSH1 0x20 SWAP5 SWAP1 SWAP5 ADD CALLDATALOAD SWAP5 POP POP POP POP JUMP JUMPDEST DUP1 CALLDATALOAD PUSH1 0x1 PUSH1 0x1 PUSH1 0xA0 SHL SUB DUP2 AND DUP2 EQ PUSH2 0x685 JUMPI PUSH1 0x0 DUP1 REVERT JUMPDEST SWAP2 SWAP1 POP JUMP JUMPDEST PUSH1 0x0 DUP1 PUSH1 0x40 DUP4 DUP6 SUB SLT ISZERO PUSH2 0x69D JUMPI PUSH1 0x0 DUP1 REVERT JUMPDEST PUSH2 0x6A6 DUP4 PUSH2 0x66E JUMP JUMPDEST SWAP5 PUSH1 0x20 SWAP4 SWAP1 SWAP4 ADD CALLDATALOAD SWAP4 POP POP POP JUMP JUMPDEST PUSH1 0x0 DUP1 PUSH1 0x40 DUP4 DUP6 SUB SLT ISZERO PUSH2 0x6C7 JUMPI PUSH1 0x0 DUP1 REVERT JUMPDEST DUP3 CALLDATALOAD PUSH8 0xFFFFFFFFFFFFFFFF DUP2 GT ISZERO PUSH2 0x6DE JUMPI PUSH1 0x0 DUP1 REVERT JUMPDEST PUSH2 0x6EA DUP6 DUP3 DUP7 ADD PUSH2 0x4B0 JUMP JUMPDEST SWAP3 POP POP PUSH2 0x6F9 PUSH1 0x20 DUP5 ADD PUSH2 0x66E JUMP JUMPDEST SWAP1 POP SWAP3 POP SWAP3 SWAP1 POP JUMP JUMPDEST PUSH1 0x0 JUMPDEST DUP4 DUP2 LT ISZERO PUSH2 0x71D JUMPI DUP2 DUP2 ADD MLOAD DUP4 DUP3 ADD MSTORE PUSH1 0x20 ADD PUSH2 0x705 JUMP JUMPDEST POP POP PUSH1 0x0 SWAP2 ADD MSTORE JUMP JUMPDEST PUSH1 0x0 DUP3 MLOAD PUSH2 0x738 DUP2 DUP5 PUSH1 0x20 DUP8 ADD PUSH2 0x702 JUMP JUMPDEST SWAP2 SWAP1 SWAP2 ADD SWAP3 SWAP2 POP POP JUMP JUMPDEST PUSH1 0x0 DUP2 MLOAD DUP1 DUP5 MSTORE PUSH2 0x75A DUP2 PUSH1 0x20 DUP7 ADD PUSH1 0x20 DUP7 ADD PUSH2 0x702 JUMP JUMPDEST PUSH1 0x1F ADD PUSH1 0x1F NOT AND SWAP3 SWAP1 SWAP3 ADD PUSH1 0x20 ADD SWAP3 SWAP2 POP POP JUMP JUMPDEST PUSH1 0x40 DUP2 MSTORE PUSH1 0x0 PUSH2 0x781 PUSH1 0x40 DUP4 ADD DUP6 PUSH2 0x742 JUMP JUMPDEST DUP3 DUP2 SUB PUSH1 0x20 DUP5 ADD MSTORE PUSH2 0x793 DUP2 DUP6 PUSH2 0x742 JUMP JUMPDEST SWAP6 SWAP5 POP POP POP POP POP JUMP JUMPDEST PUSH4 0x4E487B71 PUSH1 0xE0 SHL PUSH1 0x0 MSTORE PUSH1 0x32 PUSH1 0x4 MSTORE PUSH1 0x24 PUSH1 0x0 REVERT JUMPDEST PUSH1 0x1 DUP2 DUP2 SHR SWAP1 DUP3 AND DUP1 PUSH2 0x7C6 JUMPI PUSH1 0x7F DUP3 AND SWAP2 POP JUMPDEST PUSH1 0x20 DUP3 LT DUP2 SUB PUSH2 0x7E6 JUMPI PUSH4 0x4E487B71 PUSH1 0xE0 SHL PUSH1 0x0 MSTORE PUSH1 0x22 PUSH1 0x4 MSTORE PUSH1 0x24 PUSH1 0x0 REVERT JUMPDEST POP SWAP2 SWAP1 POP JUMP JUMPDEST PUSH1 0x1F DUP3 GT ISZERO PUSH2 0x838 JUMPI PUSH1 0x0 DUP2 PUSH1 0x0 MSTORE PUSH1 0x20 PUSH1 0x0 KECCAK256 PUSH1 0x1F DUP6 ADD PUSH1 0x5 SHR DUP2 ADD PUSH1 0x20 DUP7 LT ISZERO PUSH2 0x815 JUMPI POP DUP1 JUMPDEST PUSH1 0x1F DUP6 ADD PUSH1 0x5 SHR DUP3 ADD SWAP2 POP JUMPDEST DUP2 DUP2 LT ISZERO PUSH2 0x834 JUMPI DUP3 DUP2 SSTORE PUSH1 0x1 ADD PUSH2 0x821 JUMP JUMPDEST POP POP POP JUMPDEST POP POP POP JUMP JUMPDEST DUP2 MLOAD PUSH8 0xFFFFFFFFFFFFFFFF DUP2 GT ISZERO PUSH2 0x857 JUMPI PUSH2 0x857 PUSH2 0x49A JUMP JUMPDEST PUSH2 0x86B DUP2 PUSH2 0x865 DUP5 SLOAD PUSH2 0x7B2 JUMP JUMPDEST DUP5 PUSH2 0x7EC JUMP JUMPDEST PUSH1 0x20 DUP1 PUSH1 0x1F DUP4 GT PUSH1 0x1 DUP2 EQ PUSH2 0x8A0 JUMPI PUSH1 0x0 DUP5 ISZERO PUSH2 0x888 JUMPI POP DUP6 DUP4 ADD MLOAD JUMPDEST PUSH1 0x0 NOT PUSH1 0x3 DUP7 SWAP1 SHL SHR NOT AND PUSH1 0x1 DUP6 SWAP1 SHL OR DUP6 SSTORE PUSH2 0x834 JUMP JUMPDEST PUSH1 0x0 DUP6 DUP2 MSTORE PUSH1 0x20 DUP2 KECCAK256 PUSH1 0x1F NOT DUP7 AND SWAP2 JUMPDEST DUP3 DUP2 LT ISZERO PUSH2 0x8CF JUMPI DUP9 DUP7 ADD MLOAD DUP3 SSTORE SWAP5 DUP5 ADD SWAP5 PUSH1 0x1 SWAP1 SWAP2 ADD SWAP1 DUP5 ADD PUSH2 0x8B0 JUMP JUMPDEST POP DUP6 DUP3 LT ISZERO PUSH2 0x8ED JUMPI DUP8 DUP6 ADD MLOAD PUSH1 0x0 NOT PUSH1 0x3 DUP9 SWAP1 SHL PUSH1 0xF8 AND SHR NOT AND DUP2 SSTORE JUMPDEST POP POP POP POP POP PUSH1 0x1 SWAP1 DUP2 SHL ADD SWAP1 SSTORE POP JUMP JUMPDEST DUP2 DUP2 SUB PUSH2 0x908 JUMPI POP POP JUMP JUMPDEST PUSH2 0x912 DUP3 SLOAD PUSH2 0x7B2 JUMP JUMPDEST PUSH8 0xFFFFFFFFFFFFFFFF DUP2 GT ISZERO PUSH2 0x92A JUMPI PUSH2 0x92A PUSH2 0x49A JUMP JUMPDEST PUSH2 0x938 DUP2 PUSH2 0x865 DUP5 SLOAD PUSH2 0x7B2 JUMP JUMPDEST PUSH1 0x0 PUSH1 0x1F DUP3 GT PUSH1 0x1 DUP2 EQ PUSH2 0x96C JUMPI PUSH1 0x0 DUP4 ISZERO PUSH2 0x954 JUMPI POP DUP5 DUP3 ADD SLOAD JUMPDEST PUSH1 0x0 NOT PUSH1 0x3 DUP6 SWAP1 SHL SHR NOT AND PUSH1 0x1 DUP5 SWAP1 SHL OR DUP5 SSTORE PUSH2 0x9D1 JUMP JUMPDEST PUSH1 0x0 DUP6 DUP2 MSTORE PUSH1 0x20 SWAP1 KECCAK256 PUSH1 0x1F NOT DUP5 AND SWAP1 PUSH1 0x0 DUP7 DUP2 MSTORE PUSH1 0x20 SWAP1 KECCAK256 DUP5 JUMPDEST DUP4 DUP2 LT ISZERO PUSH2 0x9A6 JUMPI DUP3 DUP7 ADD SLOAD DUP3 SSTORE PUSH1 0x1 SWAP6 DUP7 ADD SWAP6 SWAP1 SWAP2 ADD SWAP1 PUSH1 0x20 ADD PUSH2 0x986 JUMP JUMPDEST POP DUP6 DUP4 LT ISZERO PUSH2 0x9C4 JUMPI DUP2 DUP6 ADD SLOAD PUSH1 0x0 NOT PUSH1 0x3 DUP9 SWAP1 SHL PUSH1 0xF8 AND SHR NOT AND DUP2 SSTORE JUMPDEST POP POP POP PUSH1 0x1 DUP4 PUSH1 0x1 SHL ADD DUP5 SSTORE JUMPDEST POP POP POP POP POP JUMP INVALID LOG2 PUSH5 0x6970667358 0x22 SLT KECCAK256 ISZERO 0xF PUSH28 0x16AB6BF4EF2AA56D933CB5E26DA6CC677DA0B73D7D6D93AFF450D681 0xAA PUSH5 0x736F6C6343 STOP ADDMOD AND STOP CALLER ","sha1":"d8c2c521d1a6e17d5fae9105261e3cafad78ea7c","source":"//SPDX-License-Identifier: UNLICENSED\n\npragma solidity ^0.8.9;\n\nimport \"./Approvable.sol\";\n\ncontract MerkleTree is Approvable {\n\n    constructor() Approvable(msg.sender, \"Owner\") {}\n\n    event NewTree(string indexed _name_of_tree, uint depth);\n    event NewLeaf(string indexed _name_of_tree, string leaf, string root);\n    event DeleteLeaf(string indexed _name_of_tree, string leaf, string root);\n    event UpdateTree(string indexed _name_of_tree, string indexed root);\n\n    // Should I define the tree as a structure containing a list of leafs?\n    // Asssuming there is a pre agreement on how to add leafs to the tree; just the root will be presented\n\n\n    function createTree(string memory _name_of_tree, uint depth) public approversOnly {\n        emit NewTree(_name_of_tree, depth);\n    }\n\n    function addLeaf(string memory name_of_tree, string memory leaf, string memory root) public approversOnly {\n        emit NewLeaf(name_of_tree, leaf, root);\n    }\n\n    function deleteLeaf(string memory name_of_tree, string memory leaf, string memory root) public approversOnly {\n        emit DeleteLeaf(name_of_tree, leaf,root);\n    }\n\n    function updateTree(string memory name_of_tree, string memory root) public approversOnly {\n        emit UpdateTree(name_of_tree, root);\n    }\n}\n\n\n","sourcePath":"contracts/MerkleTree.sol","deployment":{"address":"0xBF2d7E3bc35f12AF5038F866B9ae07B28BbE4f47","chainid":"11155111","blockHeight":5140370}}