{
  "abi": [
    {
      "inputs": [],
      "stateMutability": "nonpayable",
      "type": "constructor"
    },
    {
      "anonymous": false,
      "inputs": [
        {
          "indexed": false,
          "internalType": "uint256",
          "name": "createdAt",
          "type": "uint256"
        },
        {
          "indexed": true,
          "internalType": "string",
          "name": "serial_number",
          "type": "string"
        },
        {
          "indexed": false,
          "internalType": "uint256",
          "name": "op_mode",
          "type": "uint256"
        },
        {
          "indexed": false,
          "internalType": "bool",
          "name": "flight_type",
          "type": "bool"
        },
        {
          "indexed": false,
          "internalType": "bool",
          "name": "flight_cat",
          "type": "bool"
        },
        {
          "indexed": false,
          "internalType": "uint256",
          "name": "id_tech",
          "type": "uint256"
        },
        {
          "indexed": false,
          "internalType": "uint256",
          "name": "ex_connect_meth",
          "type": "uint256"
        },
        {
          "indexed": false,
          "internalType": "uint256",
          "name": "endurance",
          "type": "uint256"
        },
        {
          "indexed": false,
          "internalType": "uint256",
          "name": "emergency_proc",
          "type": "uint256"
        },
        {
          "indexed": true,
          "internalType": "uint256",
          "name": "operator_num",
          "type": "uint256"
        },
        {
          "indexed": true,
          "internalType": "bool",
          "name": "approved",
          "type": "bool"
        }
      ],
      "name": "NewFlightRequest",
      "type": "event"
    },
    {
      "anonymous": false,
      "inputs": [
        {
          "indexed": false,
          "internalType": "uint256",
          "name": "createdAt",
          "type": "uint256"
        },
        {
          "indexed": false,
          "internalType": "uint256",
          "name": "op_mode",
          "type": "uint256"
        },
        {
          "indexed": false,
          "internalType": "bool",
          "name": "flight_type",
          "type": "bool"
        },
        {
          "indexed": false,
          "internalType": "bool",
          "name": "flight_cat",
          "type": "bool"
        },
        {
          "indexed": true,
          "internalType": "bool",
          "name": "approved",
          "type": "bool"
        }
      ],
      "name": "NewPrivateFlightRequest",
      "type": "event"
    },
    {
      "inputs": [
        {
          "internalType": "string",
          "name": "a",
          "type": "string"
        },
        {
          "internalType": "string",
          "name": "b",
          "type": "string"
        }
      ],
      "name": "compareStrings",
      "outputs": [
        {
          "internalType": "bool",
          "name": "",
          "type": "bool"
        }
      ],
      "stateMutability": "pure",
      "type": "function"
    },
    {
      "inputs": [
        {
          "internalType": "string",
          "name": "_name",
          "type": "string"
        },
        {
          "internalType": "address",
          "name": "_address",
          "type": "address"
        }
      ],
      "name": "createApprover",
      "outputs": [],
      "stateMutability": "nonpayable",
      "type": "function"
    },
    {
      "inputs": [],
      "name": "creator",
      "outputs": [
        {
          "internalType": "address",
          "name": "",
          "type": "address"
        }
      ],
      "stateMutability": "view",
      "type": "function"
    },
    {
      "inputs": [
        {
          "internalType": "address",
          "name": "_address",
          "type": "address"
        },
        {
          "internalType": "uint256",
          "name": "number",
          "type": "uint256"
        }
      ],
      "name": "deleteApprover",
      "outputs": [],
      "stateMutability": "nonpayable",
      "type": "function"
    },
    {
      "inputs": [
        {
          "components": [
            {
              "internalType": "string",
              "name": "_SN",
              "type": "string"
            },
            {
              "internalType": "uint256",
              "name": "_op_mode",
              "type": "uint256"
            },
            {
              "components": [
                {
                  "internalType": "uint256[2]",
                  "name": "_part1",
                  "type": "uint256[2]"
                },
                {
                  "internalType": "uint256[2][2]",
                  "name": "_part2",
                  "type": "uint256[2][2]"
                },
                {
                  "internalType": "uint256[2]",
                  "name": "_part3",
                  "type": "uint256[2]"
                },
                {
                  "internalType": "uint256[1]",
                  "name": "_part4",
                  "type": "uint256[1]"
                }
              ],
              "internalType": "struct FlightAuth.ZKProof",
              "name": "proof_op_mode",
              "type": "tuple"
            },
            {
              "internalType": "bool",
              "name": "_flight_type",
              "type": "bool"
            },
            {
              "components": [
                {
                  "internalType": "uint256[2]",
                  "name": "_part1",
                  "type": "uint256[2]"
                },
                {
                  "internalType": "uint256[2][2]",
                  "name": "_part2",
                  "type": "uint256[2][2]"
                },
                {
                  "internalType": "uint256[2]",
                  "name": "_part3",
                  "type": "uint256[2]"
                },
                {
                  "internalType": "uint256[1]",
                  "name": "_part4",
                  "type": "uint256[1]"
                }
              ],
              "internalType": "struct FlightAuth.ZKProof",
              "name": "proof_flight_type",
              "type": "tuple"
            },
            {
              "internalType": "bool",
              "name": "_flight_cat",
              "type": "bool"
            },
            {
              "components": [
                {
                  "internalType": "uint256[2]",
                  "name": "_part1",
                  "type": "uint256[2]"
                },
                {
                  "internalType": "uint256[2][2]",
                  "name": "_part2",
                  "type": "uint256[2][2]"
                },
                {
                  "internalType": "uint256[2]",
                  "name": "_part3",
                  "type": "uint256[2]"
                },
                {
                  "internalType": "uint256[1]",
                  "name": "_part4",
                  "type": "uint256[1]"
                }
              ],
              "internalType": "struct FlightAuth.ZKProof",
              "name": "proof_flight_cat",
              "type": "tuple"
            },
            {
              "internalType": "uint256",
              "name": "_operator_num",
              "type": "uint256"
            },
            {
              "components": [
                {
                  "internalType": "uint256[2]",
                  "name": "_part1",
                  "type": "uint256[2]"
                },
                {
                  "internalType": "uint256[2][2]",
                  "name": "_part2",
                  "type": "uint256[2][2]"
                },
                {
                  "internalType": "uint256[2]",
                  "name": "_part3",
                  "type": "uint256[2]"
                },
                {
                  "internalType": "uint256[1]",
                  "name": "_part4",
                  "type": "uint256[1]"
                }
              ],
              "internalType": "struct FlightAuth.ZKProof",
              "name": "proof_operator_num",
              "type": "tuple"
            },
            {
              "internalType": "uint256",
              "name": "endurance",
              "type": "uint256"
            },
            {
              "internalType": "string",
              "name": "trajectory_4D",
              "type": "string"
            },
            {
              "internalType": "bool",
              "name": "approved",
              "type": "bool"
            }
          ],
          "internalType": "struct FlightAuth.FlightRequest",
          "name": "current_request",
          "type": "tuple"
        },
        {
          "components": [
            {
              "internalType": "uint256",
              "name": "id_tech",
              "type": "uint256"
            },
            {
              "internalType": "uint256",
              "name": "ex_connec_meth",
              "type": "uint256"
            },
            {
              "internalType": "uint256",
              "name": "emergency_proc",
              "type": "uint256"
            }
          ],
          "internalType": "struct FlightAuth.FlightInfo",
          "name": "current_info",
          "type": "tuple"
        }
      ],
      "name": "setupFlightRequest",
      "outputs": [],
      "stateMutability": "nonpayable",
      "type": "function"
    },
    {
      "inputs": [
        {
          "internalType": "uint256[1]",
          "name": "root",
          "type": "uint256[1]"
        },
        {
          "internalType": "string",
          "name": "name_of_tree",
          "type": "string"
        }
      ],
      "name": "updateRoot",
      "outputs": [],
      "stateMutability": "nonpayable",
      "type": "function"
    },
    {
      "inputs": [
        {
          "internalType": "uint256[2]",
          "name": "a",
          "type": "uint256[2]"
        },
        {
          "internalType": "uint256[2][2]",
          "name": "b",
          "type": "uint256[2][2]"
        },
        {
          "internalType": "uint256[2]",
          "name": "c",
          "type": "uint256[2]"
        },
        {
          "internalType": "uint256[1]",
          "name": "input",
          "type": "uint256[1]"
        }
      ],
      "name": "verifyProof",
      "outputs": [
        {
          "internalType": "bool",
          "name": "r",
          "type": "bool"
        }
      ],
      "stateMutability": "view",
      "type": "function"
    }
  ],
  "bytecode": "60806040523480156200001157600080fd5b5060408051808201909152600581526427bbb732b960d91b6020820152600080546001600160a01b03191633908117909155906200005081836200007e565b5050600080546001600160a01b03168152600160208190526040909120805460ff19169091179055620003bc565b6000546001600160a01b031633146200009657600080fd5b6001600160a01b038116600090815260036020526040902080620000bb848262000207565b50600180820180546001600160a01b0385166001600160a01b031990911681179091556000908152602082905260408120805460ff191683179055600280549283018155908190528291027f405787fa12a823e0f2b7631cc41b3ba8828b3321ca811111fa75cd3aa3bb5ace0180620001358382620002d3565b50600191820154910180546001600160a01b0319166001600160a01b03909216919091179055505050565b634e487b7160e01b600052604160045260246000fd5b600181811c908216806200018b57607f821691505b602082108103620001ac57634e487b7160e01b600052602260045260246000fd5b50919050565b601f82111562000202576000816000526020600020601f850160051c81016020861015620001dd5750805b601f850160051c820191505b81811015620001fe57828155600101620001e9565b5050505b505050565b81516001600160401b0381111562000223576200022362000160565b6200023b8162000234845462000176565b84620001b2565b602080601f8311600181146200027357600084156200025a5750858301515b600019600386901b1c1916600185901b178555620001fe565b600085815260208120601f198616915b82811015620002a45788860151825594840194600190910190840162000283565b5085821015620002c35787850151600019600388901b60f8161c191681555b5050505050600190811b01905550565b818103620002df575050565b620002eb825462000176565b6001600160401b0381111562000305576200030562000160565b620003168162000234845462000176565b6000601f8211600181146200034d5760008315620003345750848201545b600019600385901b1c1916600184901b178455620003b5565b600085815260209020601f19841690600086815260209020845b8381101562000389578286015482556001958601959091019060200162000367565b5085831015620003a85781850154600019600388901b60f8161c191681555b50505060018360011b0184555b5050505050565b6122a580620003cc6000396000f3fe608060405234801561001057600080fd5b506004361061007d5760003560e01c80637814aff41161005b5780637814aff4146100ea5780637912363e146100fd578063b5ab696014610110578063bed34bba1461012357600080fd5b806302d05d3f1461008257806343753b4d146100b257806369ba48fb146100d5575b600080fd5b600054610095906001600160a01b031681565b6040516001600160a01b0390911681526020015b60405180910390f35b6100c56100c0366004611b46565b610136565b60405190151581526020016100a9565b6100e86100e3366004611bb7565b610241565b005b6100e86100f8366004611d5d565b6102bc565b6100e861010b366004611ea7565b6102ca565b6100e861011e366004611eeb565b6103a7565b6100c5610131366004611f39565b61053f565b600061014061180e565b60408051808201825287518152602080890151818301529083528151608081018352875151818401908152885183015160608301528152825180840184528883018051518252518301518184015281830152838201528151808301835286518152868201518183015283830152815160018082528184019093526000929091828101908036833701905050905060005b6001811015610215578481600181106101eb576101eb611f92565b602002015182828151811061020257610202611f92565b60209081029190910101526001016101d0565b506102208183610599565b60000361023257600192505050610239565b6000925050505b949350505050565b6000546001600160a01b0316331461025857600080fd5b6001600160a01b0382166000908152600160205260409020805460ff19169055600280548290811061028c5761028c611f92565b600091825260208220600290910201906102a6828261185f565b5060010180546001600160a01b03191690555050565b6102c68282610784565b5050565b6000546001600160a01b031633146102e157600080fd5b6001600160a01b0381166000908152600360205260409020806103048482612032565b50600180820180546001600160a01b0385166001600160a01b031990911681179091556000908152602082905260408120805460ff191683179055600280549283018155908190528291027f405787fa12a823e0f2b7631cc41b3ba8828b3321ca811111fa75cd3aa3bb5ace018061037c83826120f1565b50600191820154910180546001600160a01b0319166001600160a01b03909216919091179055505050565b6000546001600160a01b031633146103be57600080fd5b6103e8816040518060400160405280600881526020016727b832b930ba37b960c11b81525061053f565b1515600103610403576103fe600483600161189c565b505050565b610429816040518060400160405280600481526020016327b832b760e11b81525061053f565b151560010361043f576103fe600583600161189c565b6104698160405180604001604052806008815260200167537065636966696360c01b81525061053f565b151560010361047f576103fe600683600161189c565b6104aa816040518060400160405280600981526020016810d95c9d1a599a595960ba1b81525061053f565b15156001036104c0576103fe600783600161189c565b6104ec816040518060400160405280600a8152602001695370656369616c4f707360b01b81525061053f565b1515600103610502576103fe600883600161189c565b610529816040518060400160405280600581526020016442564c4f5360d81b81525061053f565b15156001036102c6576103fe600983600161189c565b60008160405160200161055291906121cb565b604051602081830303815290604052805190602001208360405160200161057991906121cb565b604051602081830303815290604052805190602001201490505b92915050565b60007f30644e72e131a029b85045b68181585d2833e84879b9709143e1f593f0000001816105c56109bc565b9050806080015151855160016105db9190612210565b146106225760405162461bcd60e51b81526020600482015260126024820152711d995c9a599a595c8b5898590b5a5b9c1d5d60721b60448201526064015b60405180910390fd5b604080518082019091526000808252602082018190525b8651811015610709578387828151811061065557610655611f92565b6020026020010151106106aa5760405162461bcd60e51b815260206004820152601f60248201527f76657269666965722d6774652d736e61726b2d7363616c61722d6669656c64006044820152606401610619565b6106ff826106fa85608001518460016106c39190612210565b815181106106d3576106d3611f92565b60200260200101518a85815181106106ed576106ed611f92565b6020026020010151610d54565b610dea565b9150600101610639565b5061073281836080015160008151811061072557610725611f92565b6020026020010151610dea565b90506107686107448660000151610e83565b8660200151846000015185602001518587604001518b604001518960600151610f22565b6107785760019350505050610593565b50600095945050505050565b6000610160830152610795826110ad565b151560011480156107a857506060820151155b15610867576001610160830181905260e08301518351604051429392916107ce916121cb565b6040805191829003822060208089015160608a015160a08b01518a51938b01516101208d0151968c015195977f13bcdc869ba4cc3b484072f6e51565ecef86851b9bda3b26da76b270a93232139761085a978d979392978852602088019690965293151560408701529115156060860152608085015260a084015260c083015260e08201526101000190565b60405180910390a4505050565b610870826110ad565b15801561087f57506060820151155b156108a35761016082015160e083015183516040514293151592916107ce916121cb565b6108ac826110ad565b151560011480156108c35750606082015115156001145b1561093957600161016083018190526020830151606084015160a08501516040514294937ff98f0a81e8c5ee20ee0675f96744c7be8f6d2553f0b0f8ebd662de5cf4fe2ab09361092c938784526020840192909252151560408301521515606082015260800190565b60405180910390a2505050565b610942826110ad565b1580156109555750606082015115156001145b156102c6576101608201516020830151606084015160a085015160405142941515937ff98f0a81e8c5ee20ee0675f96744c7be8f6d2553f0b0f8ebd662de5cf4fe2ab09361092c938784526020840192909252151560408301521515606082015260800190565b6109c46118da565b6040805180820182527f2c7507f0b8532e378e9c586581bfd8c9635bd80859fb9aa3fc9c50b1647226f081527f09da173e86ebba8e2bfe6a65adfd9bafb3c9c8cafb70dc18cc490f89c096227d6020808301919091529083528151608080820184527f175c7ccdee24fbc2d01ce03b635f937b0135a3595cfcce1529e8463e01baf1b88285019081527f209cb8e4710029511ba8a8b2953d60c1a6cd2f6c272b5869658a95b27c6c28d7606080850191909152908352845180860186527f2bf4159c08c274068497b6fdfb6eea726a754060a22cf9163c89066b7b01410481527f24dc73daa59238fafdebd2d073353fbf5754a197d359ef6dd367dff1c088d5d1818601528385015285840192909252835180820185527f198e9393920d483a7260bfb731fb5d25f1aa493335a9e71297e485b7aef312c28186019081527f1800deef121f1e76426a00665e5c4479674322d4f75edadd46debd5cd992f6ed828501528152845180860186527f090689d0585ff075ec9e99ad690c3395bc4b313370b38ef355acdadcd122975b81527f12c85ea5db8c6deb4aab71808dcb408fe3d1e7690c43d37b4ce6cc0166fa7daa818601528185015285850152835190810184527f190a11546dde2f3cb431d9ac970a24bdedd99026598cc46cd59e7175ce01afd48185019081527f1becec28d994e9bc032ed00343376601b4ca2ac215a8eac08376d9dac3b097f4828401528152835180850185527f2adf71e41f461e56480ae7e59fc57bd7703bf420b4c421a99f6d196edcf7fff181527f043a22dfb83a585d14b004c9a34d59c775b792fbb2768abd3058ab7eabaf156c818501528184015281850152825160028082529181019093529082015b6040805180820190915260008082526020820152815260200190600190039081610c3d57505060808201908152604080518082019091527f2cf1425e0dd260a78c4b6de9f9668c5d7d74deca27d914837181a6566af0f42d81527ef902fc3e82d3ad79b8b55656e540bfb5f2ee3583624601ade6c0ed3ebeb8f0602082015290518051600090610ccf57610ccf611f92565b602002602001018190525060405180604001604052807f03dfccf266ac3be3e8f1a161a426939e99a99f0981c80b941f964be65e84b5e681526020017f2968e3356e1888bdb3aad900dd72dbc52749b97176f75d2febe027d66af5b0e68152508160800151600181518110610d4657610d46611f92565b602002602001018190525090565b6040805180820190915260008082526020820152610d7061192b565b835181526020808501519082015260408101839052600060608360808460076107d05a03fa90508080610d9f57fe5b5080610de25760405162461bcd60e51b81526020600482015260126024820152711c185a5c9a5b99cb5b5d5b0b59985a5b195960721b6044820152606401610619565b505092915050565b6040805180820190915260008082526020820152610e06611949565b8351815260208085015181830152835160408301528301516060808301919091526000908360c08460066107d05a03fa90508080610e4057fe5b5080610de25760405162461bcd60e51b81526020600482015260126024820152711c185a5c9a5b99cb5859190b59985a5b195960721b6044820152606401610619565b604080518082019091526000808252602082015281517f30644e72e131a029b85045b68181585d97816a916871ca8d3c208c16d87cfd4790158015610eca57506020830151155b15610eea5750506040805180820190915260008082526020820152919050565b604051806040016040528084600001518152602001828560200151610f0f9190612223565b610f199084612245565b90529392505050565b60408051600480825260a08201909252600091829190816020015b6040805180820190915260008082526020820152815260200190600190039081610f3d57505060408051600480825260a0820190925291925060009190602082015b610f87611967565b815260200190600190039081610f7f5790505090508a82600081518110610fb057610fb0611f92565b60200260200101819052508882600181518110610fcf57610fcf611f92565b60200260200101819052508682600281518110610fee57610fee611f92565b6020026020010181905250848260038151811061100d5761100d611f92565b6020026020010181905250898160008151811061102c5761102c611f92565b6020026020010181905250878160018151811061104b5761104b611f92565b6020026020010181905250858160028151811061106a5761106a611f92565b6020026020010181905250838160038151811061108957611089611f92565b602002602001018190525061109e82826114c1565b9b9a5050505050505050505050565b600081606001511515600115151480156110cd575060a082015115156001145b1561120f5760085460808301516060908101515160095460c086015190920151516020860151919093149290911490600090810361111e57600560005b01546040860151606001515114905061114f565b8460200151600103611133576006600061110a565b846020015160020361114f575060075460408501516060015151145b604080860151805160208201519282015160609092015161117293919290610136565b801561119a5750608085015180516020820151604083015160609093015161119a9390610136565b80156111c2575060c08501518051602082015160408301516060909301516111c29390610136565b80156111eb57506101008501518051602082015160408301516060909301516111eb9390610136565b80156111f45750825b80156111fd5750815b80156112065750805b95945050505050565b606082015115156001148015611227575060a0820151155b1561131f57600854608083015160600151516020840151911490600090810361126357600560005b015460408501516060015151149050611294565b8360200151600103611278576006600061124f565b8360200151600203611294575060075460408401516060015151145b60408085015180516020820151928201516060909201516112b793919290610136565b80156112df575060808401518051602082015160408301516060909301516112df9390610136565b801561130857506101008401518051602082015160408301516060909301516113089390610136565b80156113115750815b801561023957509392505050565b6060820151158015611337575060a082015115156001145b156113ef5760095460c083015160600151516020840151911490600090810361137357600560005b0154604085015160600151511490506113a4565b8360200151600103611388576006600061135f565b83602001516002036113a4575060075460408401516060015151145b60408085015180516020820151928201516060909201516113c793919290610136565b80156112df575060c08401518051602082015160408301516060909301516112df9390610136565b6060820151158015611403575060a0820151155b156114bc576000826020015160000361142f57600560005b015460408401516060015151149050611460565b8260200151600103611444576006600061141b565b8260200151600203611460575060075460408301516060015151145b604080840151805160208201519282015160609092015161148393919290610136565b80156114ac57506101008301518051602082015160408301516060909301516114ac9390610136565b80156114b55750805b9392505050565b919050565b6000815183511461150d5760405162461bcd60e51b81526020600482015260166024820152751c185a5c9a5b99cb5b195b99dd1a1ccb59985a5b195960521b6044820152606401610619565b8251600061151c826006612258565b90506000816001600160401b03811115611538576115386119d8565b604051908082528060200260200182016040528015611561578160200160208202803683370190505b50905060005b838110156117925786818151811061158157611581611f92565b6020026020010151600001518282600661159b9190612258565b6115a6906000612210565b815181106115b6576115b6611f92565b6020026020010181815250508681815181106115d4576115d4611f92565b602002602001015160200151828260066115ee9190612258565b6115f9906001612210565b8151811061160957611609611f92565b60200260200101818152505085818151811061162757611627611f92565b6020908102919091010151515182611640836006612258565b61164b906002612210565b8151811061165b5761165b611f92565b60200260200101818152505085818151811061167957611679611f92565b60209081029190910181015151015182611694836006612258565b61169f906003612210565b815181106116af576116af611f92565b6020026020010181815250508581815181106116cd576116cd611f92565b6020026020010151602001516000600281106116eb576116eb611f92565b6020020151826116fc836006612258565b611707906004612210565b8151811061171757611717611f92565b60200260200101818152505085818151811061173557611735611f92565b60200260200101516020015160016002811061175357611753611f92565b602002015182611764836006612258565b61176f906005612210565b8151811061177f5761177f611f92565b6020908102919091010152600101611567565b5061179b611987565b6000602082602086026020860160086107d05a03fa905080806117ba57fe5b50806118005760405162461bcd60e51b81526020600482015260156024820152741c185a5c9a5b99cb5bdc18dbd9194b59985a5b1959605a1b6044820152606401610619565b505115159695505050505050565b6040805160a081019091526000606082018181526080830191909152815260208101611838611967565b815260200161185a604051806040016040528060008152602001600081525090565b905290565b50805461186b90611fa8565b6000825580601f1061187b575050565b601f01602090049060005260206000209081019061189991906119a5565b50565b82600181019282156118ca579160200282015b828111156118ca5782518255916020019190600101906118af565b506118d69291506119a5565b5090565b6040805160e08101909152600060a0820181815260c0830191909152815260208101611904611967565b8152602001611911611967565b815260200161191e611967565b8152602001606081525090565b60405180606001604052806003906020820280368337509192915050565b60405180608001604052806004906020820280368337509192915050565b604051806040016040528061197a6119ba565b815260200161185a6119ba565b60405180602001604052806001906020820280368337509192915050565b5b808211156118d657600081556001016119a6565b60405180604001604052806002906020820280368337509192915050565b634e487b7160e01b600052604160045260246000fd5b60405161018081016001600160401b0381118282101715611a1157611a116119d8565b60405290565b604080519081016001600160401b0381118282101715611a1157611a116119d8565b600082601f830112611a4a57600080fd5b611a52611a17565b806040840185811115611a6457600080fd5b845b81811015611a7e578035845260209384019301611a66565b509095945050505050565b600082601f830112611a9a57600080fd5b611aa2611a17565b806080840185811115611ab457600080fd5b845b81811015611a7e57611ac88782611a39565b8452602090930192604001611ab6565b600082601f830112611ae957600080fd5b60405160208082018281106001600160401b0382111715611b0c57611b0c6119d8565b604052816020850186811115611b2157600080fd5b855b81811015611b3a5780358352918301918301611b23565b50929695505050505050565b6000806000806101208587031215611b5d57600080fd5b611b678686611a39565b9350611b768660408701611a89565b9250611b858660c08701611a39565b9150611b95866101008701611ad8565b905092959194509250565b80356001600160a01b03811681146114bc57600080fd5b60008060408385031215611bca57600080fd5b611bd383611ba0565b946020939093013593505050565b600082601f830112611bf257600080fd5b81356001600160401b0380821115611c0c57611c0c6119d8565b604051601f8301601f19908116603f01168101908282118183101715611c3457611c346119d8565b81604052838152866020858801011115611c4d57600080fd5b836020870160208301376000602085830101528094505050505092915050565b60006101208284031215611c8057600080fd5b604051608081018181106001600160401b0382111715611ca257611ca26119d8565b604052905080611cb28484611a39565b8152611cc18460408501611a89565b6020820152611cd38460c08501611a39565b6040820152611ce6846101008501611ad8565b60608201525092915050565b803580151581146114bc57600080fd5b600060608284031215611d1457600080fd5b604051606081018181106001600160401b0382111715611d3657611d366119d8565b80604052508091508235815260208301356020820152604083013560408201525092915050565b60008060808385031215611d7057600080fd5b82356001600160401b0380821115611d8757600080fd5b908401906105808287031215611d9c57600080fd5b611da46119ee565b823582811115611db357600080fd5b611dbf88828601611be1565b82525060208301356020820152611dd98760408501611c6d565b6040820152610160611dec818501611cf2565b6060830152611dff886101808601611c6d565b6080830152611e116102a08501611cf2565b60a0830152611e24886102c08601611c6d565b60c08301526103e084013560e0830152611e42886104008601611c6d565b61010083015261052084013561012083015261054084013583811115611e6757600080fd5b611e7389828701611be1565b61014084015250611e876105608501611cf2565b908201529350611e9e915085905060208501611d02565b90509250929050565b60008060408385031215611eba57600080fd5b82356001600160401b03811115611ed057600080fd5b611edc85828601611be1565b925050611e9e60208401611ba0565b60008060408385031215611efe57600080fd5b611f088484611ad8565b915060208301356001600160401b03811115611f2357600080fd5b611f2f85828601611be1565b9150509250929050565b60008060408385031215611f4c57600080fd5b82356001600160401b0380821115611f6357600080fd5b611f6f86838701611be1565b93506020850135915080821115611f8557600080fd5b50611f2f85828601611be1565b634e487b7160e01b600052603260045260246000fd5b600181811c90821680611fbc57607f821691505b602082108103611fdc57634e487b7160e01b600052602260045260246000fd5b50919050565b601f8211156103fe576000816000526020600020601f850160051c8101602086101561200b5750805b601f850160051c820191505b8181101561202a57828155600101612017565b505050505050565b81516001600160401b0381111561204b5761204b6119d8565b61205f816120598454611fa8565b84611fe2565b602080601f831160018114612094576000841561207c5750858301515b600019600386901b1c1916600185901b17855561202a565b600085815260208120601f198616915b828110156120c3578886015182559484019460019091019084016120a4565b50858210156120e15787850151600019600388901b60f8161c191681555b5050505050600190811b01905550565b8181036120fc575050565b6121068254611fa8565b6001600160401b0381111561211d5761211d6119d8565b61212b816120598454611fa8565b6000601f82116001811461215f57600083156121475750848201545b600019600385901b1c1916600184901b1784556121c4565b600085815260209020601f19841690600086815260209020845b838110156121995782860154825560019586019590910190602001612179565b50858310156121b75781850154600019600388901b60f8161c191681555b50505060018360011b0184555b5050505050565b6000825160005b818110156121ec57602081860181015185830152016121d2565b506000920191825250919050565b634e487b7160e01b600052601160045260246000fd5b80820180821115610593576105936121fa565b60008261224057634e487b7160e01b600052601260045260246000fd5b500690565b81810381811115610593576105936121fa565b8082028115828204841417610593576105936121fa56fea26469706673582212208e53e0cdd5a2fb56b2820f6e096b24b3080c73f255bbf530e95556a16a3b8fbc64736f6c63430008160033",
  "bytecodeSha1": "13e3368181d9d4d878b4b9db6eb759630331a389",
  "compiler": {
    "evm_version": "istanbul",
    "optimizer": {
      "enabled": true,
      "runs": 200
    },
    "version": "0.8.22+commit.4fc1097e"
  },
  "contractName": "FlightAuth",
  "language": "Solidity",
  "natspec": {
    "kind": "dev",
    "methods": {
      "verifyProof(uint256[2],uint256[2][2],uint256[2],uint256[1])": {
        "returns": {
          "r": " bool true if proof is valid"
        }
      }
    },
    "version": 1
  },
  "opcodes": "PUSH1 0x80 PUSH1 0x40 MSTORE CALLVALUE DUP1 ISZERO PUSH2 0x10 JUMPI PUSH1 0x0 DUP1 REVERT JUMPDEST POP PUSH1 0x4 CALLDATASIZE LT PUSH2 0x7D JUMPI PUSH1 0x0 CALLDATALOAD PUSH1 0xE0 SHR DUP1 PUSH4 0x7814AFF4 GT PUSH2 0x5B JUMPI DUP1 PUSH4 0x7814AFF4 EQ PUSH2 0xEA JUMPI DUP1 PUSH4 0x7912363E EQ PUSH2 0xFD JUMPI DUP1 PUSH4 0xB5AB6960 EQ PUSH2 0x110 JUMPI DUP1 PUSH4 0xBED34BBA EQ PUSH2 0x123 JUMPI PUSH1 0x0 DUP1 REVERT JUMPDEST DUP1 PUSH4 0x2D05D3F EQ PUSH2 0x82 JUMPI DUP1 PUSH4 0x43753B4D EQ PUSH2 0xB2 JUMPI DUP1 PUSH4 0x69BA48FB EQ PUSH2 0xD5 JUMPI JUMPDEST PUSH1 0x0 DUP1 REVERT JUMPDEST PUSH1 0x0 SLOAD PUSH2 0x95 SWAP1 PUSH1 0x1 PUSH1 0x1 PUSH1 0xA0 SHL SUB AND DUP2 JUMP JUMPDEST PUSH1 0x40 MLOAD PUSH1 0x1 PUSH1 0x1 PUSH1 0xA0 SHL SUB SWAP1 SWAP2 AND DUP2 MSTORE PUSH1 0x20 ADD JUMPDEST PUSH1 0x40 MLOAD DUP1 SWAP2 SUB SWAP1 RETURN JUMPDEST PUSH2 0xC5 PUSH2 0xC0 CALLDATASIZE PUSH1 0x4 PUSH2 0x1B46 JUMP JUMPDEST PUSH2 0x136 JUMP JUMPDEST PUSH1 0x40 MLOAD SWAP1 ISZERO ISZERO DUP2 MSTORE PUSH1 0x20 ADD PUSH2 0xA9 JUMP JUMPDEST PUSH2 0xE8 PUSH2 0xE3 CALLDATASIZE PUSH1 0x4 PUSH2 0x1BB7 JUMP JUMPDEST PUSH2 0x241 JUMP JUMPDEST STOP JUMPDEST PUSH2 0xE8 PUSH2 0xF8 CALLDATASIZE PUSH1 0x4 PUSH2 0x1D5D JUMP JUMPDEST PUSH2 0x2BC JUMP JUMPDEST PUSH2 0xE8 PUSH2 0x10B CALLDATASIZE PUSH1 0x4 PUSH2 0x1EA7 JUMP JUMPDEST PUSH2 0x2CA JUMP JUMPDEST PUSH2 0xE8 PUSH2 0x11E CALLDATASIZE PUSH1 0x4 PUSH2 0x1EEB JUMP JUMPDEST PUSH2 0x3A7 JUMP JUMPDEST PUSH2 0xC5 PUSH2 0x131 CALLDATASIZE PUSH1 0x4 PUSH2 0x1F39 JUMP JUMPDEST PUSH2 0x53F JUMP JUMPDEST PUSH1 0x0 PUSH2 0x140 PUSH2 0x180E JUMP JUMPDEST PUSH1 0x40 DUP1 MLOAD DUP1 DUP3 ADD DUP3 MSTORE DUP8 MLOAD DUP2 MSTORE PUSH1 0x20 DUP1 DUP10 ADD MLOAD DUP2 DUP4 ADD MSTORE SWAP1 DUP4 MSTORE DUP2 MLOAD PUSH1 0x80 DUP2 ADD DUP4 MSTORE DUP8 MLOAD MLOAD DUP2 DUP5 ADD SWAP1 DUP2 MSTORE DUP9 MLOAD DUP4 ADD MLOAD PUSH1 0x60 DUP4 ADD MSTORE DUP2 MSTORE DUP3 MLOAD DUP1 DUP5 ADD DUP5 MSTORE DUP9 DUP4 ADD DUP1 MLOAD MLOAD DUP3 MSTORE MLOAD DUP4 ADD MLOAD DUP2 DUP5 ADD MSTORE DUP2 DUP4 ADD MSTORE DUP4 DUP3 ADD MSTORE DUP2 MLOAD DUP1 DUP4 ADD DUP4 MSTORE DUP7 MLOAD DUP2 MSTORE DUP7 DUP3 ADD MLOAD DUP2 DUP4 ADD MSTORE DUP4 DUP4 ADD MSTORE DUP2 MLOAD PUSH1 0x1 DUP1 DUP3 MSTORE DUP2 DUP5 ADD SWAP1 SWAP4 MSTORE PUSH1 0x0 SWAP3 SWAP1 SWAP2 DUP3 DUP2 ADD SWAP1 DUP1 CALLDATASIZE DUP4 CALLDATACOPY ADD SWAP1 POP POP SWAP1 POP PUSH1 0x0 JUMPDEST PUSH1 0x1 DUP2 LT ISZERO PUSH2 0x215 JUMPI DUP5 DUP2 PUSH1 0x1 DUP2 LT PUSH2 0x1EB JUMPI PUSH2 0x1EB PUSH2 0x1F92 JUMP JUMPDEST PUSH1 0x20 MUL ADD MLOAD DUP3 DUP3 DUP2 MLOAD DUP2 LT PUSH2 0x202 JUMPI PUSH2 0x202 PUSH2 0x1F92 JUMP JUMPDEST PUSH1 0x20 SWAP1 DUP2 MUL SWAP2 SWAP1 SWAP2 ADD ADD MSTORE PUSH1 0x1 ADD PUSH2 0x1D0 JUMP JUMPDEST POP PUSH2 0x220 DUP2 DUP4 PUSH2 0x599 JUMP JUMPDEST PUSH1 0x0 SUB PUSH2 0x232 JUMPI PUSH1 0x1 SWAP3 POP POP POP PUSH2 0x239 JUMP JUMPDEST PUSH1 0x0 SWAP3 POP POP POP JUMPDEST SWAP5 SWAP4 POP POP POP POP JUMP JUMPDEST PUSH1 0x0 SLOAD PUSH1 0x1 PUSH1 0x1 PUSH1 0xA0 SHL SUB AND CALLER EQ PUSH2 0x258 JUMPI PUSH1 0x0 DUP1 REVERT JUMPDEST PUSH1 0x1 PUSH1 0x1 PUSH1 0xA0 SHL SUB DUP3 AND PUSH1 0x0 SWAP1 DUP2 MSTORE PUSH1 0x1 PUSH1 0x20 MSTORE PUSH1 0x40 SWAP1 KECCAK256 DUP1 SLOAD PUSH1 0xFF NOT AND SWAP1 SSTORE PUSH1 0x2 DUP1 SLOAD DUP3 SWAP1 DUP2 LT PUSH2 0x28C JUMPI PUSH2 0x28C PUSH2 0x1F92 JUMP JUMPDEST PUSH1 0x0 SWAP2 DUP3 MSTORE PUSH1 0x20 DUP3 KECCAK256 PUSH1 0x2 SWAP1 SWAP2 MUL ADD SWAP1 PUSH2 0x2A6 DUP3 DUP3 PUSH2 0x185F JUMP JUMPDEST POP PUSH1 0x1 ADD DUP1 SLOAD PUSH1 0x1 PUSH1 0x1 PUSH1 0xA0 SHL SUB NOT AND SWAP1 SSTORE POP POP JUMP JUMPDEST PUSH2 0x2C6 DUP3 DUP3 PUSH2 0x784 JUMP JUMPDEST POP POP JUMP JUMPDEST PUSH1 0x0 SLOAD PUSH1 0x1 PUSH1 0x1 PUSH1 0xA0 SHL SUB AND CALLER EQ PUSH2 0x2E1 JUMPI PUSH1 0x0 DUP1 REVERT JUMPDEST PUSH1 0x1 PUSH1 0x1 PUSH1 0xA0 SHL SUB DUP2 AND PUSH1 0x0 SWAP1 DUP2 MSTORE PUSH1 0x3 PUSH1 0x20 MSTORE PUSH1 0x40 SWAP1 KECCAK256 DUP1 PUSH2 0x304 DUP5 DUP3 PUSH2 0x2032 JUMP JUMPDEST POP PUSH1 0x1 DUP1 DUP3 ADD DUP1 SLOAD PUSH1 0x1 PUSH1 0x1 PUSH1 0xA0 SHL SUB DUP6 AND PUSH1 0x1 PUSH1 0x1 PUSH1 0xA0 SHL SUB NOT SWAP1 SWAP2 AND DUP2 OR SWAP1 SWAP2 SSTORE PUSH1 0x0 SWAP1 DUP2 MSTORE PUSH1 0x20 DUP3 SWAP1 MSTORE PUSH1 0x40 DUP2 KECCAK256 DUP1 SLOAD PUSH1 0xFF NOT AND DUP4 OR SWAP1 SSTORE PUSH1 0x2 DUP1 SLOAD SWAP3 DUP4 ADD DUP2 SSTORE SWAP1 DUP2 SWAP1 MSTORE DUP3 SWAP2 MUL PUSH32 0x405787FA12A823E0F2B7631CC41B3BA8828B3321CA811111FA75CD3AA3BB5ACE ADD DUP1 PUSH2 0x37C DUP4 DUP3 PUSH2 0x20F1 JUMP JUMPDEST POP PUSH1 0x1 SWAP2 DUP3 ADD SLOAD SWAP2 ADD DUP1 SLOAD PUSH1 0x1 PUSH1 0x1 PUSH1 0xA0 SHL SUB NOT AND PUSH1 0x1 PUSH1 0x1 PUSH1 0xA0 SHL SUB SWAP1 SWAP3 AND SWAP2 SWAP1 SWAP2 OR SWAP1 SSTORE POP POP POP JUMP JUMPDEST PUSH1 0x0 SLOAD PUSH1 0x1 PUSH1 0x1 PUSH1 0xA0 SHL SUB AND CALLER EQ PUSH2 0x3BE JUMPI PUSH1 0x0 DUP1 REVERT JUMPDEST PUSH2 0x3E8 DUP2 PUSH1 0x40 MLOAD DUP1 PUSH1 0x40 ADD PUSH1 0x40 MSTORE DUP1 PUSH1 0x8 DUP2 MSTORE PUSH1 0x20 ADD PUSH8 0x27B832B930BA37B9 PUSH1 0xC1 SHL DUP2 MSTORE POP PUSH2 0x53F JUMP JUMPDEST ISZERO ISZERO PUSH1 0x1 SUB PUSH2 0x403 JUMPI PUSH2 0x3FE PUSH1 0x4 DUP4 PUSH1 0x1 PUSH2 0x189C JUMP JUMPDEST POP POP POP JUMP JUMPDEST PUSH2 0x429 DUP2 PUSH1 0x40 MLOAD DUP1 PUSH1 0x40 ADD PUSH1 0x40 MSTORE DUP1 PUSH1 0x4 DUP2 MSTORE PUSH1 0x20 ADD PUSH4 0x27B832B7 PUSH1 0xE1 SHL DUP2 MSTORE POP PUSH2 0x53F JUMP JUMPDEST ISZERO ISZERO PUSH1 0x1 SUB PUSH2 0x43F JUMPI PUSH2 0x3FE PUSH1 0x5 DUP4 PUSH1 0x1 PUSH2 0x189C JUMP JUMPDEST PUSH2 0x469 DUP2 PUSH1 0x40 MLOAD DUP1 PUSH1 0x40 ADD PUSH1 0x40 MSTORE DUP1 PUSH1 0x8 DUP2 MSTORE PUSH1 0x20 ADD PUSH8 0x5370656369666963 PUSH1 0xC0 SHL DUP2 MSTORE POP PUSH2 0x53F JUMP JUMPDEST ISZERO ISZERO PUSH1 0x1 SUB PUSH2 0x47F JUMPI PUSH2 0x3FE PUSH1 0x6 DUP4 PUSH1 0x1 PUSH2 0x189C JUMP JUMPDEST PUSH2 0x4AA DUP2 PUSH1 0x40 MLOAD DUP1 PUSH1 0x40 ADD PUSH1 0x40 MSTORE DUP1 PUSH1 0x9 DUP2 MSTORE PUSH1 0x20 ADD PUSH9 0x10D95C9D1A599A5959 PUSH1 0xBA SHL DUP2 MSTORE POP PUSH2 0x53F JUMP JUMPDEST ISZERO ISZERO PUSH1 0x1 SUB PUSH2 0x4C0 JUMPI PUSH2 0x3FE PUSH1 0x7 DUP4 PUSH1 0x1 PUSH2 0x189C JUMP JUMPDEST PUSH2 0x4EC DUP2 PUSH1 0x40 MLOAD DUP1 PUSH1 0x40 ADD PUSH1 0x40 MSTORE DUP1 PUSH1 0xA DUP2 MSTORE PUSH1 0x20 ADD PUSH10 0x5370656369616C4F7073 PUSH1 0xB0 SHL DUP2 MSTORE POP PUSH2 0x53F JUMP JUMPDEST ISZERO ISZERO PUSH1 0x1 SUB PUSH2 0x502 JUMPI PUSH2 0x3FE PUSH1 0x8 DUP4 PUSH1 0x1 PUSH2 0x189C JUMP JUMPDEST PUSH2 0x529 DUP2 PUSH1 0x40 MLOAD DUP1 PUSH1 0x40 ADD PUSH1 0x40 MSTORE DUP1 PUSH1 0x5 DUP2 MSTORE PUSH1 0x20 ADD PUSH5 0x42564C4F53 PUSH1 0xD8 SHL DUP2 MSTORE POP PUSH2 0x53F JUMP JUMPDEST ISZERO ISZERO PUSH1 0x1 SUB PUSH2 0x2C6 JUMPI PUSH2 0x3FE PUSH1 0x9 DUP4 PUSH1 0x1 PUSH2 0x189C JUMP JUMPDEST PUSH1 0x0 DUP2 PUSH1 0x40 MLOAD PUSH1 0x20 ADD PUSH2 0x552 SWAP2 SWAP1 PUSH2 0x21CB JUMP JUMPDEST PUSH1 0x40 MLOAD PUSH1 0x20 DUP2 DUP4 SUB SUB DUP2 MSTORE SWAP1 PUSH1 0x40 MSTORE DUP1 MLOAD SWAP1 PUSH1 0x20 ADD KECCAK256 DUP4 PUSH1 0x40 MLOAD PUSH1 0x20 ADD PUSH2 0x579 SWAP2 SWAP1 PUSH2 0x21CB JUMP JUMPDEST PUSH1 0x40 MLOAD PUSH1 0x20 DUP2 DUP4 SUB SUB DUP2 MSTORE SWAP1 PUSH1 0x40 MSTORE DUP1 MLOAD SWAP1 PUSH1 0x20 ADD KECCAK256 EQ SWAP1 POP JUMPDEST SWAP3 SWAP2 POP POP JUMP JUMPDEST PUSH1 0x0 PUSH32 0x30644E72E131A029B85045B68181585D2833E84879B9709143E1F593F0000001 DUP2 PUSH2 0x5C5 PUSH2 0x9BC JUMP JUMPDEST SWAP1 POP DUP1 PUSH1 0x80 ADD MLOAD MLOAD DUP6 MLOAD PUSH1 0x1 PUSH2 0x5DB SWAP2 SWAP1 PUSH2 0x2210 JUMP JUMPDEST EQ PUSH2 0x622 JUMPI PUSH1 0x40 MLOAD PUSH3 0x461BCD PUSH1 0xE5 SHL DUP2 MSTORE PUSH1 0x20 PUSH1 0x4 DUP3 ADD MSTORE PUSH1 0x12 PUSH1 0x24 DUP3 ADD MSTORE PUSH18 0x1D995C9A599A595C8B5898590B5A5B9C1D5D PUSH1 0x72 SHL PUSH1 0x44 DUP3 ADD MSTORE PUSH1 0x64 ADD JUMPDEST PUSH1 0x40 MLOAD DUP1 SWAP2 SUB SWAP1 REVERT JUMPDEST PUSH1 0x40 DUP1 MLOAD DUP1 DUP3 ADD SWAP1 SWAP2 MSTORE PUSH1 0x0 DUP1 DUP3 MSTORE PUSH1 0x20 DUP3 ADD DUP2 SWAP1 MSTORE JUMPDEST DUP7 MLOAD DUP2 LT ISZERO PUSH2 0x709 JUMPI DUP4 DUP8 DUP3 DUP2 MLOAD DUP2 LT PUSH2 0x655 JUMPI PUSH2 0x655 PUSH2 0x1F92 JUMP JUMPDEST PUSH1 0x20 MUL PUSH1 0x20 ADD ADD MLOAD LT PUSH2 0x6AA JUMPI PUSH1 0x40 MLOAD PUSH3 0x461BCD PUSH1 0xE5 SHL DUP2 MSTORE PUSH1 0x20 PUSH1 0x4 DUP3 ADD MSTORE PUSH1 0x1F PUSH1 0x24 DUP3 ADD MSTORE PUSH32 0x76657269666965722D6774652D736E61726B2D7363616C61722D6669656C6400 PUSH1 0x44 DUP3 ADD MSTORE PUSH1 0x64 ADD PUSH2 0x619 JUMP JUMPDEST PUSH2 0x6FF DUP3 PUSH2 0x6FA DUP6 PUSH1 0x80 ADD MLOAD DUP5 PUSH1 0x1 PUSH2 0x6C3 SWAP2 SWAP1 PUSH2 0x2210 JUMP JUMPDEST DUP2 MLOAD DUP2 LT PUSH2 0x6D3 JUMPI PUSH2 0x6D3 PUSH2 0x1F92 JUMP JUMPDEST PUSH1 0x20 MUL PUSH1 0x20 ADD ADD MLOAD DUP11 DUP6 DUP2 MLOAD DUP2 LT PUSH2 0x6ED JUMPI PUSH2 0x6ED PUSH2 0x1F92 JUMP JUMPDEST PUSH1 0x20 MUL PUSH1 0x20 ADD ADD MLOAD PUSH2 0xD54 JUMP JUMPDEST PUSH2 0xDEA JUMP JUMPDEST SWAP2 POP PUSH1 0x1 ADD PUSH2 0x639 JUMP JUMPDEST POP PUSH2 0x732 DUP2 DUP4 PUSH1 0x80 ADD MLOAD PUSH1 0x0 DUP2 MLOAD DUP2 LT PUSH2 0x725 JUMPI PUSH2 0x725 PUSH2 0x1F92 JUMP JUMPDEST PUSH1 0x20 MUL PUSH1 0x20 ADD ADD MLOAD PUSH2 0xDEA JUMP JUMPDEST SWAP1 POP PUSH2 0x768 PUSH2 0x744 DUP7 PUSH1 0x0 ADD MLOAD PUSH2 0xE83 JUMP JUMPDEST DUP7 PUSH1 0x20 ADD MLOAD DUP5 PUSH1 0x0 ADD MLOAD DUP6 PUSH1 0x20 ADD MLOAD DUP6 DUP8 PUSH1 0x40 ADD MLOAD DUP12 PUSH1 0x40 ADD MLOAD DUP10 PUSH1 0x60 ADD MLOAD PUSH2 0xF22 JUMP JUMPDEST PUSH2 0x778 JUMPI PUSH1 0x1 SWAP4 POP POP POP POP PUSH2 0x593 JUMP JUMPDEST POP PUSH1 0x0 SWAP6 SWAP5 POP POP POP POP POP JUMP JUMPDEST PUSH1 0x0 PUSH2 0x160 DUP4 ADD MSTORE PUSH2 0x795 DUP3 PUSH2 0x10AD JUMP JUMPDEST ISZERO ISZERO PUSH1 0x1 EQ DUP1 ISZERO PUSH2 0x7A8 JUMPI POP PUSH1 0x60 DUP3 ADD MLOAD ISZERO JUMPDEST ISZERO PUSH2 0x867 JUMPI PUSH1 0x1 PUSH2 0x160 DUP4 ADD DUP2 SWAP1 MSTORE PUSH1 0xE0 DUP4 ADD MLOAD DUP4 MLOAD PUSH1 0x40 MLOAD TIMESTAMP SWAP4 SWAP3 SWAP2 PUSH2 0x7CE SWAP2 PUSH2 0x21CB JUMP JUMPDEST PUSH1 0x40 DUP1 MLOAD SWAP2 DUP3 SWAP1 SUB DUP3 KECCAK256 PUSH1 0x20 DUP1 DUP10 ADD MLOAD PUSH1 0x60 DUP11 ADD MLOAD PUSH1 0xA0 DUP12 ADD MLOAD DUP11 MLOAD SWAP4 DUP12 ADD MLOAD PUSH2 0x120 DUP14 ADD MLOAD SWAP7 DUP13 ADD MLOAD SWAP6 SWAP8 PUSH32 0x13BCDC869BA4CC3B484072F6E51565ECEF86851B9BDA3B26DA76B270A9323213 SWAP8 PUSH2 0x85A SWAP8 DUP14 SWAP8 SWAP4 SWAP3 SWAP8 DUP9 MSTORE PUSH1 0x20 DUP9 ADD SWAP7 SWAP1 SWAP7 MSTORE SWAP4 ISZERO ISZERO PUSH1 0x40 DUP8 ADD MSTORE SWAP2 ISZERO ISZERO PUSH1 0x60 DUP7 ADD MSTORE PUSH1 0x80 DUP6 ADD MSTORE PUSH1 0xA0 DUP5 ADD MSTORE PUSH1 0xC0 DUP4 ADD MSTORE PUSH1 0xE0 DUP3 ADD MSTORE PUSH2 0x100 ADD SWAP1 JUMP JUMPDEST PUSH1 0x40 MLOAD DUP1 SWAP2 SUB SWAP1 LOG4 POP POP POP JUMP JUMPDEST PUSH2 0x870 DUP3 PUSH2 0x10AD JUMP JUMPDEST ISZERO DUP1 ISZERO PUSH2 0x87F JUMPI POP PUSH1 0x60 DUP3 ADD MLOAD ISZERO JUMPDEST ISZERO PUSH2 0x8A3 JUMPI PUSH2 0x160 DUP3 ADD MLOAD PUSH1 0xE0 DUP4 ADD MLOAD DUP4 MLOAD PUSH1 0x40 MLOAD TIMESTAMP SWAP4 ISZERO ISZERO SWAP3 SWAP2 PUSH2 0x7CE SWAP2 PUSH2 0x21CB JUMP JUMPDEST PUSH2 0x8AC DUP3 PUSH2 0x10AD JUMP JUMPDEST ISZERO ISZERO PUSH1 0x1 EQ DUP1 ISZERO PUSH2 0x8C3 JUMPI POP PUSH1 0x60 DUP3 ADD MLOAD ISZERO ISZERO PUSH1 0x1 EQ JUMPDEST ISZERO PUSH2 0x939 JUMPI PUSH1 0x1 PUSH2 0x160 DUP4 ADD DUP2 SWAP1 MSTORE PUSH1 0x20 DUP4 ADD MLOAD PUSH1 0x60 DUP5 ADD MLOAD PUSH1 0xA0 DUP6 ADD MLOAD PUSH1 0x40 MLOAD TIMESTAMP SWAP5 SWAP4 PUSH32 0xF98F0A81E8C5EE20EE0675F96744C7BE8F6D2553F0B0F8EBD662DE5CF4FE2AB0 SWAP4 PUSH2 0x92C SWAP4 DUP8 DUP5 MSTORE PUSH1 0x20 DUP5 ADD SWAP3 SWAP1 SWAP3 MSTORE ISZERO ISZERO PUSH1 0x40 DUP4 ADD MSTORE ISZERO ISZERO PUSH1 0x60 DUP3 ADD MSTORE PUSH1 0x80 ADD SWAP1 JUMP JUMPDEST PUSH1 0x40 MLOAD DUP1 SWAP2 SUB SWAP1 LOG2 POP POP POP JUMP JUMPDEST PUSH2 0x942 DUP3 PUSH2 0x10AD JUMP JUMPDEST ISZERO DUP1 ISZERO PUSH2 0x955 JUMPI POP PUSH1 0x60 DUP3 ADD MLOAD ISZERO ISZERO PUSH1 0x1 EQ JUMPDEST ISZERO PUSH2 0x2C6 JUMPI PUSH2 0x160 DUP3 ADD MLOAD PUSH1 0x20 DUP4 ADD MLOAD PUSH1 0x60 DUP5 ADD MLOAD PUSH1 0xA0 DUP6 ADD MLOAD PUSH1 0x40 MLOAD TIMESTAMP SWAP5 ISZERO ISZERO SWAP4 PUSH32 0xF98F0A81E8C5EE20EE0675F96744C7BE8F6D2553F0B0F8EBD662DE5CF4FE2AB0 SWAP4 PUSH2 0x92C SWAP4 DUP8 DUP5 MSTORE PUSH1 0x20 DUP5 ADD SWAP3 SWAP1 SWAP3 MSTORE ISZERO ISZERO PUSH1 0x40 DUP4 ADD MSTORE ISZERO ISZERO PUSH1 0x60 DUP3 ADD MSTORE PUSH1 0x80 ADD SWAP1 JUMP JUMPDEST PUSH2 0x9C4 PUSH2 0x18DA JUMP JUMPDEST PUSH1 0x40 DUP1 MLOAD DUP1 DUP3 ADD DUP3 MSTORE PUSH32 0x2C7507F0B8532E378E9C586581BFD8C9635BD80859FB9AA3FC9C50B1647226F0 DUP2 MSTORE PUSH32 0x9DA173E86EBBA8E2BFE6A65ADFD9BAFB3C9C8CAFB70DC18CC490F89C096227D PUSH1 0x20 DUP1 DUP4 ADD SWAP2 SWAP1 SWAP2 MSTORE SWAP1 DUP4 MSTORE DUP2 MLOAD PUSH1 0x80 DUP1 DUP3 ADD DUP5 MSTORE PUSH32 0x175C7CCDEE24FBC2D01CE03B635F937B0135A3595CFCCE1529E8463E01BAF1B8 DUP3 DUP6 ADD SWAP1 DUP2 MSTORE PUSH32 0x209CB8E4710029511BA8A8B2953D60C1A6CD2F6C272B5869658A95B27C6C28D7 PUSH1 0x60 DUP1 DUP6 ADD SWAP2 SWAP1 SWAP2 MSTORE SWAP1 DUP4 MSTORE DUP5 MLOAD DUP1 DUP7 ADD DUP7 MSTORE PUSH32 0x2BF4159C08C274068497B6FDFB6EEA726A754060A22CF9163C89066B7B014104 DUP2 MSTORE PUSH32 0x24DC73DAA59238FAFDEBD2D073353FBF5754A197D359EF6DD367DFF1C088D5D1 DUP2 DUP7 ADD MSTORE DUP4 DUP6 ADD MSTORE DUP6 DUP5 ADD SWAP3 SWAP1 SWAP3 MSTORE DUP4 MLOAD DUP1 DUP3 ADD DUP6 MSTORE PUSH32 0x198E9393920D483A7260BFB731FB5D25F1AA493335A9E71297E485B7AEF312C2 DUP2 DUP7 ADD SWAP1 DUP2 MSTORE PUSH32 0x1800DEEF121F1E76426A00665E5C4479674322D4F75EDADD46DEBD5CD992F6ED DUP3 DUP6 ADD MSTORE DUP2 MSTORE DUP5 MLOAD DUP1 DUP7 ADD DUP7 MSTORE PUSH32 0x90689D0585FF075EC9E99AD690C3395BC4B313370B38EF355ACDADCD122975B DUP2 MSTORE PUSH32 0x12C85EA5DB8C6DEB4AAB71808DCB408FE3D1E7690C43D37B4CE6CC0166FA7DAA DUP2 DUP7 ADD MSTORE DUP2 DUP6 ADD MSTORE DUP6 DUP6 ADD MSTORE DUP4 MLOAD SWAP1 DUP2 ADD DUP5 MSTORE PUSH32 0x190A11546DDE2F3CB431D9AC970A24BDEDD99026598CC46CD59E7175CE01AFD4 DUP2 DUP6 ADD SWAP1 DUP2 MSTORE PUSH32 0x1BECEC28D994E9BC032ED00343376601B4CA2AC215A8EAC08376D9DAC3B097F4 DUP3 DUP5 ADD MSTORE DUP2 MSTORE DUP4 MLOAD DUP1 DUP6 ADD DUP6 MSTORE PUSH32 0x2ADF71E41F461E56480AE7E59FC57BD7703BF420B4C421A99F6D196EDCF7FFF1 DUP2 MSTORE PUSH32 0x43A22DFB83A585D14B004C9A34D59C775B792FBB2768ABD3058AB7EABAF156C DUP2 DUP6 ADD MSTORE DUP2 DUP5 ADD MSTORE DUP2 DUP6 ADD MSTORE DUP3 MLOAD PUSH1 0x2 DUP1 DUP3 MSTORE SWAP2 DUP2 ADD SWAP1 SWAP4 MSTORE SWAP1 DUP3 ADD JUMPDEST PUSH1 0x40 DUP1 MLOAD DUP1 DUP3 ADD SWAP1 SWAP2 MSTORE PUSH1 0x0 DUP1 DUP3 MSTORE PUSH1 0x20 DUP3 ADD MSTORE DUP2 MSTORE PUSH1 0x20 ADD SWAP1 PUSH1 0x1 SWAP1 SUB SWAP1 DUP2 PUSH2 0xC3D JUMPI POP POP PUSH1 0x80 DUP3 ADD SWAP1 DUP2 MSTORE PUSH1 0x40 DUP1 MLOAD DUP1 DUP3 ADD SWAP1 SWAP2 MSTORE PUSH32 0x2CF1425E0DD260A78C4B6DE9F9668C5D7D74DECA27D914837181A6566AF0F42D DUP2 MSTORE PUSH31 0xF902FC3E82D3AD79B8B55656E540BFB5F2EE3583624601ADE6C0ED3EBEB8F0 PUSH1 0x20 DUP3 ADD MSTORE SWAP1 MLOAD DUP1 MLOAD PUSH1 0x0 SWAP1 PUSH2 0xCCF JUMPI PUSH2 0xCCF PUSH2 0x1F92 JUMP JUMPDEST PUSH1 0x20 MUL PUSH1 0x20 ADD ADD DUP2 SWAP1 MSTORE POP PUSH1 0x40 MLOAD DUP1 PUSH1 0x40 ADD PUSH1 0x40 MSTORE DUP1 PUSH32 0x3DFCCF266AC3BE3E8F1A161A426939E99A99F0981C80B941F964BE65E84B5E6 DUP2 MSTORE PUSH1 0x20 ADD PUSH32 0x2968E3356E1888BDB3AAD900DD72DBC52749B97176F75D2FEBE027D66AF5B0E6 DUP2 MSTORE POP DUP2 PUSH1 0x80 ADD MLOAD PUSH1 0x1 DUP2 MLOAD DUP2 LT PUSH2 0xD46 JUMPI PUSH2 0xD46 PUSH2 0x1F92 JUMP JUMPDEST PUSH1 0x20 MUL PUSH1 0x20 ADD ADD DUP2 SWAP1 MSTORE POP SWAP1 JUMP JUMPDEST PUSH1 0x40 DUP1 MLOAD DUP1 DUP3 ADD SWAP1 SWAP2 MSTORE PUSH1 0x0 DUP1 DUP3 MSTORE PUSH1 0x20 DUP3 ADD MSTORE PUSH2 0xD70 PUSH2 0x192B JUMP JUMPDEST DUP4 MLOAD DUP2 MSTORE PUSH1 0x20 DUP1 DUP6 ADD MLOAD SWAP1 DUP3 ADD MSTORE PUSH1 0x40 DUP2 ADD DUP4 SWAP1 MSTORE PUSH1 0x0 PUSH1 0x60 DUP4 PUSH1 0x80 DUP5 PUSH1 0x7 PUSH2 0x7D0 GAS SUB STATICCALL SWAP1 POP DUP1 DUP1 PUSH2 0xD9F JUMPI INVALID JUMPDEST POP DUP1 PUSH2 0xDE2 JUMPI PUSH1 0x40 MLOAD PUSH3 0x461BCD PUSH1 0xE5 SHL DUP2 MSTORE PUSH1 0x20 PUSH1 0x4 DUP3 ADD MSTORE PUSH1 0x12 PUSH1 0x24 DUP3 ADD MSTORE PUSH18 0x1C185A5C9A5B99CB5B5D5B0B59985A5B1959 PUSH1 0x72 SHL PUSH1 0x44 DUP3 ADD MSTORE PUSH1 0x64 ADD PUSH2 0x619 JUMP JUMPDEST POP POP SWAP3 SWAP2 POP POP JUMP JUMPDEST PUSH1 0x40 DUP1 MLOAD DUP1 DUP3 ADD SWAP1 SWAP2 MSTORE PUSH1 0x0 DUP1 DUP3 MSTORE PUSH1 0x20 DUP3 ADD MSTORE PUSH2 0xE06 PUSH2 0x1949 JUMP JUMPDEST DUP4 MLOAD DUP2 MSTORE PUSH1 0x20 DUP1 DUP6 ADD MLOAD DUP2 DUP4 ADD MSTORE DUP4 MLOAD PUSH1 0x40 DUP4 ADD MSTORE DUP4 ADD MLOAD PUSH1 0x60 DUP1 DUP4 ADD SWAP2 SWAP1 SWAP2 MSTORE PUSH1 0x0 SWAP1 DUP4 PUSH1 0xC0 DUP5 PUSH1 0x6 PUSH2 0x7D0 GAS SUB STATICCALL SWAP1 POP DUP1 DUP1 PUSH2 0xE40 JUMPI INVALID JUMPDEST POP DUP1 PUSH2 0xDE2 JUMPI PUSH1 0x40 MLOAD PUSH3 0x461BCD PUSH1 0xE5 SHL DUP2 MSTORE PUSH1 0x20 PUSH1 0x4 DUP3 ADD MSTORE PUSH1 0x12 PUSH1 0x24 DUP3 ADD MSTORE PUSH18 0x1C185A5C9A5B99CB5859190B59985A5B1959 PUSH1 0x72 SHL PUSH1 0x44 DUP3 ADD MSTORE PUSH1 0x64 ADD PUSH2 0x619 JUMP JUMPDEST PUSH1 0x40 DUP1 MLOAD DUP1 DUP3 ADD SWAP1 SWAP2 MSTORE PUSH1 0x0 DUP1 DUP3 MSTORE PUSH1 0x20 DUP3 ADD MSTORE DUP2 MLOAD PUSH32 0x30644E72E131A029B85045B68181585D97816A916871CA8D3C208C16D87CFD47 SWAP1 ISZERO DUP1 ISZERO PUSH2 0xECA JUMPI POP PUSH1 0x20 DUP4 ADD MLOAD ISZERO JUMPDEST ISZERO PUSH2 0xEEA JUMPI POP POP PUSH1 0x40 DUP1 MLOAD DUP1 DUP3 ADD SWAP1 SWAP2 MSTORE PUSH1 0x0 DUP1 DUP3 MSTORE PUSH1 0x20 DUP3 ADD MSTORE SWAP2 SWAP1 POP JUMP JUMPDEST PUSH1 0x40 MLOAD DUP1 PUSH1 0x40 ADD PUSH1 0x40 MSTORE DUP1 DUP5 PUSH1 0x0 ADD MLOAD DUP2 MSTORE PUSH1 0x20 ADD DUP3 DUP6 PUSH1 0x20 ADD MLOAD PUSH2 0xF0F SWAP2 SWAP1 PUSH2 0x2223 JUMP JUMPDEST PUSH2 0xF19 SWAP1 DUP5 PUSH2 0x2245 JUMP JUMPDEST SWAP1 MSTORE SWAP4 SWAP3 POP POP POP JUMP JUMPDEST PUSH1 0x40 DUP1 MLOAD PUSH1 0x4 DUP1 DUP3 MSTORE PUSH1 0xA0 DUP3 ADD SWAP1 SWAP3 MSTORE PUSH1 0x0 SWAP2 DUP3 SWAP2 SWAP1 DUP2 PUSH1 0x20 ADD JUMPDEST PUSH1 0x40 DUP1 MLOAD DUP1 DUP3 ADD SWAP1 SWAP2 MSTORE PUSH1 0x0 DUP1 DUP3 MSTORE PUSH1 0x20 DUP3 ADD MSTORE DUP2 MSTORE PUSH1 0x20 ADD SWAP1 PUSH1 0x1 SWAP1 SUB SWAP1 DUP2 PUSH2 0xF3D JUMPI POP POP PUSH1 0x40 DUP1 MLOAD PUSH1 0x4 DUP1 DUP3 MSTORE PUSH1 0xA0 DUP3 ADD SWAP1 SWAP3 MSTORE SWAP2 SWAP3 POP PUSH1 0x0 SWAP2 SWAP1 PUSH1 0x20 DUP3 ADD JUMPDEST PUSH2 0xF87 PUSH2 0x1967 JUMP JUMPDEST DUP2 MSTORE PUSH1 0x20 ADD SWAP1 PUSH1 0x1 SWAP1 SUB SWAP1 DUP2 PUSH2 0xF7F JUMPI SWAP1 POP POP SWAP1 POP DUP11 DUP3 PUSH1 0x0 DUP2 MLOAD DUP2 LT PUSH2 0xFB0 JUMPI PUSH2 0xFB0 PUSH2 0x1F92 JUMP JUMPDEST PUSH1 0x20 MUL PUSH1 0x20 ADD ADD DUP2 SWAP1 MSTORE POP DUP9 DUP3 PUSH1 0x1 DUP2 MLOAD DUP2 LT PUSH2 0xFCF JUMPI PUSH2 0xFCF PUSH2 0x1F92 JUMP JUMPDEST PUSH1 0x20 MUL PUSH1 0x20 ADD ADD DUP2 SWAP1 MSTORE POP DUP7 DUP3 PUSH1 0x2 DUP2 MLOAD DUP2 LT PUSH2 0xFEE JUMPI PUSH2 0xFEE PUSH2 0x1F92 JUMP JUMPDEST PUSH1 0x20 MUL PUSH1 0x20 ADD ADD DUP2 SWAP1 MSTORE POP DUP5 DUP3 PUSH1 0x3 DUP2 MLOAD DUP2 LT PUSH2 0x100D JUMPI PUSH2 0x100D PUSH2 0x1F92 JUMP JUMPDEST PUSH1 0x20 MUL PUSH1 0x20 ADD ADD DUP2 SWAP1 MSTORE POP DUP10 DUP2 PUSH1 0x0 DUP2 MLOAD DUP2 LT PUSH2 0x102C JUMPI PUSH2 0x102C PUSH2 0x1F92 JUMP JUMPDEST PUSH1 0x20 MUL PUSH1 0x20 ADD ADD DUP2 SWAP1 MSTORE POP DUP8 DUP2 PUSH1 0x1 DUP2 MLOAD DUP2 LT PUSH2 0x104B JUMPI PUSH2 0x104B PUSH2 0x1F92 JUMP JUMPDEST PUSH1 0x20 MUL PUSH1 0x20 ADD ADD DUP2 SWAP1 MSTORE POP DUP6 DUP2 PUSH1 0x2 DUP2 MLOAD DUP2 LT PUSH2 0x106A JUMPI PUSH2 0x106A PUSH2 0x1F92 JUMP JUMPDEST PUSH1 0x20 MUL PUSH1 0x20 ADD ADD DUP2 SWAP1 MSTORE POP DUP4 DUP2 PUSH1 0x3 DUP2 MLOAD DUP2 LT PUSH2 0x1089 JUMPI PUSH2 0x1089 PUSH2 0x1F92 JUMP JUMPDEST PUSH1 0x20 MUL PUSH1 0x20 ADD ADD DUP2 SWAP1 MSTORE POP PUSH2 0x109E DUP3 DUP3 PUSH2 0x14C1 JUMP JUMPDEST SWAP12 SWAP11 POP POP POP POP POP POP POP POP POP POP POP JUMP JUMPDEST PUSH1 0x0 DUP2 PUSH1 0x60 ADD MLOAD ISZERO ISZERO PUSH1 0x1 ISZERO ISZERO EQ DUP1 ISZERO PUSH2 0x10CD JUMPI POP PUSH1 0xA0 DUP3 ADD MLOAD ISZERO ISZERO PUSH1 0x1 EQ JUMPDEST ISZERO PUSH2 0x120F JUMPI PUSH1 0x8 SLOAD PUSH1 0x80 DUP4 ADD MLOAD PUSH1 0x60 SWAP1 DUP2 ADD MLOAD MLOAD PUSH1 0x9 SLOAD PUSH1 0xC0 DUP7 ADD MLOAD SWAP1 SWAP3 ADD MLOAD MLOAD PUSH1 0x20 DUP7 ADD MLOAD SWAP2 SWAP1 SWAP4 EQ SWAP3 SWAP1 SWAP2 EQ SWAP1 PUSH1 0x0 SWAP1 DUP2 SUB PUSH2 0x111E JUMPI PUSH1 0x5 PUSH1 0x0 JUMPDEST ADD SLOAD PUSH1 0x40 DUP7 ADD MLOAD PUSH1 0x60 ADD MLOAD MLOAD EQ SWAP1 POP PUSH2 0x114F JUMP JUMPDEST DUP5 PUSH1 0x20 ADD MLOAD PUSH1 0x1 SUB PUSH2 0x1133 JUMPI PUSH1 0x6 PUSH1 0x0 PUSH2 0x110A JUMP JUMPDEST DUP5 PUSH1 0x20 ADD MLOAD PUSH1 0x2 SUB PUSH2 0x114F JUMPI POP PUSH1 0x7 SLOAD PUSH1 0x40 DUP6 ADD MLOAD PUSH1 0x60 ADD MLOAD MLOAD EQ JUMPDEST PUSH1 0x40 DUP1 DUP7 ADD MLOAD DUP1 MLOAD PUSH1 0x20 DUP3 ADD MLOAD SWAP3 DUP3 ADD MLOAD PUSH1 0x60 SWAP1 SWAP3 ADD MLOAD PUSH2 0x1172 SWAP4 SWAP2 SWAP3 SWAP1 PUSH2 0x136 JUMP JUMPDEST DUP1 ISZERO PUSH2 0x119A JUMPI POP PUSH1 0x80 DUP6 ADD MLOAD DUP1 MLOAD PUSH1 0x20 DUP3 ADD MLOAD PUSH1 0x40 DUP4 ADD MLOAD PUSH1 0x60 SWAP1 SWAP4 ADD MLOAD PUSH2 0x119A SWAP4 SWAP1 PUSH2 0x136 JUMP JUMPDEST DUP1 ISZERO PUSH2 0x11C2 JUMPI POP PUSH1 0xC0 DUP6 ADD MLOAD DUP1 MLOAD PUSH1 0x20 DUP3 ADD MLOAD PUSH1 0x40 DUP4 ADD MLOAD PUSH1 0x60 SWAP1 SWAP4 ADD MLOAD PUSH2 0x11C2 SWAP4 SWAP1 PUSH2 0x136 JUMP JUMPDEST DUP1 ISZERO PUSH2 0x11EB JUMPI POP PUSH2 0x100 DUP6 ADD MLOAD DUP1 MLOAD PUSH1 0x20 DUP3 ADD MLOAD PUSH1 0x40 DUP4 ADD MLOAD PUSH1 0x60 SWAP1 SWAP4 ADD MLOAD PUSH2 0x11EB SWAP4 SWAP1 PUSH2 0x136 JUMP JUMPDEST DUP1 ISZERO PUSH2 0x11F4 JUMPI POP DUP3 JUMPDEST DUP1 ISZERO PUSH2 0x11FD JUMPI POP DUP2 JUMPDEST DUP1 ISZERO PUSH2 0x1206 JUMPI POP DUP1 JUMPDEST SWAP6 SWAP5 POP POP POP POP POP JUMP JUMPDEST PUSH1 0x60 DUP3 ADD MLOAD ISZERO ISZERO PUSH1 0x1 EQ DUP1 ISZERO PUSH2 0x1227 JUMPI POP PUSH1 0xA0 DUP3 ADD MLOAD ISZERO JUMPDEST ISZERO PUSH2 0x131F JUMPI PUSH1 0x8 SLOAD PUSH1 0x80 DUP4 ADD MLOAD PUSH1 0x60 ADD MLOAD MLOAD PUSH1 0x20 DUP5 ADD MLOAD SWAP2 EQ SWAP1 PUSH1 0x0 SWAP1 DUP2 SUB PUSH2 0x1263 JUMPI PUSH1 0x5 PUSH1 0x0 JUMPDEST ADD SLOAD PUSH1 0x40 DUP6 ADD MLOAD PUSH1 0x60 ADD MLOAD MLOAD EQ SWAP1 POP PUSH2 0x1294 JUMP JUMPDEST DUP4 PUSH1 0x20 ADD MLOAD PUSH1 0x1 SUB PUSH2 0x1278 JUMPI PUSH1 0x6 PUSH1 0x0 PUSH2 0x124F JUMP JUMPDEST DUP4 PUSH1 0x20 ADD MLOAD PUSH1 0x2 SUB PUSH2 0x1294 JUMPI POP PUSH1 0x7 SLOAD PUSH1 0x40 DUP5 ADD MLOAD PUSH1 0x60 ADD MLOAD MLOAD EQ JUMPDEST PUSH1 0x40 DUP1 DUP6 ADD MLOAD DUP1 MLOAD PUSH1 0x20 DUP3 ADD MLOAD SWAP3 DUP3 ADD MLOAD PUSH1 0x60 SWAP1 SWAP3 ADD MLOAD PUSH2 0x12B7 SWAP4 SWAP2 SWAP3 SWAP1 PUSH2 0x136 JUMP JUMPDEST DUP1 ISZERO PUSH2 0x12DF JUMPI POP PUSH1 0x80 DUP5 ADD MLOAD DUP1 MLOAD PUSH1 0x20 DUP3 ADD MLOAD PUSH1 0x40 DUP4 ADD MLOAD PUSH1 0x60 SWAP1 SWAP4 ADD MLOAD PUSH2 0x12DF SWAP4 SWAP1 PUSH2 0x136 JUMP JUMPDEST DUP1 ISZERO PUSH2 0x1308 JUMPI POP PUSH2 0x100 DUP5 ADD MLOAD DUP1 MLOAD PUSH1 0x20 DUP3 ADD MLOAD PUSH1 0x40 DUP4 ADD MLOAD PUSH1 0x60 SWAP1 SWAP4 ADD MLOAD PUSH2 0x1308 SWAP4 SWAP1 PUSH2 0x136 JUMP JUMPDEST DUP1 ISZERO PUSH2 0x1311 JUMPI POP DUP2 JUMPDEST DUP1 ISZERO PUSH2 0x239 JUMPI POP SWAP4 SWAP3 POP POP POP JUMP JUMPDEST PUSH1 0x60 DUP3 ADD MLOAD ISZERO DUP1 ISZERO PUSH2 0x1337 JUMPI POP PUSH1 0xA0 DUP3 ADD MLOAD ISZERO ISZERO PUSH1 0x1 EQ JUMPDEST ISZERO PUSH2 0x13EF JUMPI PUSH1 0x9 SLOAD PUSH1 0xC0 DUP4 ADD MLOAD PUSH1 0x60 ADD MLOAD MLOAD PUSH1 0x20 DUP5 ADD MLOAD SWAP2 EQ SWAP1 PUSH1 0x0 SWAP1 DUP2 SUB PUSH2 0x1373 JUMPI PUSH1 0x5 PUSH1 0x0 JUMPDEST ADD SLOAD PUSH1 0x40 DUP6 ADD MLOAD PUSH1 0x60 ADD MLOAD MLOAD EQ SWAP1 POP PUSH2 0x13A4 JUMP JUMPDEST DUP4 PUSH1 0x20 ADD MLOAD PUSH1 0x1 SUB PUSH2 0x1388 JUMPI PUSH1 0x6 PUSH1 0x0 PUSH2 0x135F JUMP JUMPDEST DUP4 PUSH1 0x20 ADD MLOAD PUSH1 0x2 SUB PUSH2 0x13A4 JUMPI POP PUSH1 0x7 SLOAD PUSH1 0x40 DUP5 ADD MLOAD PUSH1 0x60 ADD MLOAD MLOAD EQ JUMPDEST PUSH1 0x40 DUP1 DUP6 ADD MLOAD DUP1 MLOAD PUSH1 0x20 DUP3 ADD MLOAD SWAP3 DUP3 ADD MLOAD PUSH1 0x60 SWAP1 SWAP3 ADD MLOAD PUSH2 0x13C7 SWAP4 SWAP2 SWAP3 SWAP1 PUSH2 0x136 JUMP JUMPDEST DUP1 ISZERO PUSH2 0x12DF JUMPI POP PUSH1 0xC0 DUP5 ADD MLOAD DUP1 MLOAD PUSH1 0x20 DUP3 ADD MLOAD PUSH1 0x40 DUP4 ADD MLOAD PUSH1 0x60 SWAP1 SWAP4 ADD MLOAD PUSH2 0x12DF SWAP4 SWAP1 PUSH2 0x136 JUMP JUMPDEST PUSH1 0x60 DUP3 ADD MLOAD ISZERO DUP1 ISZERO PUSH2 0x1403 JUMPI POP PUSH1 0xA0 DUP3 ADD MLOAD ISZERO JUMPDEST ISZERO PUSH2 0x14BC JUMPI PUSH1 0x0 DUP3 PUSH1 0x20 ADD MLOAD PUSH1 0x0 SUB PUSH2 0x142F JUMPI PUSH1 0x5 PUSH1 0x0 JUMPDEST ADD SLOAD PUSH1 0x40 DUP5 ADD MLOAD PUSH1 0x60 ADD MLOAD MLOAD EQ SWAP1 POP PUSH2 0x1460 JUMP JUMPDEST DUP3 PUSH1 0x20 ADD MLOAD PUSH1 0x1 SUB PUSH2 0x1444 JUMPI PUSH1 0x6 PUSH1 0x0 PUSH2 0x141B JUMP JUMPDEST DUP3 PUSH1 0x20 ADD MLOAD PUSH1 0x2 SUB PUSH2 0x1460 JUMPI POP PUSH1 0x7 SLOAD PUSH1 0x40 DUP4 ADD MLOAD PUSH1 0x60 ADD MLOAD MLOAD EQ JUMPDEST PUSH1 0x40 DUP1 DUP5 ADD MLOAD DUP1 MLOAD PUSH1 0x20 DUP3 ADD MLOAD SWAP3 DUP3 ADD MLOAD PUSH1 0x60 SWAP1 SWAP3 ADD MLOAD PUSH2 0x1483 SWAP4 SWAP2 SWAP3 SWAP1 PUSH2 0x136 JUMP JUMPDEST DUP1 ISZERO PUSH2 0x14AC JUMPI POP PUSH2 0x100 DUP4 ADD MLOAD DUP1 MLOAD PUSH1 0x20 DUP3 ADD MLOAD PUSH1 0x40 DUP4 ADD MLOAD PUSH1 0x60 SWAP1 SWAP4 ADD MLOAD PUSH2 0x14AC SWAP4 SWAP1 PUSH2 0x136 JUMP JUMPDEST DUP1 ISZERO PUSH2 0x14B5 JUMPI POP DUP1 JUMPDEST SWAP4 SWAP3 POP POP POP JUMP JUMPDEST SWAP2 SWAP1 POP JUMP JUMPDEST PUSH1 0x0 DUP2 MLOAD DUP4 MLOAD EQ PUSH2 0x150D JUMPI PUSH1 0x40 MLOAD PUSH3 0x461BCD PUSH1 0xE5 SHL DUP2 MSTORE PUSH1 0x20 PUSH1 0x4 DUP3 ADD MSTORE PUSH1 0x16 PUSH1 0x24 DUP3 ADD MSTORE PUSH22 0x1C185A5C9A5B99CB5B195B99DD1A1CCB59985A5B1959 PUSH1 0x52 SHL PUSH1 0x44 DUP3 ADD MSTORE PUSH1 0x64 ADD PUSH2 0x619 JUMP JUMPDEST DUP3 MLOAD PUSH1 0x0 PUSH2 0x151C DUP3 PUSH1 0x6 PUSH2 0x2258 JUMP JUMPDEST SWAP1 POP PUSH1 0x0 DUP2 PUSH1 0x1 PUSH1 0x1 PUSH1 0x40 SHL SUB DUP2 GT ISZERO PUSH2 0x1538 JUMPI PUSH2 0x1538 PUSH2 0x19D8 JUMP JUMPDEST PUSH1 0x40 MLOAD SWAP1 DUP1 DUP3 MSTORE DUP1 PUSH1 0x20 MUL PUSH1 0x20 ADD DUP3 ADD PUSH1 0x40 MSTORE DUP1 ISZERO PUSH2 0x1561 JUMPI DUP2 PUSH1 0x20 ADD PUSH1 0x20 DUP3 MUL DUP1 CALLDATASIZE DUP4 CALLDATACOPY ADD SWAP1 POP JUMPDEST POP SWAP1 POP PUSH1 0x0 JUMPDEST DUP4 DUP2 LT ISZERO PUSH2 0x1792 JUMPI DUP7 DUP2 DUP2 MLOAD DUP2 LT PUSH2 0x1581 JUMPI PUSH2 0x1581 PUSH2 0x1F92 JUMP JUMPDEST PUSH1 0x20 MUL PUSH1 0x20 ADD ADD MLOAD PUSH1 0x0 ADD MLOAD DUP3 DUP3 PUSH1 0x6 PUSH2 0x159B SWAP2 SWAP1 PUSH2 0x2258 JUMP JUMPDEST PUSH2 0x15A6 SWAP1 PUSH1 0x0 PUSH2 0x2210 JUMP JUMPDEST DUP2 MLOAD DUP2 LT PUSH2 0x15B6 JUMPI PUSH2 0x15B6 PUSH2 0x1F92 JUMP JUMPDEST PUSH1 0x20 MUL PUSH1 0x20 ADD ADD DUP2 DUP2 MSTORE POP POP DUP7 DUP2 DUP2 MLOAD DUP2 LT PUSH2 0x15D4 JUMPI PUSH2 0x15D4 PUSH2 0x1F92 JUMP JUMPDEST PUSH1 0x20 MUL PUSH1 0x20 ADD ADD MLOAD PUSH1 0x20 ADD MLOAD DUP3 DUP3 PUSH1 0x6 PUSH2 0x15EE SWAP2 SWAP1 PUSH2 0x2258 JUMP JUMPDEST PUSH2 0x15F9 SWAP1 PUSH1 0x1 PUSH2 0x2210 JUMP JUMPDEST DUP2 MLOAD DUP2 LT PUSH2 0x1609 JUMPI PUSH2 0x1609 PUSH2 0x1F92 JUMP JUMPDEST PUSH1 0x20 MUL PUSH1 0x20 ADD ADD DUP2 DUP2 MSTORE POP POP DUP6 DUP2 DUP2 MLOAD DUP2 LT PUSH2 0x1627 JUMPI PUSH2 0x1627 PUSH2 0x1F92 JUMP JUMPDEST PUSH1 0x20 SWAP1 DUP2 MUL SWAP2 SWAP1 SWAP2 ADD ADD MLOAD MLOAD MLOAD DUP3 PUSH2 0x1640 DUP4 PUSH1 0x6 PUSH2 0x2258 JUMP JUMPDEST PUSH2 0x164B SWAP1 PUSH1 0x2 PUSH2 0x2210 JUMP JUMPDEST DUP2 MLOAD DUP2 LT PUSH2 0x165B JUMPI PUSH2 0x165B PUSH2 0x1F92 JUMP JUMPDEST PUSH1 0x20 MUL PUSH1 0x20 ADD ADD DUP2 DUP2 MSTORE POP POP DUP6 DUP2 DUP2 MLOAD DUP2 LT PUSH2 0x1679 JUMPI PUSH2 0x1679 PUSH2 0x1F92 JUMP JUMPDEST PUSH1 0x20 SWAP1 DUP2 MUL SWAP2 SWAP1 SWAP2 ADD DUP2 ADD MLOAD MLOAD ADD MLOAD DUP3 PUSH2 0x1694 DUP4 PUSH1 0x6 PUSH2 0x2258 JUMP JUMPDEST PUSH2 0x169F SWAP1 PUSH1 0x3 PUSH2 0x2210 JUMP JUMPDEST DUP2 MLOAD DUP2 LT PUSH2 0x16AF JUMPI PUSH2 0x16AF PUSH2 0x1F92 JUMP JUMPDEST PUSH1 0x20 MUL PUSH1 0x20 ADD ADD DUP2 DUP2 MSTORE POP POP DUP6 DUP2 DUP2 MLOAD DUP2 LT PUSH2 0x16CD JUMPI PUSH2 0x16CD PUSH2 0x1F92 JUMP JUMPDEST PUSH1 0x20 MUL PUSH1 0x20 ADD ADD MLOAD PUSH1 0x20 ADD MLOAD PUSH1 0x0 PUSH1 0x2 DUP2 LT PUSH2 0x16EB JUMPI PUSH2 0x16EB PUSH2 0x1F92 JUMP JUMPDEST PUSH1 0x20 MUL ADD MLOAD DUP3 PUSH2 0x16FC DUP4 PUSH1 0x6 PUSH2 0x2258 JUMP JUMPDEST PUSH2 0x1707 SWAP1 PUSH1 0x4 PUSH2 0x2210 JUMP JUMPDEST DUP2 MLOAD DUP2 LT PUSH2 0x1717 JUMPI PUSH2 0x1717 PUSH2 0x1F92 JUMP JUMPDEST PUSH1 0x20 MUL PUSH1 0x20 ADD ADD DUP2 DUP2 MSTORE POP POP DUP6 DUP2 DUP2 MLOAD DUP2 LT PUSH2 0x1735 JUMPI PUSH2 0x1735 PUSH2 0x1F92 JUMP JUMPDEST PUSH1 0x20 MUL PUSH1 0x20 ADD ADD MLOAD PUSH1 0x20 ADD MLOAD PUSH1 0x1 PUSH1 0x2 DUP2 LT PUSH2 0x1753 JUMPI PUSH2 0x1753 PUSH2 0x1F92 JUMP JUMPDEST PUSH1 0x20 MUL ADD MLOAD DUP3 PUSH2 0x1764 DUP4 PUSH1 0x6 PUSH2 0x2258 JUMP JUMPDEST PUSH2 0x176F SWAP1 PUSH1 0x5 PUSH2 0x2210 JUMP JUMPDEST DUP2 MLOAD DUP2 LT PUSH2 0x177F JUMPI PUSH2 0x177F PUSH2 0x1F92 JUMP JUMPDEST PUSH1 0x20 SWAP1 DUP2 MUL SWAP2 SWAP1 SWAP2 ADD ADD MSTORE PUSH1 0x1 ADD PUSH2 0x1567 JUMP JUMPDEST POP PUSH2 0x179B PUSH2 0x1987 JUMP JUMPDEST PUSH1 0x0 PUSH1 0x20 DUP3 PUSH1 0x20 DUP7 MUL PUSH1 0x20 DUP7 ADD PUSH1 0x8 PUSH2 0x7D0 GAS SUB STATICCALL SWAP1 POP DUP1 DUP1 PUSH2 0x17BA JUMPI INVALID JUMPDEST POP DUP1 PUSH2 0x1800 JUMPI PUSH1 0x40 MLOAD PUSH3 0x461BCD PUSH1 0xE5 SHL DUP2 MSTORE PUSH1 0x20 PUSH1 0x4 DUP3 ADD MSTORE PUSH1 0x15 PUSH1 0x24 DUP3 ADD MSTORE PUSH21 0x1C185A5C9A5B99CB5BDC18DBD9194B59985A5B1959 PUSH1 0x5A SHL PUSH1 0x44 DUP3 ADD MSTORE PUSH1 0x64 ADD PUSH2 0x619 JUMP JUMPDEST POP MLOAD ISZERO ISZERO SWAP7 SWAP6 POP POP POP POP POP POP JUMP JUMPDEST PUSH1 0x40 DUP1 MLOAD PUSH1 0xA0 DUP2 ADD SWAP1 SWAP2 MSTORE PUSH1 0x0 PUSH1 0x60 DUP3 ADD DUP2 DUP2 MSTORE PUSH1 0x80 DUP4 ADD SWAP2 SWAP1 SWAP2 MSTORE DUP2 MSTORE PUSH1 0x20 DUP2 ADD PUSH2 0x1838 PUSH2 0x1967 JUMP JUMPDEST DUP2 MSTORE PUSH1 0x20 ADD PUSH2 0x185A PUSH1 0x40 MLOAD DUP1 PUSH1 0x40 ADD PUSH1 0x40 MSTORE DUP1 PUSH1 0x0 DUP2 MSTORE PUSH1 0x20 ADD PUSH1 0x0 DUP2 MSTORE POP SWAP1 JUMP JUMPDEST SWAP1 MSTORE SWAP1 JUMP JUMPDEST POP DUP1 SLOAD PUSH2 0x186B SWAP1 PUSH2 0x1FA8 JUMP JUMPDEST PUSH1 0x0 DUP3 SSTORE DUP1 PUSH1 0x1F LT PUSH2 0x187B JUMPI POP POP JUMP JUMPDEST PUSH1 0x1F ADD PUSH1 0x20 SWAP1 DIV SWAP1 PUSH1 0x0 MSTORE PUSH1 0x20 PUSH1 0x0 KECCAK256 SWAP1 DUP2 ADD SWAP1 PUSH2 0x1899 SWAP2 SWAP1 PUSH2 0x19A5 JUMP JUMPDEST POP JUMP JUMPDEST DUP3 PUSH1 0x1 DUP2 ADD SWAP3 DUP3 ISZERO PUSH2 0x18CA JUMPI SWAP2 PUSH1 0x20 MUL DUP3 ADD JUMPDEST DUP3 DUP2 GT ISZERO PUSH2 0x18CA JUMPI DUP3 MLOAD DUP3 SSTORE SWAP2 PUSH1 0x20 ADD SWAP2 SWAP1 PUSH1 0x1 ADD SWAP1 PUSH2 0x18AF JUMP JUMPDEST POP PUSH2 0x18D6 SWAP3 SWAP2 POP PUSH2 0x19A5 JUMP JUMPDEST POP SWAP1 JUMP JUMPDEST PUSH1 0x40 DUP1 MLOAD PUSH1 0xE0 DUP2 ADD SWAP1 SWAP2 MSTORE PUSH1 0x0 PUSH1 0xA0 DUP3 ADD DUP2 DUP2 MSTORE PUSH1 0xC0 DUP4 ADD SWAP2 SWAP1 SWAP2 MSTORE DUP2 MSTORE PUSH1 0x20 DUP2 ADD PUSH2 0x1904 PUSH2 0x1967 JUMP JUMPDEST DUP2 MSTORE PUSH1 0x20 ADD PUSH2 0x1911 PUSH2 0x1967 JUMP JUMPDEST DUP2 MSTORE PUSH1 0x20 ADD PUSH2 0x191E PUSH2 0x1967 JUMP JUMPDEST DUP2 MSTORE PUSH1 0x20 ADD PUSH1 0x60 DUP2 MSTORE POP SWAP1 JUMP JUMPDEST PUSH1 0x40 MLOAD DUP1 PUSH1 0x60 ADD PUSH1 0x40 MSTORE DUP1 PUSH1 0x3 SWAP1 PUSH1 0x20 DUP3 MUL DUP1 CALLDATASIZE DUP4 CALLDATACOPY POP SWAP2 SWAP3 SWAP2 POP POP JUMP JUMPDEST PUSH1 0x40 MLOAD DUP1 PUSH1 0x80 ADD PUSH1 0x40 MSTORE DUP1 PUSH1 0x4 SWAP1 PUSH1 0x20 DUP3 MUL DUP1 CALLDATASIZE DUP4 CALLDATACOPY POP SWAP2 SWAP3 SWAP2 POP POP JUMP JUMPDEST PUSH1 0x40 MLOAD DUP1 PUSH1 0x40 ADD PUSH1 0x40 MSTORE DUP1 PUSH2 0x197A PUSH2 0x19BA JUMP JUMPDEST DUP2 MSTORE PUSH1 0x20 ADD PUSH2 0x185A PUSH2 0x19BA JUMP JUMPDEST PUSH1 0x40 MLOAD DUP1 PUSH1 0x20 ADD PUSH1 0x40 MSTORE DUP1 PUSH1 0x1 SWAP1 PUSH1 0x20 DUP3 MUL DUP1 CALLDATASIZE DUP4 CALLDATACOPY POP SWAP2 SWAP3 SWAP2 POP POP JUMP JUMPDEST JUMPDEST DUP1 DUP3 GT ISZERO PUSH2 0x18D6 JUMPI PUSH1 0x0 DUP2 SSTORE PUSH1 0x1 ADD PUSH2 0x19A6 JUMP JUMPDEST PUSH1 0x40 MLOAD DUP1 PUSH1 0x40 ADD PUSH1 0x40 MSTORE DUP1 PUSH1 0x2 SWAP1 PUSH1 0x20 DUP3 MUL DUP1 CALLDATASIZE DUP4 CALLDATACOPY POP SWAP2 SWAP3 SWAP2 POP POP JUMP JUMPDEST PUSH4 0x4E487B71 PUSH1 0xE0 SHL PUSH1 0x0 MSTORE PUSH1 0x41 PUSH1 0x4 MSTORE PUSH1 0x24 PUSH1 0x0 REVERT JUMPDEST PUSH1 0x40 MLOAD PUSH2 0x180 DUP2 ADD PUSH1 0x1 PUSH1 0x1 PUSH1 0x40 SHL SUB DUP2 GT DUP3 DUP3 LT OR ISZERO PUSH2 0x1A11 JUMPI PUSH2 0x1A11 PUSH2 0x19D8 JUMP JUMPDEST PUSH1 0x40 MSTORE SWAP1 JUMP JUMPDEST PUSH1 0x40 DUP1 MLOAD SWAP1 DUP2 ADD PUSH1 0x1 PUSH1 0x1 PUSH1 0x40 SHL SUB DUP2 GT DUP3 DUP3 LT OR ISZERO PUSH2 0x1A11 JUMPI PUSH2 0x1A11 PUSH2 0x19D8 JUMP JUMPDEST PUSH1 0x0 DUP3 PUSH1 0x1F DUP4 ADD SLT PUSH2 0x1A4A JUMPI PUSH1 0x0 DUP1 REVERT JUMPDEST PUSH2 0x1A52 PUSH2 0x1A17 JUMP JUMPDEST DUP1 PUSH1 0x40 DUP5 ADD DUP6 DUP2 GT ISZERO PUSH2 0x1A64 JUMPI PUSH1 0x0 DUP1 REVERT JUMPDEST DUP5 JUMPDEST DUP2 DUP2 LT ISZERO PUSH2 0x1A7E JUMPI DUP1 CALLDATALOAD DUP5 MSTORE PUSH1 0x20 SWAP4 DUP5 ADD SWAP4 ADD PUSH2 0x1A66 JUMP JUMPDEST POP SWAP1 SWAP6 SWAP5 POP POP POP POP POP JUMP JUMPDEST PUSH1 0x0 DUP3 PUSH1 0x1F DUP4 ADD SLT PUSH2 0x1A9A JUMPI PUSH1 0x0 DUP1 REVERT JUMPDEST PUSH2 0x1AA2 PUSH2 0x1A17 JUMP JUMPDEST DUP1 PUSH1 0x80 DUP5 ADD DUP6 DUP2 GT ISZERO PUSH2 0x1AB4 JUMPI PUSH1 0x0 DUP1 REVERT JUMPDEST DUP5 JUMPDEST DUP2 DUP2 LT ISZERO PUSH2 0x1A7E JUMPI PUSH2 0x1AC8 DUP8 DUP3 PUSH2 0x1A39 JUMP JUMPDEST DUP5 MSTORE PUSH1 0x20 SWAP1 SWAP4 ADD SWAP3 PUSH1 0x40 ADD PUSH2 0x1AB6 JUMP JUMPDEST PUSH1 0x0 DUP3 PUSH1 0x1F DUP4 ADD SLT PUSH2 0x1AE9 JUMPI PUSH1 0x0 DUP1 REVERT JUMPDEST PUSH1 0x40 MLOAD PUSH1 0x20 DUP1 DUP3 ADD DUP3 DUP2 LT PUSH1 0x1 PUSH1 0x1 PUSH1 0x40 SHL SUB DUP3 GT OR ISZERO PUSH2 0x1B0C JUMPI PUSH2 0x1B0C PUSH2 0x19D8 JUMP JUMPDEST PUSH1 0x40 MSTORE DUP2 PUSH1 0x20 DUP6 ADD DUP7 DUP2 GT ISZERO PUSH2 0x1B21 JUMPI PUSH1 0x0 DUP1 REVERT JUMPDEST DUP6 JUMPDEST DUP2 DUP2 LT ISZERO PUSH2 0x1B3A JUMPI DUP1 CALLDATALOAD DUP4 MSTORE SWAP2 DUP4 ADD SWAP2 DUP4 ADD PUSH2 0x1B23 JUMP JUMPDEST POP SWAP3 SWAP7 SWAP6 POP POP POP POP POP POP JUMP JUMPDEST PUSH1 0x0 DUP1 PUSH1 0x0 DUP1 PUSH2 0x120 DUP6 DUP8 SUB SLT ISZERO PUSH2 0x1B5D JUMPI PUSH1 0x0 DUP1 REVERT JUMPDEST PUSH2 0x1B67 DUP7 DUP7 PUSH2 0x1A39 JUMP JUMPDEST SWAP4 POP PUSH2 0x1B76 DUP7 PUSH1 0x40 DUP8 ADD PUSH2 0x1A89 JUMP JUMPDEST SWAP3 POP PUSH2 0x1B85 DUP7 PUSH1 0xC0 DUP8 ADD PUSH2 0x1A39 JUMP JUMPDEST SWAP2 POP PUSH2 0x1B95 DUP7 PUSH2 0x100 DUP8 ADD PUSH2 0x1AD8 JUMP JUMPDEST SWAP1 POP SWAP3 SWAP6 SWAP2 SWAP5 POP SWAP3 POP JUMP JUMPDEST DUP1 CALLDATALOAD PUSH1 0x1 PUSH1 0x1 PUSH1 0xA0 SHL SUB DUP2 AND DUP2 EQ PUSH2 0x14BC JUMPI PUSH1 0x0 DUP1 REVERT JUMPDEST PUSH1 0x0 DUP1 PUSH1 0x40 DUP4 DUP6 SUB SLT ISZERO PUSH2 0x1BCA JUMPI PUSH1 0x0 DUP1 REVERT JUMPDEST PUSH2 0x1BD3 DUP4 PUSH2 0x1BA0 JUMP JUMPDEST SWAP5 PUSH1 0x20 SWAP4 SWAP1 SWAP4 ADD CALLDATALOAD SWAP4 POP POP POP JUMP JUMPDEST PUSH1 0x0 DUP3 PUSH1 0x1F DUP4 ADD SLT PUSH2 0x1BF2 JUMPI PUSH1 0x0 DUP1 REVERT JUMPDEST DUP2 CALLDATALOAD PUSH1 0x1 PUSH1 0x1 PUSH1 0x40 SHL SUB DUP1 DUP3 GT ISZERO PUSH2 0x1C0C JUMPI PUSH2 0x1C0C PUSH2 0x19D8 JUMP JUMPDEST PUSH1 0x40 MLOAD PUSH1 0x1F DUP4 ADD PUSH1 0x1F NOT SWAP1 DUP2 AND PUSH1 0x3F ADD AND DUP2 ADD SWAP1 DUP3 DUP3 GT DUP2 DUP4 LT OR ISZERO PUSH2 0x1C34 JUMPI PUSH2 0x1C34 PUSH2 0x19D8 JUMP JUMPDEST DUP2 PUSH1 0x40 MSTORE DUP4 DUP2 MSTORE DUP7 PUSH1 0x20 DUP6 DUP9 ADD ADD GT ISZERO PUSH2 0x1C4D JUMPI PUSH1 0x0 DUP1 REVERT JUMPDEST DUP4 PUSH1 0x20 DUP8 ADD PUSH1 0x20 DUP4 ADD CALLDATACOPY PUSH1 0x0 PUSH1 0x20 DUP6 DUP4 ADD ADD MSTORE DUP1 SWAP5 POP POP POP POP POP SWAP3 SWAP2 POP POP JUMP JUMPDEST PUSH1 0x0 PUSH2 0x120 DUP3 DUP5 SUB SLT ISZERO PUSH2 0x1C80 JUMPI PUSH1 0x0 DUP1 REVERT JUMPDEST PUSH1 0x40 MLOAD PUSH1 0x80 DUP2 ADD DUP2 DUP2 LT PUSH1 0x1 PUSH1 0x1 PUSH1 0x40 SHL SUB DUP3 GT OR ISZERO PUSH2 0x1CA2 JUMPI PUSH2 0x1CA2 PUSH2 0x19D8 JUMP JUMPDEST PUSH1 0x40 MSTORE SWAP1 POP DUP1 PUSH2 0x1CB2 DUP5 DUP5 PUSH2 0x1A39 JUMP JUMPDEST DUP2 MSTORE PUSH2 0x1CC1 DUP5 PUSH1 0x40 DUP6 ADD PUSH2 0x1A89 JUMP JUMPDEST PUSH1 0x20 DUP3 ADD MSTORE PUSH2 0x1CD3 DUP5 PUSH1 0xC0 DUP6 ADD PUSH2 0x1A39 JUMP JUMPDEST PUSH1 0x40 DUP3 ADD MSTORE PUSH2 0x1CE6 DUP5 PUSH2 0x100 DUP6 ADD PUSH2 0x1AD8 JUMP JUMPDEST PUSH1 0x60 DUP3 ADD MSTORE POP SWAP3 SWAP2 POP POP JUMP JUMPDEST DUP1 CALLDATALOAD DUP1 ISZERO ISZERO DUP2 EQ PUSH2 0x14BC JUMPI PUSH1 0x0 DUP1 REVERT JUMPDEST PUSH1 0x0 PUSH1 0x60 DUP3 DUP5 SUB SLT ISZERO PUSH2 0x1D14 JUMPI PUSH1 0x0 DUP1 REVERT JUMPDEST PUSH1 0x40 MLOAD PUSH1 0x60 DUP2 ADD DUP2 DUP2 LT PUSH1 0x1 PUSH1 0x1 PUSH1 0x40 SHL SUB DUP3 GT OR ISZERO PUSH2 0x1D36 JUMPI PUSH2 0x1D36 PUSH2 0x19D8 JUMP JUMPDEST DUP1 PUSH1 0x40 MSTORE POP DUP1 SWAP2 POP DUP3 CALLDATALOAD DUP2 MSTORE PUSH1 0x20 DUP4 ADD CALLDATALOAD PUSH1 0x20 DUP3 ADD MSTORE PUSH1 0x40 DUP4 ADD CALLDATALOAD PUSH1 0x40 DUP3 ADD MSTORE POP SWAP3 SWAP2 POP POP JUMP JUMPDEST PUSH1 0x0 DUP1 PUSH1 0x80 DUP4 DUP6 SUB SLT ISZERO PUSH2 0x1D70 JUMPI PUSH1 0x0 DUP1 REVERT JUMPDEST DUP3 CALLDATALOAD PUSH1 0x1 PUSH1 0x1 PUSH1 0x40 SHL SUB DUP1 DUP3 GT ISZERO PUSH2 0x1D87 JUMPI PUSH1 0x0 DUP1 REVERT JUMPDEST SWAP1 DUP5 ADD SWAP1 PUSH2 0x580 DUP3 DUP8 SUB SLT ISZERO PUSH2 0x1D9C JUMPI PUSH1 0x0 DUP1 REVERT JUMPDEST PUSH2 0x1DA4 PUSH2 0x19EE JUMP JUMPDEST DUP3 CALLDATALOAD DUP3 DUP2 GT ISZERO PUSH2 0x1DB3 JUMPI PUSH1 0x0 DUP1 REVERT JUMPDEST PUSH2 0x1DBF DUP9 DUP3 DUP7 ADD PUSH2 0x1BE1 JUMP JUMPDEST DUP3 MSTORE POP PUSH1 0x20 DUP4 ADD CALLDATALOAD PUSH1 0x20 DUP3 ADD MSTORE PUSH2 0x1DD9 DUP8 PUSH1 0x40 DUP6 ADD PUSH2 0x1C6D JUMP JUMPDEST PUSH1 0x40 DUP3 ADD MSTORE PUSH2 0x160 PUSH2 0x1DEC DUP2 DUP6 ADD PUSH2 0x1CF2 JUMP JUMPDEST PUSH1 0x60 DUP4 ADD MSTORE PUSH2 0x1DFF DUP9 PUSH2 0x180 DUP7 ADD PUSH2 0x1C6D JUMP JUMPDEST PUSH1 0x80 DUP4 ADD MSTORE PUSH2 0x1E11 PUSH2 0x2A0 DUP6 ADD PUSH2 0x1CF2 JUMP JUMPDEST PUSH1 0xA0 DUP4 ADD MSTORE PUSH2 0x1E24 DUP9 PUSH2 0x2C0 DUP7 ADD PUSH2 0x1C6D JUMP JUMPDEST PUSH1 0xC0 DUP4 ADD MSTORE PUSH2 0x3E0 DUP5 ADD CALLDATALOAD PUSH1 0xE0 DUP4 ADD MSTORE PUSH2 0x1E42 DUP9 PUSH2 0x400 DUP7 ADD PUSH2 0x1C6D JUMP JUMPDEST PUSH2 0x100 DUP4 ADD MSTORE PUSH2 0x520 DUP5 ADD CALLDATALOAD PUSH2 0x120 DUP4 ADD MSTORE PUSH2 0x540 DUP5 ADD CALLDATALOAD DUP4 DUP2 GT ISZERO PUSH2 0x1E67 JUMPI PUSH1 0x0 DUP1 REVERT JUMPDEST PUSH2 0x1E73 DUP10 DUP3 DUP8 ADD PUSH2 0x1BE1 JUMP JUMPDEST PUSH2 0x140 DUP5 ADD MSTORE POP PUSH2 0x1E87 PUSH2 0x560 DUP6 ADD PUSH2 0x1CF2 JUMP JUMPDEST SWAP1 DUP3 ADD MSTORE SWAP4 POP PUSH2 0x1E9E SWAP2 POP DUP6 SWAP1 POP PUSH1 0x20 DUP6 ADD PUSH2 0x1D02 JUMP JUMPDEST SWAP1 POP SWAP3 POP SWAP3 SWAP1 POP JUMP JUMPDEST PUSH1 0x0 DUP1 PUSH1 0x40 DUP4 DUP6 SUB SLT ISZERO PUSH2 0x1EBA JUMPI PUSH1 0x0 DUP1 REVERT JUMPDEST DUP3 CALLDATALOAD PUSH1 0x1 PUSH1 0x1 PUSH1 0x40 SHL SUB DUP2 GT ISZERO PUSH2 0x1ED0 JUMPI PUSH1 0x0 DUP1 REVERT JUMPDEST PUSH2 0x1EDC DUP6 DUP3 DUP7 ADD PUSH2 0x1BE1 JUMP JUMPDEST SWAP3 POP POP PUSH2 0x1E9E PUSH1 0x20 DUP5 ADD PUSH2 0x1BA0 JUMP JUMPDEST PUSH1 0x0 DUP1 PUSH1 0x40 DUP4 DUP6 SUB SLT ISZERO PUSH2 0x1EFE JUMPI PUSH1 0x0 DUP1 REVERT JUMPDEST PUSH2 0x1F08 DUP5 DUP5 PUSH2 0x1AD8 JUMP JUMPDEST SWAP2 POP PUSH1 0x20 DUP4 ADD CALLDATALOAD PUSH1 0x1 PUSH1 0x1 PUSH1 0x40 SHL SUB DUP2 GT ISZERO PUSH2 0x1F23 JUMPI PUSH1 0x0 DUP1 REVERT JUMPDEST PUSH2 0x1F2F DUP6 DUP3 DUP7 ADD PUSH2 0x1BE1 JUMP JUMPDEST SWAP2 POP POP SWAP3 POP SWAP3 SWAP1 POP JUMP JUMPDEST PUSH1 0x0 DUP1 PUSH1 0x40 DUP4 DUP6 SUB SLT ISZERO PUSH2 0x1F4C JUMPI PUSH1 0x0 DUP1 REVERT JUMPDEST DUP3 CALLDATALOAD PUSH1 0x1 PUSH1 0x1 PUSH1 0x40 SHL SUB DUP1 DUP3 GT ISZERO PUSH2 0x1F63 JUMPI PUSH1 0x0 DUP1 REVERT JUMPDEST PUSH2 0x1F6F DUP7 DUP4 DUP8 ADD PUSH2 0x1BE1 JUMP JUMPDEST SWAP4 POP PUSH1 0x20 DUP6 ADD CALLDATALOAD SWAP2 POP DUP1 DUP3 GT ISZERO PUSH2 0x1F85 JUMPI PUSH1 0x0 DUP1 REVERT JUMPDEST POP PUSH2 0x1F2F DUP6 DUP3 DUP7 ADD PUSH2 0x1BE1 JUMP JUMPDEST PUSH4 0x4E487B71 PUSH1 0xE0 SHL PUSH1 0x0 MSTORE PUSH1 0x32 PUSH1 0x4 MSTORE PUSH1 0x24 PUSH1 0x0 REVERT JUMPDEST PUSH1 0x1 DUP2 DUP2 SHR SWAP1 DUP3 AND DUP1 PUSH2 0x1FBC JUMPI PUSH1 0x7F DUP3 AND SWAP2 POP JUMPDEST PUSH1 0x20 DUP3 LT DUP2 SUB PUSH2 0x1FDC JUMPI PUSH4 0x4E487B71 PUSH1 0xE0 SHL PUSH1 0x0 MSTORE PUSH1 0x22 PUSH1 0x4 MSTORE PUSH1 0x24 PUSH1 0x0 REVERT JUMPDEST POP SWAP2 SWAP1 POP JUMP JUMPDEST PUSH1 0x1F DUP3 GT ISZERO PUSH2 0x3FE JUMPI PUSH1 0x0 DUP2 PUSH1 0x0 MSTORE PUSH1 0x20 PUSH1 0x0 KECCAK256 PUSH1 0x1F DUP6 ADD PUSH1 0x5 SHR DUP2 ADD PUSH1 0x20 DUP7 LT ISZERO PUSH2 0x200B JUMPI POP DUP1 JUMPDEST PUSH1 0x1F DUP6 ADD PUSH1 0x5 SHR DUP3 ADD SWAP2 POP JUMPDEST DUP2 DUP2 LT ISZERO PUSH2 0x202A JUMPI DUP3 DUP2 SSTORE PUSH1 0x1 ADD PUSH2 0x2017 JUMP JUMPDEST POP POP POP POP POP POP JUMP JUMPDEST DUP2 MLOAD PUSH1 0x1 PUSH1 0x1 PUSH1 0x40 SHL SUB DUP2 GT ISZERO PUSH2 0x204B JUMPI PUSH2 0x204B PUSH2 0x19D8 JUMP JUMPDEST PUSH2 0x205F DUP2 PUSH2 0x2059 DUP5 SLOAD PUSH2 0x1FA8 JUMP JUMPDEST DUP5 PUSH2 0x1FE2 JUMP JUMPDEST PUSH1 0x20 DUP1 PUSH1 0x1F DUP4 GT PUSH1 0x1 DUP2 EQ PUSH2 0x2094 JUMPI PUSH1 0x0 DUP5 ISZERO PUSH2 0x207C JUMPI POP DUP6 DUP4 ADD MLOAD JUMPDEST PUSH1 0x0 NOT PUSH1 0x3 DUP7 SWAP1 SHL SHR NOT AND PUSH1 0x1 DUP6 SWAP1 SHL OR DUP6 SSTORE PUSH2 0x202A JUMP JUMPDEST PUSH1 0x0 DUP6 DUP2 MSTORE PUSH1 0x20 DUP2 KECCAK256 PUSH1 0x1F NOT DUP7 AND SWAP2 JUMPDEST DUP3 DUP2 LT ISZERO PUSH2 0x20C3 JUMPI DUP9 DUP7 ADD MLOAD DUP3 SSTORE SWAP5 DUP5 ADD SWAP5 PUSH1 0x1 SWAP1 SWAP2 ADD SWAP1 DUP5 ADD PUSH2 0x20A4 JUMP JUMPDEST POP DUP6 DUP3 LT ISZERO PUSH2 0x20E1 JUMPI DUP8 DUP6 ADD MLOAD PUSH1 0x0 NOT PUSH1 0x3 DUP9 SWAP1 SHL PUSH1 0xF8 AND SHR NOT AND DUP2 SSTORE JUMPDEST POP POP POP POP POP PUSH1 0x1 SWAP1 DUP2 SHL ADD SWAP1 SSTORE POP JUMP JUMPDEST DUP2 DUP2 SUB PUSH2 0x20FC JUMPI POP POP JUMP JUMPDEST PUSH2 0x2106 DUP3 SLOAD PUSH2 0x1FA8 JUMP JUMPDEST PUSH1 0x1 PUSH1 0x1 PUSH1 0x40 SHL SUB DUP2 GT ISZERO PUSH2 0x211D JUMPI PUSH2 0x211D PUSH2 0x19D8 JUMP JUMPDEST PUSH2 0x212B DUP2 PUSH2 0x2059 DUP5 SLOAD PUSH2 0x1FA8 JUMP JUMPDEST PUSH1 0x0 PUSH1 0x1F DUP3 GT PUSH1 0x1 DUP2 EQ PUSH2 0x215F JUMPI PUSH1 0x0 DUP4 ISZERO PUSH2 0x2147 JUMPI POP DUP5 DUP3 ADD SLOAD JUMPDEST PUSH1 0x0 NOT PUSH1 0x3 DUP6 SWAP1 SHL SHR NOT AND PUSH1 0x1 DUP5 SWAP1 SHL OR DUP5 SSTORE PUSH2 0x21C4 JUMP JUMPDEST PUSH1 0x0 DUP6 DUP2 MSTORE PUSH1 0x20 SWAP1 KECCAK256 PUSH1 0x1F NOT DUP5 AND SWAP1 PUSH1 0x0 DUP7 DUP2 MSTORE PUSH1 0x20 SWAP1 KECCAK256 DUP5 JUMPDEST DUP4 DUP2 LT ISZERO PUSH2 0x2199 JUMPI DUP3 DUP7 ADD SLOAD DUP3 SSTORE PUSH1 0x1 SWAP6 DUP7 ADD SWAP6 SWAP1 SWAP2 ADD SWAP1 PUSH1 0x20 ADD PUSH2 0x2179 JUMP JUMPDEST POP DUP6 DUP4 LT ISZERO PUSH2 0x21B7 JUMPI DUP2 DUP6 ADD SLOAD PUSH1 0x0 NOT PUSH1 0x3 DUP9 SWAP1 SHL PUSH1 0xF8 AND SHR NOT AND DUP2 SSTORE JUMPDEST POP POP POP PUSH1 0x1 DUP4 PUSH1 0x1 SHL ADD DUP5 SSTORE JUMPDEST POP POP POP POP POP JUMP JUMPDEST PUSH1 0x0 DUP3 MLOAD PUSH1 0x0 JUMPDEST DUP2 DUP2 LT ISZERO PUSH2 0x21EC JUMPI PUSH1 0x20 DUP2 DUP7 ADD DUP2 ADD MLOAD DUP6 DUP4 ADD MSTORE ADD PUSH2 0x21D2 JUMP JUMPDEST POP PUSH1 0x0 SWAP3 ADD SWAP2 DUP3 MSTORE POP SWAP2 SWAP1 POP JUMP JUMPDEST PUSH4 0x4E487B71 PUSH1 0xE0 SHL PUSH1 0x0 MSTORE PUSH1 0x11 PUSH1 0x4 MSTORE PUSH1 0x24 PUSH1 0x0 REVERT JUMPDEST DUP1 DUP3 ADD DUP1 DUP3 GT ISZERO PUSH2 0x593 JUMPI PUSH2 0x593 PUSH2 0x21FA JUMP JUMPDEST PUSH1 0x0 DUP3 PUSH2 0x2240 JUMPI PUSH4 0x4E487B71 PUSH1 0xE0 SHL PUSH1 0x0 MSTORE PUSH1 0x12 PUSH1 0x4 MSTORE PUSH1 0x24 PUSH1 0x0 REVERT JUMPDEST POP MOD SWAP1 JUMP JUMPDEST DUP2 DUP2 SUB DUP2 DUP2 GT ISZERO PUSH2 0x593 JUMPI PUSH2 0x593 PUSH2 0x21FA JUMP JUMPDEST DUP1 DUP3 MUL DUP2 ISZERO DUP3 DUP3 DIV DUP5 EQ OR PUSH2 0x593 JUMPI PUSH2 0x593 PUSH2 0x21FA JUMP INVALID LOG2 PUSH5 0x6970667358 0x22 SLT KECCAK256 DUP15 MSTORE8 0xE0 0xCD 0xD5 LOG2 0xFB JUMP 0xB2 DUP3 0xF PUSH15 0x96B24B3080C73F255BBF530E95556 LOG1 PUSH11 0x3B8FBC64736F6C63430008 AND STOP CALLER ",
  "sha1": "ac179ade92d516fdc1e83b03bfa17f2e99345f2d",
  "source": "//SPDX-License-Identifier: UNLICENSED\n\npragma solidity ^0.8.9;\n\nimport \"./Approvable.sol\";\nimport \"./verifier.sol\"; // update verifier after\n\ncontract FlightAuth is Approvable, Verifier {\n    // Defines Aircraft data\n    struct FlightRequest {\n        string _SN;\n        // Operational Mode variables\n        uint _op_mode;\n        ZKProof proof_op_mode;\n        // Flight Type variables\n        bool _flight_type;\n        ZKProof proof_flight_type;\n        // Flight Category variables\n        bool _flight_cat;\n        ZKProof proof_flight_cat;\n        // Operator Number variables\n        uint256 _operator_num;\n        ZKProof proof_operator_num;\n        uint256 endurance;\n        string trajectory_4D; //hash from ipfs\n        bool approved;\n    }\n\n    struct ZKProof {\n        uint256[2] _part1;\n        uint256[2][2] _part2;\n        uint256[2] _part3;\n        uint256[1] _part4;\n    }\n\n    struct FlightInfo {\n        uint id_tech;\n        uint ex_connec_meth;\n        uint emergency_proc;\n    }\n\n\n    // Defines the new user event\n    // This event is \"displayed\" each time a new flight request is done\n    event NewFlightRequest(\n        uint createdAt,\n        string indexed serial_number,\n        uint op_mode,\n        bool flight_type,\n        bool flight_cat,\n        uint id_tech,\n        uint ex_connect_meth,\n        uint256 endurance,\n        uint emergency_proc,\n        uint256 indexed operator_num,\n        bool indexed approved\n    );\n\n        event NewPrivateFlightRequest(\n        uint createdAt,\n        uint op_mode,\n        bool flight_type,\n        bool flight_cat,\n        bool indexed approved\n    );\n\n    uint256[1] root_operator;\n    uint256[1] root_open;\n    uint256[1] root_specific;\n    uint256[1] root_cerified;\n    uint256[1] private root_specialops;\n    uint256[1] root_BVLOS;\n\n    constructor() Approvable(msg.sender, \"Owner\") {}\n\n    function _createFlightRequest(\n        FlightRequest memory current_request,\n        FlightInfo memory current_info\n    ) internal {\n        current_request.approved = false;\n\n        if (isValid(current_request) == true && current_request._flight_type == false) {\n            current_request.approved = true;\n            uint _createdAt = block.timestamp;\n            emit NewFlightRequest(\n            _createdAt,\n            current_request._SN,\n            current_request._op_mode,\n            current_request._flight_type,\n            current_request._flight_cat,\n            current_info.id_tech,\n            current_info.ex_connec_meth,\n            current_request.endurance,\n            current_info.emergency_proc,\n            current_request._operator_num,\n            current_request.approved\n        );  \n        }\n        else if (isValid(current_request) == false && current_request._flight_type == false){\n            uint _createdAt = block.timestamp;\n            emit NewFlightRequest(\n            _createdAt,\n            current_request._SN,\n            current_request._op_mode,\n            current_request._flight_type,\n            current_request._flight_cat,\n            current_info.id_tech,\n            current_info.ex_connec_meth,\n            current_request.endurance,\n            current_info.emergency_proc,\n            current_request._operator_num,\n            current_request.approved);\n        }\n        else if (isValid(current_request) == true && current_request._flight_type == true){\n            current_request.approved = true;\n            uint _createdAt = block.timestamp;\n            emit NewPrivateFlightRequest(\n            _createdAt,\n            current_request._op_mode,\n            current_request._flight_type,\n            current_request._flight_cat,\n            current_request.approved);\n        }\n        else if (isValid(current_request) == false && current_request._flight_type == true){\n            uint _createdAt = block.timestamp;\n            emit NewPrivateFlightRequest(\n            _createdAt,\n            current_request._op_mode,\n            current_request._flight_type,\n            current_request._flight_cat,\n            current_request.approved);\n        }\n    \n    }\n\n    function setupFlightRequest(\n        FlightRequest memory current_request,\n        FlightInfo memory current_info\n    ) public {\n        _createFlightRequest(current_request, current_info);\n    }\n\n    function isValid(\n        FlightRequest memory request\n    ) internal view returns (bool valid) {\n        if (request._flight_type == true && request._flight_cat == true){\n            bool flighttypevalid = (request.proof_flight_type._part4[0] == root_specialops[0]);\n            bool flight_cat = (request.proof_flight_cat._part4[0] == root_BVLOS[0]);\n            bool oprootvalid;\n            \n            if (request._op_mode == 0){\n                oprootvalid = (request.proof_op_mode._part4[0] == root_open[0]);\n            }\n            else if (request._op_mode == 1){\n                oprootvalid = (request.proof_op_mode._part4[0] == root_specific[0]);\n            }\n            else if (request._op_mode == 2){\n                oprootvalid = (request.proof_op_mode._part4[0] == root_cerified[0]);\n            }\n\n            return (verifyProof(\n            request.proof_op_mode._part1,\n            request.proof_op_mode._part2,\n            request.proof_op_mode._part3,\n            request.proof_op_mode._part4\n        )\n         &&\n            verifyProof(\n                request.proof_flight_type._part1,\n                request.proof_flight_type._part2,\n                request.proof_flight_type._part3,\n                request.proof_flight_type._part4\n            ) &&\n            verifyProof(\n                request.proof_flight_cat._part1,\n                request.proof_flight_cat._part2,\n                request.proof_flight_cat._part3,\n                request.proof_flight_cat._part4\n            ) &&\n            verifyProof(\n                request.proof_operator_num._part1,\n                request.proof_operator_num._part2,\n                request.proof_operator_num._part3,\n                request.proof_operator_num._part4\n            )&& flighttypevalid && flight_cat && oprootvalid);\n\n        }\n        if (request._flight_type == true && request._flight_cat == false){\n\n            bool flighttypevalid = (request.proof_flight_type._part4[0] == root_specialops[0]);\n            bool oprootvalid;\n            \n            if (request._op_mode == 0){\n                oprootvalid = (request.proof_op_mode._part4[0] == root_open[0]);\n            }\n            else if (request._op_mode == 1){\n                oprootvalid = (request.proof_op_mode._part4[0] == root_specific[0]);\n            }\n            else if (request._op_mode == 2){\n                oprootvalid = (request.proof_op_mode._part4[0] == root_cerified[0]);\n            }\n\n            return (verifyProof(\n            request.proof_op_mode._part1,\n            request.proof_op_mode._part2,\n            request.proof_op_mode._part3,\n            request.proof_op_mode._part4\n        )\n         &&\n            verifyProof(\n                request.proof_flight_type._part1,\n                request.proof_flight_type._part2,\n                request.proof_flight_type._part3,\n                request.proof_flight_type._part4\n            ) &&\n            verifyProof(\n                request.proof_operator_num._part1,\n                request.proof_operator_num._part2,\n                request.proof_operator_num._part3,\n                request.proof_operator_num._part4\n            )&& flighttypevalid && oprootvalid);\n            \n        }\n\n        if (request._flight_type == false && request._flight_cat == true){\n\n            bool flight_cat = (request.proof_flight_cat._part4[0] == root_BVLOS[0]);\n            bool oprootvalid;\n            \n            if (request._op_mode == 0){\n                oprootvalid = (request.proof_op_mode._part4[0] == root_open[0]);\n            }\n            else if (request._op_mode == 1){\n                oprootvalid = (request.proof_op_mode._part4[0] == root_specific[0]);\n            }\n            else if (request._op_mode == 2){\n                oprootvalid = (request.proof_op_mode._part4[0] == root_cerified[0]);\n            }\n\n            return (verifyProof(\n            request.proof_op_mode._part1,\n            request.proof_op_mode._part2,\n            request.proof_op_mode._part3,\n            request.proof_op_mode._part4\n        )\n         &&\n           verifyProof(\n                request.proof_flight_cat._part1,\n                request.proof_flight_cat._part2,\n                request.proof_flight_cat._part3,\n                request.proof_flight_cat._part4\n            ) &&\n            verifyProof(\n                request.proof_operator_num._part1,\n                request.proof_operator_num._part2,\n                request.proof_operator_num._part3,\n                request.proof_operator_num._part4\n            )&& flight_cat && oprootvalid);\n            \n        }\n\n        if (request._flight_type == false && request._flight_cat == false){\n\n            bool oprootvalid;\n            \n            if (request._op_mode == 0){\n                oprootvalid = (request.proof_op_mode._part4[0] == root_open[0]);\n            }\n            else if (request._op_mode == 1){\n                oprootvalid = (request.proof_op_mode._part4[0] == root_specific[0]);\n            }\n            else if (request._op_mode == 2){\n                oprootvalid = (request.proof_op_mode._part4[0] == root_cerified[0]);\n            }\n\n            return (verifyProof(\n            request.proof_op_mode._part1,\n            request.proof_op_mode._part2,\n            request.proof_op_mode._part3,\n            request.proof_op_mode._part4\n        )\n         &&\n            verifyProof(\n                request.proof_operator_num._part1,\n                request.proof_operator_num._part2,\n                request.proof_operator_num._part3,\n                request.proof_operator_num._part4\n            )&& oprootvalid);\n            \n        }\n        \n    }\n\n    function compareStrings(string memory a, string memory b) public pure returns (bool) {\n    return (keccak256(abi.encodePacked((a))) == keccak256(abi.encodePacked((b))));\n}\n\n    function updateRoot(uint256[1] memory root,\n                        string memory name_of_tree\n                    ) public creatorOnly {\n                        if (compareStrings(name_of_tree, \"Operator\")==true){\n                            root_operator = root;\n                        }else if (compareStrings(name_of_tree, \"Open\")==true){\n                            root_open = root;\n                        }else if (compareStrings(name_of_tree, \"Specific\")==true){\n                            root_specific = root;\n                        }else if (compareStrings(name_of_tree, \"Certified\")==true){\n                            root_cerified = root;\n                        }else if (compareStrings(name_of_tree, \"SpecialOps\")==true){\n                            root_specialops = root;\n                        }else if (compareStrings(name_of_tree, \"BVLOS\")== true){\n                            root_BVLOS = root;\n                        }else {\n                            return;\n                        }\n\n    }\n}\n\n\n",
  "sourcePath": "contracts/FlightAuth.sol",
  "type": "contract"
}